{"contracts/MegaBrainTaskManager.sol":{"MegaBrainTaskManager":{"abi":[{"inputs":[{"internalType":"address","name":"_registry","type":"address"},{"internalType":"address","name":"_paymentToken","type":"address"},{"internalType":"address","name":"initialOwner","type":"address"}],"stateMutability":"nonpayable","type":"constructor"},{"inputs":[{"internalType":"address","name":"owner","type":"address"}],"name":"OwnableInvalidOwner","type":"error"},{"inputs":[{"internalType":"address","name":"account","type":"address"}],"name":"OwnableUnauthorizedAccount","type":"error"},{"inputs":[],"name":"ReentrancyGuardReentrantCall","type":"error"},{"anonymous":false,"inputs":[{"indexed":true,"internalType":"bytes32","name":"taskId","type":"bytes32"},{"indexed":true,"internalType":"address","name":"disputant","type":"address"},{"indexed":false,"internalType":"uint64","name":"arbitrationDeadline","type":"uint64"}],"name":"DisputeOpened","type":"event"},{"anonymous":false,"inputs":[{"indexed":true,"internalType":"bytes32","name":"taskId","type":"bytes32"},{"indexed":true,"internalType":"address","name":"evaluator","type":"address"},{"indexed":true,"internalType":"address","name":"worker","type":"address"},{"indexed":false,"internalType":"uint8","name":"score","type":"uint8"},{"indexed":false,"internalType":"uint8","name":"confidence","type":"uint8"}],"name":"EvaluationSubmitted","type":"event"},{"anonymous":false,"inputs":[{"indexed":true,"internalType":"bytes32","name":"taskId","type":"bytes32"},{"indexed":true,"internalType":"address","name":"evaluator","type":"address"},{"indexed":false,"internalType":"uint256","name":"stakeLocked","type":"uint256"}],"name":"EvaluatorJoined","type":"event"},{"anonymous":false,"inputs":[{"indexed":true,"internalType":"bytes32","name":"taskId","type":"bytes32"},{"indexed":true,"internalType":"address","name":"evaluator","type":"address"},{"indexed":false,"internalType":"uint256","name":"amount","type":"uint256"}],"name":"EvaluatorPaid","type":"event"},{"anonymous":false,"inputs":[{"indexed":true,"internalType":"address","name":"previousOwner","type":"address"},{"indexed":true,"internalType":"address","name":"newOwner","type":"address"}],"name":"OwnershipTransferred","type":"event"},{"anonymous":false,"inputs":[{"indexed":true,"internalType":"bytes32","name":"taskId","type":"bytes32"},{"indexed":true,"internalType":"address","name":"worker","type":"address"},{"indexed":false,"internalType":"bytes32","name":"resultHash","type":"bytes32"},{"indexed":false,"internalType":"uint64","name":"timestamp","type":"uint64"}],"name":"ResultSubmitted","type":"event"},{"anonymous":false,"inputs":[{"indexed":true,"internalType":"bytes32","name":"taskId","type":"bytes32"},{"indexed":true,"internalType":"address","name":"agent","type":"address"},{"indexed":false,"internalType":"uint256","name":"amount","type":"uint256"},{"indexed":false,"internalType":"string","name":"reason","type":"string"}],"name":"StakeSlashed","type":"event"},{"anonymous":false,"inputs":[{"indexed":true,"internalType":"bytes32","name":"taskId","type":"bytes32"},{"indexed":true,"internalType":"address","name":"requester","type":"address"},{"indexed":false,"internalType":"uint256","name":"totalBudget","type":"uint256"},{"indexed":false,"internalType":"uint8","name":"workerCount","type":"uint8"},{"indexed":false,"internalType":"uint8","name":"evaluatorCount","type":"uint8"},{"indexed":false,"internalType":"uint64","name":"submissionDeadline","type":"uint64"}],"name":"TaskCreated","type":"event"},{"anonymous":false,"inputs":[{"indexed":true,"internalType":"bytes32","name":"taskId","type":"bytes32"},{"indexed":false,"internalType":"bytes32","name":"winningClusterHash","type":"bytes32"},{"indexed":false,"internalType":"uint256","name":"totalPaid","type":"uint256"},{"indexed":false,"internalType":"uint256","name":"totalSlashed","type":"uint256"}],"name":"TaskSettled","type":"event"},{"anonymous":false,"inputs":[{"indexed":true,"internalType":"bytes32","name":"taskId","type":"bytes32"},{"indexed":true,"internalType":"address","name":"worker","type":"address"},{"indexed":false,"internalType":"uint256","name":"stakeLocked","type":"uint256"}],"name":"WorkerJoined","type":"event"},{"anonymous":false,"inputs":[{"indexed":true,"internalType":"bytes32","name":"taskId","type":"bytes32"},{"indexed":true,"internalType":"address","name":"worker","type":"address"},{"indexed":false,"internalType":"uint256","name":"amount","type":"uint256"},{"indexed":false,"internalType":"bool","name":"bonus","type":"bool"}],"name":"WorkerPaid","type":"event"},{"inputs":[],"name":"BASIS_POINTS","outputs":[{"internalType":"uint256","name":"","type":"uint256"}],"stateMutability":"view","type":"function"},{"inputs":[],"name":"BONUS_POOL_BP","outputs":[{"internalType":"uint256","name":"","type":"uint256"}],"stateMutability":"view","type":"function"},{"inputs":[],"name":"EVALUATOR_POOL_BP","outputs":[{"internalType":"uint256","name":"","type":"uint256"}],"stateMutability":"view","type":"function"},{"inputs":[],"name":"WORKER_POOL_BP","outputs":[{"internalType":"uint256","name":"","type":"uint256"}],"stateMutability":"view","type":"function"},{"inputs":[{"internalType":"uint256","name":"","type":"uint256"}],"name":"allTaskIds","outputs":[{"internalType":"bytes32","name":"","type":"bytes32"}],"stateMutability":"view","type":"function"},{"inputs":[{"internalType":"bytes32","name":"_taskId","type":"bytes32"}],"name":"cancelTask","outputs":[],"stateMutability":"nonpayable","type":"function"},{"inputs":[{"internalType":"bytes32","name":"_taskId","type":"bytes32"},{"internalType":"string","name":"_description","type":"string"},{"internalType":"bytes32","name":"_taskClass","type":"bytes32"},{"internalType":"uint256","name":"_totalBudget","type":"uint256"},{"internalType":"uint256","name":"_workerStake","type":"uint256"},{"internalType":"uint256","name":"_evaluatorStake","type":"uint256"},{"internalType":"uint64","name":"_submissionDeadline","type":"uint64"},{"internalType":"bytes32","name":"_metadataURI","type":"bytes32"},{"internalType":"uint8","name":"_workerCount","type":"uint8"},{"internalType":"uint8","name":"_evaluatorCount","type":"uint8"}],"name":"createTask","outputs":[{"internalType":"bool","name":"","type":"bool"}],"stateMutability":"nonpayable","type":"function"},{"inputs":[],"name":"defaultEvaluationWindow","outputs":[{"internalType":"uint64","name":"","type":"uint64"}],"stateMutability":"view","type":"function"},{"inputs":[],"name":"defaultEvaluatorCount","outputs":[{"internalType":"uint8","name":"","type":"uint8"}],"stateMutability":"view","type":"function"},{"inputs":[],"name":"defaultSubmissionWindow","outputs":[{"internalType":"uint64","name":"","type":"uint64"}],"stateMutability":"view","type":"function"},{"inputs":[],"name":"defaultWorkerCount","outputs":[{"internalType":"uint8","name":"","type":"uint8"}],"stateMutability":"view","type":"function"},{"inputs":[{"internalType":"address","name":"_token","type":"address"},{"internalType":"uint256","name":"_amount","type":"uint256"}],"name":"emergencyWithdraw","outputs":[],"stateMutability":"nonpayable","type":"function"},{"inputs":[{"internalType":"bytes32","name":"","type":"bytes32"},{"internalType":"address","name":"","type":"address"},{"internalType":"address","name":"","type":"address"}],"name":"evaluations","outputs":[{"internalType":"uint8","name":"score","type":"uint8"},{"internalType":"uint8","name":"confidence","type":"uint8"},{"internalType":"bytes32","name":"evaluationHash","type":"bytes32"},{"internalType":"string","name":"rationale","type":"string"},{"internalType":"uint64","name":"submittedAt","type":"uint64"},{"internalType":"bool","name":"submitted","type":"bool"},{"internalType":"uint256","name":"payment","type":"uint256"},{"internalType":"bool","name":"alignedWithConsensus","type":"bool"}],"stateMutability":"view","type":"function"},{"inputs":[{"internalType":"address","name":"","type":"address"},{"internalType":"uint256","name":"","type":"uint256"}],"name":"evaluatorTasks","outputs":[{"internalType":"bytes32","name":"","type":"bytes32"}],"stateMutability":"view","type":"function"},{"inputs":[{"internalType":"bytes32","name":"_taskId","type":"bytes32"},{"internalType":"address","name":"_evaluator","type":"address"},{"internalType":"address","name":"_worker","type":"address"}],"name":"getEvaluation","outputs":[{"components":[{"internalType":"uint8","name":"score","type":"uint8"},{"internalType":"uint8","name":"confidence","type":"uint8"},{"internalType":"bytes32","name":"evaluationHash","type":"bytes32"},{"internalType":"string","name":"rationale","type":"string"},{"internalType":"uint64","name":"submittedAt","type":"uint64"},{"internalType":"bool","name":"submitted","type":"bool"},{"internalType":"uint256","name":"payment","type":"uint256"},{"internalType":"bool","name":"alignedWithConsensus","type":"bool"}],"internalType":"struct MegaBrainTaskManager.Evaluation","name":"","type":"tuple"}],"stateMutability":"view","type":"function"},{"inputs":[{"internalType":"address","name":"_evaluator","type":"address"}],"name":"getEvaluatorTasks","outputs":[{"internalType":"bytes32[]","name":"","type":"bytes32[]"}],"stateMutability":"view","type":"function"},{"inputs":[{"internalType":"address","name":"_requester","type":"address"}],"name":"getRequesterTasks","outputs":[{"internalType":"bytes32[]","name":"","type":"bytes32[]"}],"stateMutability":"view","type":"function"},{"inputs":[{"internalType":"bytes32","name":"_taskId","type":"bytes32"},{"internalType":"address","name":"_worker","type":"address"}],"name":"getResult","outputs":[{"components":[{"internalType":"bytes32","name":"resultHash","type":"bytes32"},{"internalType":"string","name":"summary","type":"string"},{"internalType":"bytes32","name":"proof","type":"bytes32"},{"internalType":"uint64","name":"submittedAt","type":"uint64"},{"internalType":"bool","name":"submitted","type":"bool"},{"internalType":"uint8","name":"finalScore","type":"uint8"},{"internalType":"uint256","name":"payment","type":"uint256"},{"internalType":"bool","name":"inConsensus","type":"bool"}],"internalType":"struct MegaBrainTaskManager.Result","name":"","type":"tuple"}],"stateMutability":"view","type":"function"},{"inputs":[{"internalType":"bytes32","name":"_taskId","type":"bytes32"}],"name":"getTask","outputs":[{"components":[{"internalType":"bytes32","name":"taskId","type":"bytes32"},{"internalType":"address","name":"requester","type":"address"},{"internalType":"string","name":"description","type":"string"},{"internalType":"bytes32","name":"taskClass","type":"bytes32"},{"internalType":"uint256","name":"totalBudget","type":"uint256"},{"internalType":"uint256","name":"workerPoolAmount","type":"uint256"},{"internalType":"uint256","name":"evaluatorPoolAmount","type":"uint256"},{"internalType":"uint256","name":"bonusPoolAmount","type":"uint256"},{"internalType":"uint256","name":"workerStake","type":"uint256"},{"internalType":"uint256","name":"evaluatorStake","type":"uint256"},{"internalType":"uint64","name":"submissionDeadline","type":"uint64"},{"internalType":"uint64","name":"evaluationDeadline","type":"uint64"},{"internalType":"uint64","name":"createdAt","type":"uint64"},{"internalType":"enum MegaBrainTaskManager.TaskStatus","name":"status","type":"uint8"},{"internalType":"uint8","name":"workerCount","type":"uint8"},{"internalType":"uint8","name":"evaluatorCount","type":"uint8"},{"internalType":"address[]","name":"workers","type":"address[]"},{"internalType":"address[]","name":"evaluators","type":"address[]"},{"internalType":"bytes32","name":"metadataURI","type":"bytes32"}],"internalType":"struct MegaBrainTaskManager.Task","name":"","type":"tuple"}],"stateMutability":"view","type":"function"},{"inputs":[],"name":"getTaskCount","outputs":[{"internalType":"uint256","name":"","type":"uint256"}],"stateMutability":"view","type":"function"},{"inputs":[{"internalType":"address","name":"_worker","type":"address"}],"name":"getWorkerTasks","outputs":[{"internalType":"bytes32[]","name":"","type":"bytes32[]"}],"stateMutability":"view","type":"function"},{"inputs":[{"internalType":"bytes32","name":"","type":"bytes32"},{"internalType":"address","name":"","type":"address"}],"name":"inConsensusCluster","outputs":[{"internalType":"bool","name":"","type":"bool"}],"stateMutability":"view","type":"function"},{"inputs":[],"name":"owner","outputs":[{"internalType":"address","name":"","type":"address"}],"stateMutability":"view","type":"function"},{"inputs":[],"name":"paymentToken","outputs":[{"internalType":"contract IERC20","name":"","type":"address"}],"stateMutability":"view","type":"function"},{"inputs":[],"name":"registry","outputs":[{"internalType":"contract MegaBrainRegistry","name":"","type":"address"}],"stateMutability":"view","type":"function"},{"inputs":[],"name":"renounceOwnership","outputs":[],"stateMutability":"nonpayable","type":"function"},{"inputs":[{"internalType":"address","name":"","type":"address"},{"internalType":"uint256","name":"","type":"uint256"}],"name":"requesterTasks","outputs":[{"internalType":"bytes32","name":"","type":"bytes32"}],"stateMutability":"view","type":"function"},{"inputs":[{"internalType":"bytes32","name":"","type":"bytes32"},{"internalType":"address","name":"","type":"address"}],"name":"results","outputs":[{"internalType":"bytes32","name":"resultHash","type":"bytes32"},{"internalType":"string","name":"summary","type":"string"},{"internalType":"bytes32","name":"proof","type":"bytes32"},{"internalType":"uint64","name":"submittedAt","type":"uint64"},{"internalType":"bool","name":"submitted","type":"bool"},{"internalType":"uint8","name":"finalScore","type":"uint8"},{"internalType":"uint256","name":"payment","type":"uint256"},{"internalType":"bool","name":"inConsensus","type":"bool"}],"stateMutability":"view","type":"function"},{"inputs":[{"internalType":"bytes32","name":"_taskId","type":"bytes32"},{"internalType":"address[]","name":"_evaluators","type":"address[]"}],"name":"selectEvaluators","outputs":[],"stateMutability":"nonpayable","type":"function"},{"inputs":[{"internalType":"bytes32","name":"_taskId","type":"bytes32"},{"internalType":"address[]","name":"_workers","type":"address[]"}],"name":"selectWorkers","outputs":[],"stateMutability":"nonpayable","type":"function"},{"inputs":[{"internalType":"bytes32","name":"_taskId","type":"bytes32"},{"internalType":"bytes32","name":"_winningClusterHash","type":"bytes32"},{"internalType":"address[]","name":"_consensusWorkers","type":"address[]"},{"internalType":"uint8[]","name":"_workerScores","type":"uint8[]"},{"internalType":"address[]","name":"_alignedEvaluators","type":"address[]"},{"internalType":"address[]","name":"_outlierEvaluators","type":"address[]"}],"name":"settleTask","outputs":[],"stateMutability":"nonpayable","type":"function"},{"inputs":[{"internalType":"bytes32","name":"_taskId","type":"bytes32"},{"internalType":"address","name":"_evaluatedWorker","type":"address"},{"internalType":"uint8","name":"_score","type":"uint8"},{"internalType":"uint8","name":"_confidence","type":"uint8"},{"internalType":"bytes32","name":"_evaluationHash","type":"bytes32"},{"internalType":"string","name":"_rationale","type":"string"}],"name":"submitEvaluation","outputs":[],"stateMutability":"nonpayable","type":"function"},{"inputs":[{"internalType":"bytes32","name":"_taskId","type":"bytes32"},{"internalType":"bytes32","name":"_resultHash","type":"bytes32"},{"internalType":"string","name":"_summary","type":"string"},{"internalType":"bytes32","name":"_proof","type":"bytes32"}],"name":"submitResult","outputs":[],"stateMutability":"nonpayable","type":"function"},{"inputs":[{"internalType":"bytes32","name":"","type":"bytes32"}],"name":"tasks","outputs":[{"internalType":"bytes32","name":"taskId","type":"bytes32"},{"internalType":"address","name":"requester","type":"address"},{"internalType":"string","name":"description","type":"string"},{"internalType":"bytes32","name":"taskClass","type":"bytes32"},{"internalType":"uint256","name":"totalBudget","type":"uint256"},{"internalType":"uint256","name":"workerPoolAmount","type":"uint256"},{"internalType":"uint256","name":"evaluatorPoolAmount","type":"uint256"},{"internalType":"uint256","name":"bonusPoolAmount","type":"uint256"},{"internalType":"uint256","name":"workerStake","type":"uint256"},{"internalType":"uint256","name":"evaluatorStake","type":"uint256"},{"internalType":"uint64","name":"submissionDeadline","type":"uint64"},{"internalType":"uint64","name":"evaluationDeadline","type":"uint64"},{"internalType":"uint64","name":"createdAt","type":"uint64"},{"internalType":"enum MegaBrainTaskManager.TaskStatus","name":"status","type":"uint8"},{"internalType":"uint8","name":"workerCount","type":"uint8"},{"internalType":"uint8","name":"evaluatorCount","type":"uint8"},{"internalType":"bytes32","name":"metadataURI","type":"bytes32"}],"stateMutability":"view","type":"function"},{"inputs":[{"internalType":"address","name":"newOwner","type":"address"}],"name":"transferOwnership","outputs":[],"stateMutability":"nonpayable","type":"function"},{"inputs":[{"internalType":"uint8","name":"_workerCount","type":"uint8"},{"internalType":"uint8","name":"_evaluatorCount","type":"uint8"},{"internalType":"uint64","name":"_submissionWindow","type":"uint64"},{"internalType":"uint64","name":"_evaluationWindow","type":"uint64"}],"name":"updateDefaults","outputs":[],"stateMutability":"nonpayable","type":"function"},{"inputs":[{"internalType":"bytes32","name":"","type":"bytes32"}],"name":"winningClusterHash","outputs":[{"internalType":"bytes32","name":"","type":"bytes32"}],"stateMutability":"view","type":"function"},{"inputs":[{"internalType":"address","name":"","type":"address"},{"internalType":"uint256","name":"","type":"uint256"}],"name":"workerTasks","outputs":[{"internalType":"bytes32","name":"","type":"bytes32"}],"stateMutability":"view","type":"function"}],"evm":{"bytecode":{"linkReferences":{},"object":"6080346200011b57601f62003da138819003918201601f19168301916001600160401b0383118484101762000120578084926060946040528339810103126200011b576200004d8162000136565b9060406200005e6020830162000136565b916001600160a01b0391829162000076910162000136565b169182156200010257816000549460018060a01b03199480868816176000558260405197167f8be0079c531659141344cd1fd0a4f28419497f9722a3daafe3b4186f6b6457e0600080a3600180556ba8c00000000000015180020360018060901b0319600d541617600d551683600254161760025516906003541617600355613c5590816200014c8239f35b604051631e4fbdf760e01b815260006004820152602490fd5b600080fd5b634e487b7160e01b600052604160045260246000fd5b51906001600160a01b03821682036200011b5756fe61010080604052600436101561001457600080fd5b60003560e01c90816313d9a2cd146135cd5750806315a29035146132c95780631b07b47d14612d365780632bf70dee14612cec5780633013ce2914612cc35780633d7fe3f814612ca65780633fde66a414612718578063457cebcc146126f75780634c8d0f0c146125a55780635246730d1461252d5780635507edd1146125035780635647e626146124b6578063715018a61461245d57806376c3504b1461240c5780637b103999146123e35780637b1a91da1461228d57806382627e4f146121e7578063841defe8146121ca57806387237b53146121095780638da5cb5b146120e05780639187008814611bc257806394e4cf1e14611b9857806395ccea6714611ad1578063a0974a0a14611a87578063a97e71a914611a6a578063aae895c5146119e2578063c17a340e146119c4578063c25efb8e146116f2578063c380792e14611634578063d2a254d71461123c578063dd760bae14611210578063e1f1c4a7146111f3578063e579f500146110dc578063e75e0638146110b8578063ee8ca3b514610ef9578063efa3d6c414610ea1578063f2fde38b14610e135763f80aad88146101c257600080fd5b346105fb5760c03660031901126105fb576001600160401b036044358181116105fb576101f390369060040161390d565b608052906064358181116105fb5761020f90369060040161390d565b929060a0526084358281116105fb5761022c90369060040161390d565b9260a4359081116105fb5761024590369060040161390d565b60e05260c052610253613970565b61025b613a5d565b6004356000526004602052604060002092600a84015460ff8160c01c166006811015610dfd57600203610dc257600b85015460805111610d7d576080518603610d415760ff60c01b1916600360c01b17600a8501556004356000908152600b60205260408120602435905580805b87608051808310156103c757878361037361036e826103c297966103bd96600435600052600c60205260406000209061031361030e60018060a01b039889938b613b07565b613b17565b166000526020526040600020600160ff19918183825416179055600435600052600597886020528761035161030e8760406000209460805190613b07565b16600052602052876040600020019182541617905560a051613b07565b613bac565b9160043560005260205260406000209061039461030e868d60805190613b07565b1660005260205260036040600020019060ff60481b82549160481b169060ff60481b1916179055565b613af8565b6102c9565b505050919490926000946000955b8860805188101561040c576104069160ff6103f961036e8b6104009560a051613b07565b1690613bba565b96613af8565b956103d5565b965093966000975b60805198898110156106b35761043261030e828b9c879c9b9c613b07565b60ff61044961036e8460058b01549c60a051613b07565b16898181020481148a15171561069d5788610466918d9b026139b4565b906004356000526005602052604060002060018060a01b03821660005260205281600460406000200155605a60ff6104a661036e8660009e60a051613b07565b16101580610690575b61066c575b600060206105046104c960088c015486613bba565b60035460405163a9059cbb60e01b81526001600160a01b03878116600483015260248201939093529485939190921691839182906044820190565b03925af19081156105ef5760009161063d575b501561060057610528828d95613bba565b99600a60ff61054861036e8760018060a01b03600254169960a051613b07565b1605853b156105fb576040516361a167eb60e11b81526001600160a01b03841660048201526024810191909152946000908690604490829084905af19485156105ef576105d8956105e0575b506040519283521515602083015260018060a01b0316907f5c431b2fccc14c08965f9c41a46e745aab5b71148a6cc136a40c472c39c5d08a604060043592a3613af8565b979695610414565b6105e990613833565b8d610594565b6040513d6000823e3d90fd5b600080fd5b60405162461bcd60e51b815260206004820152601560248201527415dbdc9ad95c881c185e5b595b9d0819985a5b1959605a1b6044820152606490fd5b61065f915060203d602011610665575b6106578183613846565b81019061399c565b8d610517565b503d61064d565b98506106889061068260805160078a01546139b4565b90613bba565b6001986104b4565b50600788015415156104af565b634e487b7160e01b600052601160045260246000fd5b858389848860005b600b8601548110156107ee576106d481600b8801613774565b60018060a01b0391549060031b1c1690600435600052600c60205260406000208260005260205260ff6040600020541615610719575b6107149150613af8565b6106bb565b600887015480610786575b506002546001600160a01b031691823b156105fb576000926044849260405195869384926361a167eb60e11b8452600484015260091960248401525af19182156105ef5761071492610777575b5061070a565b61078090613833565b87610771565b94610792868492613bba565b9560405190815260406020820152601060408201526f4e6f7420696e20636f6e73656e73757360801b60608201527f309bc65fd776d2e423970771c2d955834ccd20de323b7eee4dd44e983ed7c521608060043592a387610724565b509092600685015460018201821161069d5761081090600183949301906139b4565b6000925b808410610b0e575050505060005b60e051808210156109f65761030e8261083d9260c051613b07565b906009850154806108bc575b506002546001600160a01b031691823b156105fb5760405163f3312b0b60e01b81526001600160a01b0390911660048201526004196024820152916000908390604490829084905af19182156105ef576108a8926108ad575b50613af8565b610822565b6108b690613833565b856108a2565b926108cb908460021c90613bba565b9260018060a01b0360035416818060021c81031161069d5760405163a9059cbb60e01b81526001600160a01b0385166004820152600283901c8303602482015290602090829060449082906000905af19081156105ef576000916109d7575b501561099c576040519060021c815260406020820152601460408201527322bb30b63ab0ba34b7b7103232bb34b0ba34b7b760611b606082015260018060a01b038316907f309bc65fd776d2e423970771c2d955834ccd20de323b7eee4dd44e983ed7c521608060043592a385610849565b60405162461bcd60e51b815260206004820152601360248201527214dd185ad9481c995d1d5c9b8819985a5b1959606a1b6044820152606490fd5b6109f0915060203d602011610665576106578183613846565b8761092a565b505082600781015490608051610b05575b81610a50575b5050604051916024358352602083015260408201527ff8cad5d4d9787a16a5a14c000e161c9ef1ebec184a06f7949fb428e2007f3455606060043592a260018055005b6003546001919091015460405163a9059cbb60e01b81526001600160a01b039182166004820152602481019390935260209183916044918391600091165af19081156105ef57600091610ae6575b5015610aab578280610a0d565b60405162461bcd60e51b8152602060048201526013602482015272109bdb9d5cc81c995d1d5c9b8819985a5b1959606a1b6044820152606490fd5b610aff915060203d602011610665576106578183613846565b83610a9e565b60009150610a07565b90919294610b2061030e878487613b07565b906004356000526006602052604060002060018060a01b03831660005260205260006020610c0b60408320610b57600b8d0161375f565b9054600391821b1c6001600160a01b0390811686529184526040808620600501805460ff191660011790556004358652600685528086209288168652918452908420610ba5600b8e0161375f565b905490831b1c6001600160a01b0316855283526040842060040188905560098c0154610bd19089613bba565b905460405163a9059cbb60e01b81526001600160a01b03888116600483015260248201939093529485939190921691839182906044820190565b03925af19081156105ef57600091610d22575b5015610cdd5783610c2e91613bba565b9560018060a01b036002541691823b156105fb5760405163f3312b0b60e01b81526001600160a01b038216600482015260056024820152926000908490604490829084905af19283156105ef57610cc693610cce575b506040518581526001600160a01b0390911690600435907fcaa3662cad6d5867a0d293984d7433bf5980938d051ed498fdc583cc5eb9e7fc90602090a3613af8565b929190610814565b610cd790613833565b89610c84565b60405162461bcd60e51b815260206004820152601860248201527f4576616c7561746f72207061796d656e74206661696c656400000000000000006044820152606490fd5b610d3b915060203d602011610665576106578183613846565b89610c1e565b60405162461bcd60e51b81526020600482015260146024820152730a6c6dee4ca40c6deeadce840dad2e6dac2e8c6d60631b6044820152606490fd5b60405162461bcd60e51b815260206004820152601a60248201527f546f6f206d616e7920636f6e73656e73757320776f726b6572730000000000006044820152606490fd5b60405162461bcd60e51b81526020600482015260136024820152725461736b206e6f74206576616c756174696e6760681b6044820152606490fd5b634e487b7160e01b600052602160045260246000fd5b346105fb5760203660031901126105fb57610e2c613641565b610e34613970565b6001600160a01b03908116908115610e8857600054826bffffffffffffffffffffffff60a01b821617600055167f8be0079c531659141344cd1fd0a4f28419497f9722a3daafe3b4186f6b6457e0600080a3005b604051631e4fbdf760e01b815260006004820152602490fd5b346105fb5760403660031901126105fb57610eba613641565b6001600160a01b03166000908152600a60205260409020805460243591908210156105fb57602091610eeb91613774565b90546040519160031b1c8152f35b346105fb576020806003193601126105fb57600435806000526004825260018060a01b0390610f3382600160406000200154163314613a80565b610f3b613a5d565b60005260048252604060002090600a8201805460ff8160c01c166006811015610dfd57600181149081156110af575b501561107a57600b84015461103c57600560c01b60ff60c01b1991909116179055600354600183015460049384015460405163a9059cbb60e01b81529184166001600160a01b0316948201949094526024810193909352839183916044918391600091165af19081156105ef5760009161101f575b5015610feb5760018055005b6064906040519062461bcd60e51b82526004820152600d60248201526c1499599d5b990819985a5b1959609a1b6044820152fd5b6110369150823d8411610665576106578183613846565b82610fdf565b60405162461bcd60e51b815260048101869052601660248201527515dbdc9ad95c9cc8185b1c9958591e481a9bda5b995960521b6044820152606490fd5b60405162461bcd60e51b815260048101869052600d60248201526c10d85b9b9bdd0818d85b98d95b609a1b6044820152606490fd5b90501586610f6a565b346105fb5760003660031901126105fb57602060ff600d5460081c16604051908152f35b346105fb5760203660031901126105fb5760043560005260046020526020604060002080549060018060a01b0360018201541660ff61111d60028401613867565b92600381015493600482015460058301546006840154600785015491600886015493611172600988015496600d600a8a01549901549a6040519e8f9e8f908152015260408d61022091829101528d01906136a8565b9960608c015260808b015260a08a015260c089015260e08801526101008701526101208601526001600160401b03808216610140870152808260401c166101608701528160801c166101808601526111d36101a08601838360c01c166136e8565b818160c81c166101c086015260d01c166101e08401526102008301520390f35b346105fb5760003660031901126105fb5760206040516127108152f35b346105fb5760203660031901126105fb57600435600052600b6020526020604060002054604051908152f35b346105fb5761124a3661393d565b909180600052600460205261127060018060a01b03600160406000200154163314613a80565b806000526004602052604060002092600a84015460ff8160c01c166006811015610dfd578060016112aa921490811561162b575b50613abc565b60ff8160d01c1684036115ee5760ff600b8601549160c81c16036115b257600c84015461156d5760005b8381106112dd57005b6112eb61030e828685613b07565b600254604051632ff0674d60e11b81526001600160a01b038084166004830152929392909160209183916024918391165afa9081156105ef5760009161154e575b501561151057600080600b880154905b8181106114cd575b5050611488576009860154806113ca575b50816113676113c593600c8901613b2b565b60018060a01b038116600052600a602052611386856040600020613a28565b847fb0eeb3f3713587bdac225bdd5c8f683dafb4f470e110a58ddb5edf8b6181d886602060098a01549360405194855260018060a01b031693a3613af8565b6112d4565b6003546040516323b872dd60e01b81526001600160a01b03858116600483015230602483015260448201939093529160209183916064918391600091165af19081156105ef57600091611469575b50156114245786611355565b60405162461bcd60e51b815260206004820152601f60248201527f4576616c7561746f72207374616b65207472616e73666572206661696c6564006044820152606490fd5b611482915060203d602011610665576106578183613846565b87611418565b60405162461bcd60e51b815260206004820152601a60248201527f4576616c7561746f722063616e6e6f7420626520776f726b65720000000000006044820152606490fd5b6114da81600b8b01613774565b905460039190911b1c6001600160a01b0390811690861614611504576114ff90613af8565b61133c565b50505060018780611344565b60405162461bcd60e51b81526020600482015260166024820152752737ba1032b634b3b4b136329032bb30b63ab0ba37b960511b6044820152606490fd5b611567915060203d602011610665576106578183613846565b8761132c565b60405162461bcd60e51b815260206004820152601b60248201527f4576616c7561746f727320616c72656164792073656c656374656400000000006044820152606490fd5b60405162461bcd60e51b815260206004820152601460248201527314d95b1958dd081ddbdc9ad95c9cc8199a5c9cdd60621b6044820152606490fd5b60405162461bcd60e51b815260206004820152601560248201527415dc9bdb99c8195d985b1d585d1bdc8818dbdd5b9d605a1b6044820152606490fd5b905015876112a4565b346105fb5760403660031901126105fb5761164d613657565b600435600052600560205260406000209060018060a01b03166000526020526040600020805461167f60018301613867565b9160028101549060038101549060ff806005600484015493015416926116b760405197889788526101008060208a01528801906136a8565b9460408701526001600160401b0381166060870152818160401c161515608087015260481c1660a085015260c0840152151560e08301520390f35b346105fb576117003661393d565b90826000526020926004845260018060a01b039361172985600160406000200154163314613a80565b8160005260048152604060002093600a85015460ff8160c01c16906006821015610dfd5761175b600160ff9314613abc565b60c81c16810361198a57600b85019384546119455790946008019060005b86811061178257005b61179061030e828985613b07565b886002541690604051631bc72bb560e01b81528087818d85169586600483015260249485915afa9081156105ef57600091611928575b50156118ef578686548c81611835575b50505050906117e9611830939289613b2b565b80600052600986526117ff876040600020613a28565b867faf8cfa1997dec31f5e2437d5d552c9fd1e3d97191d9e75fb08dc2d5ec4e30b42878754604051908152a3613af8565b611779565b6003546040516323b872dd60e01b81526001600160a01b0387166004820152306024820152604481019390935291929183916064918391600091165af19081156105ef576000916118d2575b501561188f5786818c6117d6565b86601c6064926040519262461bcd60e51b845260048401528201527f576f726b6572207374616b65207472616e73666572206661696c6564000000006044820152fd5b6118e99150883d8a11610665576106578183613846565b8c611881565b8660136064926040519262461bcd60e51b84526004840152820152722737ba1032b634b3b4b13632903bb7b935b2b960691b6044820152fd5b61193f9150883d8a11610665576106578183613846565b8c6117c6565b60405162461bcd60e51b815260048101849052601860248201527f576f726b65727320616c72656164792073656c656374656400000000000000006044820152606490fd5b60405162461bcd60e51b815260048101839052601260248201527115dc9bdb99c81ddbdc9ad95c8818dbdd5b9d60721b6044820152606490fd5b346105fb5760003660031901126105fb576020600754604051908152f35b346105fb576020806003193601126105fb576001600160a01b03611a04613641565b1660005260098152604060002090604051908181845491828152019360005281600020916000905b828210611a5357611a4f85611a4381890382613846565b6040519182918261366d565b0390f35b835486529485019460019384019390910190611a2c565b346105fb5760003660031901126105fb5760206040516107d08152f35b346105fb5760403660031901126105fb57611aa0613641565b6001600160a01b03166000908152600860205260409020805460243591908210156105fb57602091610eeb91613774565b346105fb5760403660031901126105fb57611aea613641565b611af2613970565b6000805460405163a9059cbb60e01b81526001600160a01b0391821660048201526024803590820152926020928492604492849291165af19081156105ef57600091611b7a575b5015611b4157005b60405162461bcd60e51b815260206004820152601160248201527015da5d1a191c985dd85b0819985a5b1959607a1b6044820152606490fd5b611b92915060203d8111610665576106578183613846565b81611b39565b346105fb5760003660031901126105fb5760206001600160401b03600d5460501c16604051908152f35b346105fb5760803660031901126105fb57604480356001600160401b0381116105fb57611bf3903690600401613732565b9160009160005b6004356000526004602052600b60406000200180548210156120d75781611c2091613774565b905460039190911b1c6001600160a01b03163314611c4657611c4190613af8565b611bfa565b5090915060015b1561209d57611c5a613a5d565b6004356000526004602052604060002091600a83015460ff8160c01c16906006821015610dfd57611c9560016001600160401b039314613abc565b16421161206757600435600052600560205260406000203360005260205260ff60036040600020015460401c1661202f5760243515611ff55783151580611fe9575b15611faf5750611cfa9060405193611cee85613817565b60243585523691613b66565b6020830190815260643560408401526001600160401b034216606084015260016080840152600060a0840152600060c0840152600060e0840152600435600052600560205260406000203360005260205260406000209083518255519283516001600160401b038111611f9957611d8181611d7860018601546137c1565b600186016139d4565b6020601f8211600114611f2157918160e092600594611e3a9798600092611f16575b50508160011b916000199060031b1c19161760018501555b60408181015160028601556060820151600386018054608085015160a086015190151590941b60ff60401b166001600160401b0390931669ffffffffffffffffffff19909116179190911760489290921b60ff60481b169190911790555b60c081015160048501550151151591019060ff801983541691151516179055565b60405160243581526001600160401b034216602082015233907f696f81e189cf0fb20c47c68852c407dac17843c28d52d080332938c858caf226604060043592a360016000600b83018054915b828110611eb7575b505050611e9d575b60018055005b600a01805460ff60c01b1916600160c11b17905580611e97565b60043560005260056020526040600020611ed18284613774565b60018060a01b0391549060031b1c1660005260205260ff60036040600020015460401c1615611f0857611f0390613af8565b611e87565b505050506000828080611e8f565b015190508880611da3565b6001840160005260206000209560005b601f1984168110611f81575082611e3a96976005959360019360e096601f19811610611f68575b505050811b016001850155611dbb565b015160001960f88460031b161c19169055888080611f58565b82820151885560019097019660209283019201611f31565b634e487b7160e01b600052604160045260246000fd5b6064907253756d6d61727920312d35303020636861727360681b6040519162461bcd60e51b83526020600484015260136024840152820152fd5b506101f4841115611cd7565b60649072092dcecc2d8d2c840e4cae6ead8e840d0c2e6d606b1b6040519162461bcd60e51b83526020600484015260136024840152820152fd5b60649070105b1c9958591e481cdd589b5a5d1d1959607a1b6040519162461bcd60e51b83526020600484015260116024840152820152fd5b6064906e111958591b1a5b99481c185cdcd959608a1b6040519162461bcd60e51b835260206004840152600f6024840152820152fd5b60405162461bcd60e51b81526020600482015260136024820152722737ba1030b9b9b4b3b732b2103bb7b935b2b960691b81840152606490fd5b50509091611c4d565b346105fb5760003660031901126105fb576000546040516001600160a01b039091168152602090f35b346105fb576121173661378c565b916000526006602052604060002060018060a01b038092166000526020526040600020911660005260205260ff6040600020805490600181015461215d60028301613867565b918461219f600383015494826005600486015495015416946040519888818b9a168a5260081c16602089015260408801526101008060608901528701906136a8565b936001600160401b038116608087015260401c16151560a085015260c0840152151560e08301520390f35b346105fb5760003660031901126105fb576020604051611b588152f35b346105fb5760803660031901126105fb5760043560ff81168091036105fb576024359060ff821682036105fb57604435906001600160401b039283831683036105fb5760643593841684036105fb5761ff0069ffffffffffffffff00009261224d613970565b600d54956001600160401b0360501b9060501b169571ffffffffffffffffffffffffffffffffffff1916179160081b16179160101b161717600d55600080f35b346105fb5761229b3661378c565b90604051926122a984613817565b60008452600060e060209582878201528260408201526060808201528260808201528260a08201528260c0820152015260005260068352604060002060018060a01b03809216600052835260406000209116600052815260406000206040519061231282613817565b805460ff938482168452848185019260081c1682526001830154926040850193845261234060028201613867565b606086019081526003820154906080870195886001600160401b039687851689528160a08b019560401c161515855281600560048801549760c08d019889520154169660e08b0197151588526040519b8c9b828d525116908b01525116604089015251606088015251936123c2610100958660808a01526101208901906136a8565b95511660a087015251151560c08601525160e0850152511515908301520390f35b346105fb5760003660031901126105fb576002546040516001600160a01b039091168152602090f35b346105fb5760203660031901126105fb576004356007548110156105fb5760209060076000527fa66cc928b5edb82af9bd49922954155ab7b0942694bea4ce44661d9a8736c6880154604051908152f35b346105fb5760003660031901126105fb57612476613970565b600080546001600160a01b0319811682556001600160a01b03167f8be0079c531659141344cd1fd0a4f28419497f9722a3daafe3b4186f6b6457e08280a3005b346105fb5760403660031901126105fb576124cf613657565b600435600052600c60205260406000209060018060a01b0316600052602052602060ff604060002054166040519015158152f35b346105fb5760003660031901126105fb5760206001600160401b03600d5460101c16604051908152f35b346105fb576020806003193601126105fb576001600160a01b0361254f613641565b16600052600a8152604060002090604051908181845491828152019360005281600020916000905b82821061258e57611a4f85611a4381890382613846565b835486529485019460019384019390910190612577565b346105fb5760403660031901126105fb576125be613657565b604051906125cb82613817565b60008252600060e06020936060858201528260408201528260608201528260808201528260a08201528260c082015201526004356000526005825260406000209060018060a01b0316600052815260406000206040519061262b82613817565b8054825261263b60018201613867565b908383019182526002810154916040840192835260038201549160ff60608601936001600160401b0380821686526080880190838360401c16151582528360a08a019360481c16835283600560048701549660c08c019788520154169560e08a0196151587526040519a8b9a818c5251908b015251966126c9610100988960408d01526101208c01906136a8565b985160608b01525116608089015251151560a0880152511660c08601525160e0850152511515908301520390f35b346105fb5760003660031901126105fb57602060ff600d5416604051908152f35b346105fb576101403660031901126105fb576024356001600160401b0381116105fb57612749903690600401613732565b60c4356001600160401b03811681036105fb5760ff610104351661010435036105fb5760ff610124351661012435036105fb57612784613a5d565b600435600052600460205260018060a01b0360016040600020015416612c6b5760643515612c31578115612bf557426001600160401b0382161115612bbd576101043560ff1615612bb15761010435925b6101243560ff1615612ba25761012435925b6003546040516323b872dd60e01b81523360048201523060248201526064803560448301529091602091839182906000906001600160a01b03165af19081156105ef57600091612b83575b5015612b4557611b589060643580830204820361069d576107d09160643580840204830361069d576103e89160643580840204830361069d576004356000526004602052604060002094600435865560018601336bffffffffffffffffffffffff60a01b8254161790556001600160401b038211611f995781906128c6826128bd60028a01546137c1565b60028a016139d4565b600090601f8311600114612ad457600092612ac9575b50508160011b916000199060031b1c19161760028501555b6044356003850155606435600485015561271092838092606435020460058601556064350204600684015560643502046007820155608435600882015560a4356009820155600a810180546001600160401b0384166001600160401b031982161782556001600160401b03600d5460501c166001600160401b03851601906001600160401b03821161069d574260801b67ffffffffffffffff60801b1660409290921b6fffffffffffffffff0000000000000000166001600160c81b03199091166001600160401b038616171717600160c01b1761ffff60c81b191660c886901b60ff60c81b161760d085901b60ff60d01b1617905560e435600d9190910155600754600160401b811015611f99576001810180600755811015612ab3576001600160401b039260ff91600435907fa66cc928b5edb82af9bd49922954155ab7b0942694bea4ce44661d9a8736c6880155336000526008602052612a5e6004356040600020613a28565b8160405195606435875216602086015216604084015216606082015233907f87df2cf870a705b4a4eb0667bd97c69d66c5fbe40206017b43f088dc5d01b346608060043592a360018055602060405160018152f35b634e487b7160e01b600052603260045260246000fd5b0135905089806128dc565b909250600287016000526020600020906000935b601f1984168510612b2d576001945083601f19811610612b13575b505050811b0160028501556128f4565b0135600019600384901b60f8161c19169055898080612b03565b81810135835560209485019460019093019201612ae8565b60405162461bcd60e51b8152602060048201526016602482015275109d5919d95d081d1c985b9cd9995c8819985a5b195960521b6044820152606490fd5b612b9c915060203d602011610665576106578183613846565b86612832565b60ff600d5460081c16926127e7565b60ff600d5416926127d5565b60405162461bcd60e51b815260206004820152601060248201526f111958591b1a5b99481a5b881c185cdd60821b6044820152606490fd5b60405162461bcd60e51b815260206004820152601460248201527311195cd8dc9a5c1d1a5bdb881c995c5d5a5c995960621b6044820152606490fd5b60405162461bcd60e51b81526020600482015260126024820152710427564676574206d757374206265203e20360741b6044820152606490fd5b60405162461bcd60e51b81526020600482015260136024820152725461736b20616c72656164792065786973747360681b6044820152606490fd5b346105fb5760003660031901126105fb5760206040516103e88152f35b346105fb5760003660031901126105fb576003546040516001600160a01b039091168152602090f35b346105fb5760403660031901126105fb57612d05613641565b6001600160a01b03166000908152600960205260409020805460243591908210156105fb57602091610eeb91613774565b346105fb5760c03660031901126105fb57612d4f613657565b604480359160ff831683036105fb57606480359060ff821682036105fb5760a4356001600160401b0381116105fb57612d8c903690600401613732565b9160009560005b6004356000526004602052600c60406000200180548210156132bc5781612db991613774565b905460039190911b1c6001600160a01b03163314612ddf57612dda90613af8565b612d93565b509091929394955060015b1561328257612df7613a5d565b6004356000526004602052600a6040600020015460ff8160c01c166006811015610dfd576002036132475760401c6001600160401b03164211613206576001600160a01b03861633146131ce578160ff88161161319f578160ff86161161316b576004356000526005602052604060002060018060a01b03871660005260205260ff60036040600020015460401c1615613133576004356000526006602052604060002033600052602052604060002060018060a01b03871660005260205260ff60036040600020015460401c166130fe575050612efa9060405192612edc84613817565b60ff8716845260ff8516602085015260843560408501523691613b66565b60608201526001600160401b0342166080820152600160a0820152600060c0820152600060e08201526004356000526006602052604060002033600052602052604060002060018060a01b03841660005260205260406000209060ff81511682549061ff00602084015160081b169161ffff1916171782556040810151600183015560608101518051906001600160401b038211611f9957612fac82612fa360028701546137c1565b600287016139d4565b602090601f831160011461308257613030938360ff97969460059460e094600092613077575b50508160011b916000199060031b1c19161760028501555b611e19600385016001600160401b036080840151166001600160401b031982541617815560a0830151151560ff60401b825491151560401b169060ff60401b1916179055565b816040519416845216602083015260018060a01b03169033907fc99cbff1e24f7a40a9537cd67984173bf0591abaa195cb66314d944e1a9e9185604060043592a460018055005b015190508b80612fd2565b906002850160005260206000209160005b601f19851681106130e657509360018460059460e0946130309860ff9b9a98601f198116106130cd575b505050811b016002850155612fea565b015160001960f88460031b161c191690558b80806130bd565b91926020600181928685015181550194019201613093565b70105b1c9958591e48195d985b1d585d1959607a1b6040519162461bcd60e51b83526020600484015260116024840152820152fd5b7315dbdc9ad95c881b9bdd081cdd589b5a5d1d195960621b6040519162461bcd60e51b83526020600484015260146024840152820152fd5b6f0436f6e666964656e636520302d3130360841b6040519162461bcd60e51b83526020600484015260106024840152820152fd5b6a053636f726520302d3130360ac1b6040519162461bcd60e51b835260206004840152600b6024840152820152fd5b7321b0b73737ba1032bb30b63ab0ba329039b2b63360611b6040519162461bcd60e51b83526020600484015260146024840152820152fd5b7f4576616c756174696f6e20646561646c696e65207061737365640000000000006040519162461bcd60e51b835260206004840152601a6024840152820152fd5b50752a30b9b5903737ba1034b71032bb30b63ab0ba34b7b760511b6040519162461bcd60e51b83526020600484015260166024840152820152fd5b752737ba1030b9b9b4b3b732b21032bb30b63ab0ba37b960511b6040519162461bcd60e51b83526020600484015260166024840152820152fd5b5050909192939495612dea565b346105fb5760203660031901126105fb5760006102406040516132eb816137fb565b828152826020820152606060408201528260608201528260808201528260a08201528260c08201528260e08201528261010082015282610120820152826101408201528261016082015282610180820152826101a0820152826101c0820152826101e08201526060610200820152606061022082015201526004356000526004602052604060002060405190613380826137fb565b8054825260018101546001600160a01b031660208301526133a360028201613867565b60408301526003810154606083015260048101546080830152600581015460a0830152600681015460c0830152600781015460e083015260088101546101008301526009810154610120830152600a810154906001600160401b0382166101408401526001600160401b038260401c166101608401526001600160401b038260801c16610180840152600660ff8360c01c161015610dfd5760ff8281600d9460c01c166101a0860152818160c81c166101c086015260d01c166101e084015261346e600b8201613bc7565b610200840152613480600c8201613bc7565b61022084015201546102408201526040518091602082528051602083015260018060a01b0360208201511660408301526102406135c06134d1604084015161026060608701526102808601906136a8565b60608401516080860152608084015160a086015260a084015160c086015260c084015160e086015260e08401516101008601526101008401516101208601526101208401516101408601526001600160401b03610140850151166101608601526001600160401b03610160850151166101808601526001600160401b03610180850151166101a086015261356f6101a08501516101c08701906136e8565b60ff6101c0850151166101e086015260ff6101e0850151166102008601526135ab61020085015191601f199283888303016102208901526136f5565b906102208501519086830301848701526136f5565b9101516102608301520390f35b346105fb57602090816003193601126105fb576001600160a01b036135f0613641565b166000526008825260406000209182548083528183019360005281600020916000905b82821061362a57611a4f85611a4381890382613846565b835486529485019460019384019390910190613613565b600435906001600160a01b03821682036105fb57565b602435906001600160a01b03821682036105fb57565b6020908160408183019282815285518094520193019160005b828110613694575050505090565b835185529381019392810192600101613686565b919082519283825260005b8481106136d4575050826000602080949584010152601f8019910116010190565b6020818301810151848301820152016136b3565b906006821015610dfd5752565b90815180825260208080930193019160005b828110613715575050505090565b83516001600160a01b031685529381019392810192600101613707565b9181601f840112156105fb578235916001600160401b0383116105fb57602083818601950101116105fb57565b805415612ab357600052602060002090600090565b8054821015612ab35760005260206000200190600090565b60609060031901126105fb57600435906001600160a01b039060243582811681036105fb579160443590811681036105fb5790565b90600182811c921680156137f1575b60208310146137db57565b634e487b7160e01b600052602260045260246000fd5b91607f16916137d0565b61026081019081106001600160401b03821117611f9957604052565b61010081019081106001600160401b03821117611f9957604052565b6001600160401b038111611f9957604052565b90601f801991011681019081106001600160401b03821117611f9957604052565b906040519182600082549261387b846137c1565b9081845260019485811690816000146138ea57506001146138a7575b50506138a592500383613846565b565b9093915060005260209081600020936000915b8183106138d25750506138a593508201013880613897565b855488840185015294850194879450918301916138ba565b9150506138a594506020925060ff191682840152151560051b8201013880613897565b9181601f840112156105fb578235916001600160401b0383116105fb576020808501948460051b0101116105fb57565b9060406003198301126105fb5760043591602435906001600160401b0382116105fb5761396c9160040161390d565b9091565b6000546001600160a01b0316330361398457565b60405163118cdaa760e01b8152336004820152602490fd5b908160209103126105fb575180151581036105fb5790565b81156139be570490565b634e487b7160e01b600052601260045260246000fd5b90601f81116139e257505050565b600091825260208220906020601f850160051c83019410613a1e575b601f0160051c01915b828110613a1357505050565b818155600101613a07565b90925082906139fe565b8054600160401b811015611f9957613a4591600182018155613774565b819291549060031b91821b91600019901b1916179055565b600260015414613a6e576002600155565b604051633ee5aeb560e01b8152600490fd5b15613a8757565b60405162461bcd60e51b815260206004820152600d60248201526c2737ba103932b8bab2b9ba32b960991b6044820152606490fd5b15613ac357565b60405162461bcd60e51b815260206004820152600d60248201526c2a30b9b5903737ba1037b832b760991b6044820152606490fd5b600019811461069d5760010190565b9190811015612ab35760051b0190565b356001600160a01b03811681036105fb5790565b8054600160401b811015611f9957613b4891600182018155613774565b819291549060031b9160018060a01b03809116831b921b1916179055565b9291926001600160401b038211611f995760405191613b8f601f8201601f191660200184613846565b8294818452818301116105fb578281602093846000960137010152565b3560ff811681036105fb5790565b9190820180921161069d57565b9060405191828154918282526020928383019160005283600020936000905b828210613bfc575050506138a592500383613846565b85546001600160a01b031684526001958601958895509381019390910190613be656fea2646970667358221220ac10c70c39bd9d803bf3311076d4039c1df2a17556e54dd6bbee8c8335ddc3f864736f6c63430008140033","opcodes":"PUSH1 0x80 CALLVALUE PUSH3 0x11B JUMPI PUSH1 0x1F PUSH3 0x3DA1 CODESIZE DUP2 SWAP1 SUB SWAP2 DUP3 ADD PUSH1 0x1F NOT AND DUP4 ADD SWAP2 PUSH1 0x1 PUSH1 0x1 PUSH1 0x40 SHL SUB DUP4 GT DUP5 DUP5 LT OR PUSH3 0x120 JUMPI DUP1 DUP5 SWAP3 PUSH1 0x60 SWAP5 PUSH1 0x40 MSTORE DUP4 CODECOPY DUP2 ADD SUB SLT PUSH3 0x11B JUMPI PUSH3 0x4D DUP2 PUSH3 0x136 JUMP JUMPDEST SWAP1 PUSH1 0x40 PUSH3 0x5E PUSH1 0x20 DUP4 ADD PUSH3 0x136 JUMP JUMPDEST SWAP2 PUSH1 0x1 PUSH1 0x1 PUSH1 0xA0 SHL SUB SWAP2 DUP3 SWAP2 PUSH3 0x76 SWAP2 ADD PUSH3 0x136 JUMP JUMPDEST AND SWAP2 DUP3 ISZERO PUSH3 0x102 JUMPI DUP2 PUSH1 0x0 SLOAD SWAP5 PUSH1 0x1 DUP1 PUSH1 0xA0 SHL SUB NOT SWAP5 DUP1 DUP7 DUP9 AND OR PUSH1 0x0 SSTORE DUP3 PUSH1 0x40 MLOAD SWAP8 AND PUSH32 0x8BE0079C531659141344CD1FD0A4F28419497F9722A3DAAFE3B4186F6B6457E0 PUSH1 0x0 DUP1 LOG3 PUSH1 0x1 DUP1 SSTORE PUSH12 0xA8C000000000000151800203 PUSH1 0x1 DUP1 PUSH1 0x90 SHL SUB NOT PUSH1 0xD SLOAD AND OR PUSH1 0xD SSTORE AND DUP4 PUSH1 0x2 SLOAD AND OR PUSH1 0x2 SSTORE AND SWAP1 PUSH1 0x3 SLOAD AND OR PUSH1 0x3 SSTORE PUSH2 0x3C55 SWAP1 DUP2 PUSH3 0x14C DUP3 CODECOPY RETURN JUMPDEST PUSH1 0x40 MLOAD PUSH4 0x1E4FBDF7 PUSH1 0xE0 SHL DUP2 MSTORE PUSH1 0x0 PUSH1 0x4 DUP3 ADD MSTORE PUSH1 0x24 SWAP1 REVERT JUMPDEST PUSH1 0x0 DUP1 REVERT JUMPDEST PUSH4 0x4E487B71 PUSH1 0xE0 SHL PUSH1 0x0 MSTORE PUSH1 0x41 PUSH1 0x4 MSTORE PUSH1 0x24 PUSH1 0x0 REVERT JUMPDEST MLOAD SWAP1 PUSH1 0x1 PUSH1 0x1 PUSH1 0xA0 SHL SUB DUP3 AND DUP3 SUB PUSH3 0x11B JUMPI JUMP INVALID PUSH2 0x100 DUP1 PUSH1 0x40 MSTORE PUSH1 0x4 CALLDATASIZE LT ISZERO PUSH2 0x14 JUMPI PUSH1 0x0 DUP1 REVERT JUMPDEST PUSH1 0x0 CALLDATALOAD PUSH1 0xE0 SHR SWAP1 DUP2 PUSH4 0x13D9A2CD EQ PUSH2 0x35CD JUMPI POP DUP1 PUSH4 0x15A29035 EQ PUSH2 0x32C9 JUMPI DUP1 PUSH4 0x1B07B47D EQ PUSH2 0x2D36 JUMPI DUP1 PUSH4 0x2BF70DEE EQ PUSH2 0x2CEC JUMPI DUP1 PUSH4 0x3013CE29 EQ PUSH2 0x2CC3 JUMPI DUP1 PUSH4 0x3D7FE3F8 EQ PUSH2 0x2CA6 JUMPI DUP1 PUSH4 0x3FDE66A4 EQ PUSH2 0x2718 JUMPI DUP1 PUSH4 0x457CEBCC EQ PUSH2 0x26F7 JUMPI DUP1 PUSH4 0x4C8D0F0C EQ PUSH2 0x25A5 JUMPI DUP1 PUSH4 0x5246730D EQ PUSH2 0x252D JUMPI DUP1 PUSH4 0x5507EDD1 EQ PUSH2 0x2503 JUMPI DUP1 PUSH4 0x5647E626 EQ PUSH2 0x24B6 JUMPI DUP1 PUSH4 0x715018A6 EQ PUSH2 0x245D JUMPI DUP1 PUSH4 0x76C3504B EQ PUSH2 0x240C JUMPI DUP1 PUSH4 0x7B103999 EQ PUSH2 0x23E3 JUMPI DUP1 PUSH4 0x7B1A91DA EQ PUSH2 0x228D JUMPI DUP1 PUSH4 0x82627E4F EQ PUSH2 0x21E7 JUMPI DUP1 PUSH4 0x841DEFE8 EQ PUSH2 0x21CA JUMPI DUP1 PUSH4 0x87237B53 EQ PUSH2 0x2109 JUMPI DUP1 PUSH4 0x8DA5CB5B EQ PUSH2 0x20E0 JUMPI DUP1 PUSH4 0x91870088 EQ PUSH2 0x1BC2 JUMPI DUP1 PUSH4 0x94E4CF1E EQ PUSH2 0x1B98 JUMPI DUP1 PUSH4 0x95CCEA67 EQ PUSH2 0x1AD1 JUMPI DUP1 PUSH4 0xA0974A0A EQ PUSH2 0x1A87 JUMPI DUP1 PUSH4 0xA97E71A9 EQ PUSH2 0x1A6A JUMPI DUP1 PUSH4 0xAAE895C5 EQ PUSH2 0x19E2 JUMPI DUP1 PUSH4 0xC17A340E EQ PUSH2 0x19C4 JUMPI DUP1 PUSH4 0xC25EFB8E EQ PUSH2 0x16F2 JUMPI DUP1 PUSH4 0xC380792E EQ PUSH2 0x1634 JUMPI DUP1 PUSH4 0xD2A254D7 EQ PUSH2 0x123C JUMPI DUP1 PUSH4 0xDD760BAE EQ PUSH2 0x1210 JUMPI DUP1 PUSH4 0xE1F1C4A7 EQ PUSH2 0x11F3 JUMPI DUP1 PUSH4 0xE579F500 EQ PUSH2 0x10DC JUMPI DUP1 PUSH4 0xE75E0638 EQ PUSH2 0x10B8 JUMPI DUP1 PUSH4 0xEE8CA3B5 EQ PUSH2 0xEF9 JUMPI DUP1 PUSH4 0xEFA3D6C4 EQ PUSH2 0xEA1 JUMPI DUP1 PUSH4 0xF2FDE38B EQ PUSH2 0xE13 JUMPI PUSH4 0xF80AAD88 EQ PUSH2 0x1C2 JUMPI PUSH1 0x0 DUP1 REVERT JUMPDEST CALLVALUE PUSH2 0x5FB JUMPI PUSH1 0xC0 CALLDATASIZE PUSH1 0x3 NOT ADD SLT PUSH2 0x5FB JUMPI PUSH1 0x1 PUSH1 0x1 PUSH1 0x40 SHL SUB PUSH1 0x44 CALLDATALOAD DUP2 DUP2 GT PUSH2 0x5FB JUMPI PUSH2 0x1F3 SWAP1 CALLDATASIZE SWAP1 PUSH1 0x4 ADD PUSH2 0x390D JUMP JUMPDEST PUSH1 0x80 MSTORE SWAP1 PUSH1 0x64 CALLDATALOAD DUP2 DUP2 GT PUSH2 0x5FB JUMPI PUSH2 0x20F SWAP1 CALLDATASIZE SWAP1 PUSH1 0x4 ADD PUSH2 0x390D JUMP JUMPDEST SWAP3 SWAP1 PUSH1 0xA0 MSTORE PUSH1 0x84 CALLDATALOAD DUP3 DUP2 GT PUSH2 0x5FB JUMPI PUSH2 0x22C SWAP1 CALLDATASIZE SWAP1 PUSH1 0x4 ADD PUSH2 0x390D JUMP JUMPDEST SWAP3 PUSH1 0xA4 CALLDATALOAD SWAP1 DUP2 GT PUSH2 0x5FB JUMPI PUSH2 0x245 SWAP1 CALLDATASIZE SWAP1 PUSH1 0x4 ADD PUSH2 0x390D JUMP JUMPDEST PUSH1 0xE0 MSTORE PUSH1 0xC0 MSTORE PUSH2 0x253 PUSH2 0x3970 JUMP JUMPDEST PUSH2 0x25B PUSH2 0x3A5D JUMP JUMPDEST PUSH1 0x4 CALLDATALOAD PUSH1 0x0 MSTORE PUSH1 0x4 PUSH1 0x20 MSTORE PUSH1 0x40 PUSH1 0x0 KECCAK256 SWAP3 PUSH1 0xA DUP5 ADD SLOAD PUSH1 0xFF DUP2 PUSH1 0xC0 SHR AND PUSH1 0x6 DUP2 LT ISZERO PUSH2 0xDFD JUMPI PUSH1 0x2 SUB PUSH2 0xDC2 JUMPI PUSH1 0xB DUP6 ADD SLOAD PUSH1 0x80 MLOAD GT PUSH2 0xD7D JUMPI PUSH1 0x80 MLOAD DUP7 SUB PUSH2 0xD41 JUMPI PUSH1 0xFF PUSH1 0xC0 SHL NOT AND PUSH1 0x3 PUSH1 0xC0 SHL OR PUSH1 0xA DUP6 ADD SSTORE PUSH1 0x4 CALLDATALOAD PUSH1 0x0 SWAP1 DUP2 MSTORE PUSH1 0xB PUSH1 0x20 MSTORE PUSH1 0x40 DUP2 KECCAK256 PUSH1 0x24 CALLDATALOAD SWAP1 SSTORE DUP1 DUP1 JUMPDEST DUP8 PUSH1 0x80 MLOAD DUP1 DUP4 LT ISZERO PUSH2 0x3C7 JUMPI DUP8 DUP4 PUSH2 0x373 PUSH2 0x36E DUP3 PUSH2 0x3C2 SWAP8 SWAP7 PUSH2 0x3BD SWAP7 PUSH1 0x4 CALLDATALOAD PUSH1 0x0 MSTORE PUSH1 0xC PUSH1 0x20 MSTORE PUSH1 0x40 PUSH1 0x0 KECCAK256 SWAP1 PUSH2 0x313 PUSH2 0x30E PUSH1 0x1 DUP1 PUSH1 0xA0 SHL SUB SWAP9 DUP10 SWAP4 DUP12 PUSH2 0x3B07 JUMP JUMPDEST PUSH2 0x3B17 JUMP JUMPDEST AND PUSH1 0x0 MSTORE PUSH1 0x20 MSTORE PUSH1 0x40 PUSH1 0x0 KECCAK256 PUSH1 0x1 PUSH1 0xFF NOT SWAP2 DUP2 DUP4 DUP3 SLOAD AND OR SWAP1 SSTORE PUSH1 0x4 CALLDATALOAD PUSH1 0x0 MSTORE PUSH1 0x5 SWAP8 DUP9 PUSH1 0x20 MSTORE DUP8 PUSH2 0x351 PUSH2 0x30E DUP8 PUSH1 0x40 PUSH1 0x0 KECCAK256 SWAP5 PUSH1 0x80 MLOAD SWAP1 PUSH2 0x3B07 JUMP JUMPDEST AND PUSH1 0x0 MSTORE PUSH1 0x20 MSTORE DUP8 PUSH1 0x40 PUSH1 0x0 KECCAK256 ADD SWAP2 DUP3 SLOAD AND OR SWAP1 SSTORE PUSH1 0xA0 MLOAD PUSH2 0x3B07 JUMP JUMPDEST PUSH2 0x3BAC JUMP JUMPDEST SWAP2 PUSH1 0x4 CALLDATALOAD PUSH1 0x0 MSTORE PUSH1 0x20 MSTORE PUSH1 0x40 PUSH1 0x0 KECCAK256 SWAP1 PUSH2 0x394 PUSH2 0x30E DUP7 DUP14 PUSH1 0x80 MLOAD SWAP1 PUSH2 0x3B07 JUMP JUMPDEST AND PUSH1 0x0 MSTORE PUSH1 0x20 MSTORE PUSH1 0x3 PUSH1 0x40 PUSH1 0x0 KECCAK256 ADD SWAP1 PUSH1 0xFF PUSH1 0x48 SHL DUP3 SLOAD SWAP2 PUSH1 0x48 SHL AND SWAP1 PUSH1 0xFF PUSH1 0x48 SHL NOT AND OR SWAP1 SSTORE JUMP JUMPDEST PUSH2 0x3AF8 JUMP JUMPDEST PUSH2 0x2C9 JUMP JUMPDEST POP POP POP SWAP2 SWAP5 SWAP1 SWAP3 PUSH1 0x0 SWAP5 PUSH1 0x0 SWAP6 JUMPDEST DUP9 PUSH1 0x80 MLOAD DUP9 LT ISZERO PUSH2 0x40C JUMPI PUSH2 0x406 SWAP2 PUSH1 0xFF PUSH2 0x3F9 PUSH2 0x36E DUP12 PUSH2 0x400 SWAP6 PUSH1 0xA0 MLOAD PUSH2 0x3B07 JUMP JUMPDEST AND SWAP1 PUSH2 0x3BBA JUMP JUMPDEST SWAP7 PUSH2 0x3AF8 JUMP JUMPDEST SWAP6 PUSH2 0x3D5 JUMP JUMPDEST SWAP7 POP SWAP4 SWAP7 PUSH1 0x0 SWAP8 JUMPDEST PUSH1 0x80 MLOAD SWAP9 DUP10 DUP2 LT ISZERO PUSH2 0x6B3 JUMPI PUSH2 0x432 PUSH2 0x30E DUP3 DUP12 SWAP13 DUP8 SWAP13 SWAP12 SWAP13 PUSH2 0x3B07 JUMP JUMPDEST PUSH1 0xFF PUSH2 0x449 PUSH2 0x36E DUP5 PUSH1 0x5 DUP12 ADD SLOAD SWAP13 PUSH1 0xA0 MLOAD PUSH2 0x3B07 JUMP JUMPDEST AND DUP10 DUP2 DUP2 MUL DIV DUP2 EQ DUP11 ISZERO OR ISZERO PUSH2 0x69D JUMPI DUP9 PUSH2 0x466 SWAP2 DUP14 SWAP12 MUL PUSH2 0x39B4 JUMP JUMPDEST SWAP1 PUSH1 0x4 CALLDATALOAD PUSH1 0x0 MSTORE PUSH1 0x5 PUSH1 0x20 MSTORE PUSH1 0x40 PUSH1 0x0 KECCAK256 PUSH1 0x1 DUP1 PUSH1 0xA0 SHL SUB DUP3 AND PUSH1 0x0 MSTORE PUSH1 0x20 MSTORE DUP2 PUSH1 0x4 PUSH1 0x40 PUSH1 0x0 KECCAK256 ADD SSTORE PUSH1 0x5A PUSH1 0xFF PUSH2 0x4A6 PUSH2 0x36E DUP7 PUSH1 0x0 SWAP15 PUSH1 0xA0 MLOAD PUSH2 0x3B07 JUMP JUMPDEST AND LT ISZERO DUP1 PUSH2 0x690 JUMPI JUMPDEST PUSH2 0x66C JUMPI JUMPDEST PUSH1 0x0 PUSH1 0x20 PUSH2 0x504 PUSH2 0x4C9 PUSH1 0x8 DUP13 ADD SLOAD DUP7 PUSH2 0x3BBA JUMP JUMPDEST PUSH1 0x3 SLOAD PUSH1 0x40 MLOAD PUSH4 0xA9059CBB PUSH1 0xE0 SHL DUP2 MSTORE PUSH1 0x1 PUSH1 0x1 PUSH1 0xA0 SHL SUB DUP8 DUP2 AND PUSH1 0x4 DUP4 ADD MSTORE PUSH1 0x24 DUP3 ADD SWAP4 SWAP1 SWAP4 MSTORE SWAP5 DUP6 SWAP4 SWAP2 SWAP1 SWAP3 AND SWAP2 DUP4 SWAP2 DUP3 SWAP1 PUSH1 0x44 DUP3 ADD SWAP1 JUMP JUMPDEST SUB SWAP3 GAS CALL SWAP1 DUP2 ISZERO PUSH2 0x5EF JUMPI PUSH1 0x0 SWAP2 PUSH2 0x63D JUMPI JUMPDEST POP ISZERO PUSH2 0x600 JUMPI PUSH2 0x528 DUP3 DUP14 SWAP6 PUSH2 0x3BBA JUMP JUMPDEST SWAP10 PUSH1 0xA PUSH1 0xFF PUSH2 0x548 PUSH2 0x36E DUP8 PUSH1 0x1 DUP1 PUSH1 0xA0 SHL SUB PUSH1 0x2 SLOAD AND SWAP10 PUSH1 0xA0 MLOAD PUSH2 0x3B07 JUMP JUMPDEST AND SDIV DUP6 EXTCODESIZE ISZERO PUSH2 0x5FB JUMPI PUSH1 0x40 MLOAD PUSH4 0x61A167EB PUSH1 0xE1 SHL DUP2 MSTORE PUSH1 0x1 PUSH1 0x1 PUSH1 0xA0 SHL SUB DUP5 AND PUSH1 0x4 DUP3 ADD MSTORE PUSH1 0x24 DUP2 ADD SWAP2 SWAP1 SWAP2 MSTORE SWAP5 PUSH1 0x0 SWAP1 DUP7 SWAP1 PUSH1 0x44 SWAP1 DUP3 SWAP1 DUP5 SWAP1 GAS CALL SWAP5 DUP6 ISZERO PUSH2 0x5EF JUMPI PUSH2 0x5D8 SWAP6 PUSH2 0x5E0 JUMPI JUMPDEST POP PUSH1 0x40 MLOAD SWAP3 DUP4 MSTORE ISZERO ISZERO PUSH1 0x20 DUP4 ADD MSTORE PUSH1 0x1 DUP1 PUSH1 0xA0 SHL SUB AND SWAP1 PUSH32 0x5C431B2FCCC14C08965F9C41A46E745AAB5B71148A6CC136A40C472C39C5D08A PUSH1 0x40 PUSH1 0x4 CALLDATALOAD SWAP3 LOG3 PUSH2 0x3AF8 JUMP JUMPDEST SWAP8 SWAP7 SWAP6 PUSH2 0x414 JUMP JUMPDEST PUSH2 0x5E9 SWAP1 PUSH2 0x3833 JUMP JUMPDEST DUP14 PUSH2 0x594 JUMP JUMPDEST PUSH1 0x40 MLOAD RETURNDATASIZE PUSH1 0x0 DUP3 RETURNDATACOPY RETURNDATASIZE SWAP1 REVERT JUMPDEST PUSH1 0x0 DUP1 REVERT JUMPDEST PUSH1 0x40 MLOAD PUSH3 0x461BCD PUSH1 0xE5 SHL DUP2 MSTORE PUSH1 0x20 PUSH1 0x4 DUP3 ADD MSTORE PUSH1 0x15 PUSH1 0x24 DUP3 ADD MSTORE PUSH21 0x15DBDC9AD95C881C185E5B595B9D0819985A5B1959 PUSH1 0x5A SHL PUSH1 0x44 DUP3 ADD MSTORE PUSH1 0x64 SWAP1 REVERT JUMPDEST PUSH2 0x65F SWAP2 POP PUSH1 0x20 RETURNDATASIZE PUSH1 0x20 GT PUSH2 0x665 JUMPI JUMPDEST PUSH2 0x657 DUP2 DUP4 PUSH2 0x3846 JUMP JUMPDEST DUP2 ADD SWAP1 PUSH2 0x399C JUMP JUMPDEST DUP14 PUSH2 0x517 JUMP JUMPDEST POP RETURNDATASIZE PUSH2 0x64D JUMP JUMPDEST SWAP9 POP PUSH2 0x688 SWAP1 PUSH2 0x682 PUSH1 0x80 MLOAD PUSH1 0x7 DUP11 ADD SLOAD PUSH2 0x39B4 JUMP JUMPDEST SWAP1 PUSH2 0x3BBA JUMP JUMPDEST PUSH1 0x1 SWAP9 PUSH2 0x4B4 JUMP JUMPDEST POP PUSH1 0x7 DUP9 ADD SLOAD ISZERO ISZERO PUSH2 0x4AF JUMP JUMPDEST PUSH4 0x4E487B71 PUSH1 0xE0 SHL PUSH1 0x0 MSTORE PUSH1 0x11 PUSH1 0x4 MSTORE PUSH1 0x24 PUSH1 0x0 REVERT JUMPDEST DUP6 DUP4 DUP10 DUP5 DUP9 PUSH1 0x0 JUMPDEST PUSH1 0xB DUP7 ADD SLOAD DUP2 LT ISZERO PUSH2 0x7EE JUMPI PUSH2 0x6D4 DUP2 PUSH1 0xB DUP9 ADD PUSH2 0x3774 JUMP JUMPDEST PUSH1 0x1 DUP1 PUSH1 0xA0 SHL SUB SWAP2 SLOAD SWAP1 PUSH1 0x3 SHL SHR AND SWAP1 PUSH1 0x4 CALLDATALOAD PUSH1 0x0 MSTORE PUSH1 0xC PUSH1 0x20 MSTORE PUSH1 0x40 PUSH1 0x0 KECCAK256 DUP3 PUSH1 0x0 MSTORE PUSH1 0x20 MSTORE PUSH1 0xFF PUSH1 0x40 PUSH1 0x0 KECCAK256 SLOAD AND ISZERO PUSH2 0x719 JUMPI JUMPDEST PUSH2 0x714 SWAP2 POP PUSH2 0x3AF8 JUMP JUMPDEST PUSH2 0x6BB JUMP JUMPDEST PUSH1 0x8 DUP8 ADD SLOAD DUP1 PUSH2 0x786 JUMPI JUMPDEST POP PUSH1 0x2 SLOAD PUSH1 0x1 PUSH1 0x1 PUSH1 0xA0 SHL SUB AND SWAP2 DUP3 EXTCODESIZE ISZERO PUSH2 0x5FB JUMPI PUSH1 0x0 SWAP3 PUSH1 0x44 DUP5 SWAP3 PUSH1 0x40 MLOAD SWAP6 DUP7 SWAP4 DUP5 SWAP3 PUSH4 0x61A167EB PUSH1 0xE1 SHL DUP5 MSTORE PUSH1 0x4 DUP5 ADD MSTORE PUSH1 0x9 NOT PUSH1 0x24 DUP5 ADD MSTORE GAS CALL SWAP2 DUP3 ISZERO PUSH2 0x5EF JUMPI PUSH2 0x714 SWAP3 PUSH2 0x777 JUMPI JUMPDEST POP PUSH2 0x70A JUMP JUMPDEST PUSH2 0x780 SWAP1 PUSH2 0x3833 JUMP JUMPDEST DUP8 PUSH2 0x771 JUMP JUMPDEST SWAP5 PUSH2 0x792 DUP7 DUP5 SWAP3 PUSH2 0x3BBA JUMP JUMPDEST SWAP6 PUSH1 0x40 MLOAD SWAP1 DUP2 MSTORE PUSH1 0x40 PUSH1 0x20 DUP3 ADD MSTORE PUSH1 0x10 PUSH1 0x40 DUP3 ADD MSTORE PUSH16 0x4E6F7420696E20636F6E73656E737573 PUSH1 0x80 SHL PUSH1 0x60 DUP3 ADD MSTORE PUSH32 0x309BC65FD776D2E423970771C2D955834CCD20DE323B7EEE4DD44E983ED7C521 PUSH1 0x80 PUSH1 0x4 CALLDATALOAD SWAP3 LOG3 DUP8 PUSH2 0x724 JUMP JUMPDEST POP SWAP1 SWAP3 PUSH1 0x6 DUP6 ADD SLOAD PUSH1 0x1 DUP3 ADD DUP3 GT PUSH2 0x69D JUMPI PUSH2 0x810 SWAP1 PUSH1 0x1 DUP4 SWAP5 SWAP4 ADD SWAP1 PUSH2 0x39B4 JUMP JUMPDEST PUSH1 0x0 SWAP3 JUMPDEST DUP1 DUP5 LT PUSH2 0xB0E JUMPI POP POP POP POP PUSH1 0x0 JUMPDEST PUSH1 0xE0 MLOAD DUP1 DUP3 LT ISZERO PUSH2 0x9F6 JUMPI PUSH2 0x30E DUP3 PUSH2 0x83D SWAP3 PUSH1 0xC0 MLOAD PUSH2 0x3B07 JUMP JUMPDEST SWAP1 PUSH1 0x9 DUP6 ADD SLOAD DUP1 PUSH2 0x8BC JUMPI JUMPDEST POP PUSH1 0x2 SLOAD PUSH1 0x1 PUSH1 0x1 PUSH1 0xA0 SHL SUB AND SWAP2 DUP3 EXTCODESIZE ISZERO PUSH2 0x5FB JUMPI PUSH1 0x40 MLOAD PUSH4 0xF3312B0B PUSH1 0xE0 SHL DUP2 MSTORE PUSH1 0x1 PUSH1 0x1 PUSH1 0xA0 SHL SUB SWAP1 SWAP2 AND PUSH1 0x4 DUP3 ADD MSTORE PUSH1 0x4 NOT PUSH1 0x24 DUP3 ADD MSTORE SWAP2 PUSH1 0x0 SWAP1 DUP4 SWAP1 PUSH1 0x44 SWAP1 DUP3 SWAP1 DUP5 SWAP1 GAS CALL SWAP2 DUP3 ISZERO PUSH2 0x5EF JUMPI PUSH2 0x8A8 SWAP3 PUSH2 0x8AD JUMPI JUMPDEST POP PUSH2 0x3AF8 JUMP JUMPDEST PUSH2 0x822 JUMP JUMPDEST PUSH2 0x8B6 SWAP1 PUSH2 0x3833 JUMP JUMPDEST DUP6 PUSH2 0x8A2 JUMP JUMPDEST SWAP3 PUSH2 0x8CB SWAP1 DUP5 PUSH1 0x2 SHR SWAP1 PUSH2 0x3BBA JUMP JUMPDEST SWAP3 PUSH1 0x1 DUP1 PUSH1 0xA0 SHL SUB PUSH1 0x3 SLOAD AND DUP2 DUP1 PUSH1 0x2 SHR DUP2 SUB GT PUSH2 0x69D JUMPI PUSH1 0x40 MLOAD PUSH4 0xA9059CBB PUSH1 0xE0 SHL DUP2 MSTORE PUSH1 0x1 PUSH1 0x1 PUSH1 0xA0 SHL SUB DUP6 AND PUSH1 0x4 DUP3 ADD MSTORE PUSH1 0x2 DUP4 SWAP1 SHR DUP4 SUB PUSH1 0x24 DUP3 ADD MSTORE SWAP1 PUSH1 0x20 SWAP1 DUP3 SWAP1 PUSH1 0x44 SWAP1 DUP3 SWAP1 PUSH1 0x0 SWAP1 GAS CALL SWAP1 DUP2 ISZERO PUSH2 0x5EF JUMPI PUSH1 0x0 SWAP2 PUSH2 0x9D7 JUMPI JUMPDEST POP ISZERO PUSH2 0x99C JUMPI PUSH1 0x40 MLOAD SWAP1 PUSH1 0x2 SHR DUP2 MSTORE PUSH1 0x40 PUSH1 0x20 DUP3 ADD MSTORE PUSH1 0x14 PUSH1 0x40 DUP3 ADD MSTORE PUSH20 0x22BB30B63AB0BA34B7B7103232BB34B0BA34B7B7 PUSH1 0x61 SHL PUSH1 0x60 DUP3 ADD MSTORE PUSH1 0x1 DUP1 PUSH1 0xA0 SHL SUB DUP4 AND SWAP1 PUSH32 0x309BC65FD776D2E423970771C2D955834CCD20DE323B7EEE4DD44E983ED7C521 PUSH1 0x80 PUSH1 0x4 CALLDATALOAD SWAP3 LOG3 DUP6 PUSH2 0x849 JUMP JUMPDEST PUSH1 0x40 MLOAD PUSH3 0x461BCD PUSH1 0xE5 SHL DUP2 MSTORE PUSH1 0x20 PUSH1 0x4 DUP3 ADD MSTORE PUSH1 0x13 PUSH1 0x24 DUP3 ADD MSTORE PUSH19 0x14DD185AD9481C995D1D5C9B8819985A5B1959 PUSH1 0x6A SHL PUSH1 0x44 DUP3 ADD MSTORE PUSH1 0x64 SWAP1 REVERT JUMPDEST PUSH2 0x9F0 SWAP2 POP PUSH1 0x20 RETURNDATASIZE PUSH1 0x20 GT PUSH2 0x665 JUMPI PUSH2 0x657 DUP2 DUP4 PUSH2 0x3846 JUMP JUMPDEST DUP8 PUSH2 0x92A JUMP JUMPDEST POP POP DUP3 PUSH1 0x7 DUP2 ADD SLOAD SWAP1 PUSH1 0x80 MLOAD PUSH2 0xB05 JUMPI JUMPDEST DUP2 PUSH2 0xA50 JUMPI JUMPDEST POP POP PUSH1 0x40 MLOAD SWAP2 PUSH1 0x24 CALLDATALOAD DUP4 MSTORE PUSH1 0x20 DUP4 ADD MSTORE PUSH1 0x40 DUP3 ADD MSTORE PUSH32 0xF8CAD5D4D9787A16A5A14C000E161C9EF1EBEC184A06F7949FB428E2007F3455 PUSH1 0x60 PUSH1 0x4 CALLDATALOAD SWAP3 LOG2 PUSH1 0x1 DUP1 SSTORE STOP JUMPDEST PUSH1 0x3 SLOAD PUSH1 0x1 SWAP2 SWAP1 SWAP2 ADD SLOAD PUSH1 0x40 MLOAD PUSH4 0xA9059CBB PUSH1 0xE0 SHL DUP2 MSTORE PUSH1 0x1 PUSH1 0x1 PUSH1 0xA0 SHL SUB SWAP2 DUP3 AND PUSH1 0x4 DUP3 ADD MSTORE PUSH1 0x24 DUP2 ADD SWAP4 SWAP1 SWAP4 MSTORE PUSH1 0x20 SWAP2 DUP4 SWAP2 PUSH1 0x44 SWAP2 DUP4 SWAP2 PUSH1 0x0 SWAP2 AND GAS CALL SWAP1 DUP2 ISZERO PUSH2 0x5EF JUMPI PUSH1 0x0 SWAP2 PUSH2 0xAE6 JUMPI JUMPDEST POP ISZERO PUSH2 0xAAB JUMPI DUP3 DUP1 PUSH2 0xA0D JUMP JUMPDEST PUSH1 0x40 MLOAD PUSH3 0x461BCD PUSH1 0xE5 SHL DUP2 MSTORE PUSH1 0x20 PUSH1 0x4 DUP3 ADD MSTORE PUSH1 0x13 PUSH1 0x24 DUP3 ADD MSTORE PUSH19 0x109BDB9D5CC81C995D1D5C9B8819985A5B1959 PUSH1 0x6A SHL PUSH1 0x44 DUP3 ADD MSTORE PUSH1 0x64 SWAP1 REVERT JUMPDEST PUSH2 0xAFF SWAP2 POP PUSH1 0x20 RETURNDATASIZE PUSH1 0x20 GT PUSH2 0x665 JUMPI PUSH2 0x657 DUP2 DUP4 PUSH2 0x3846 JUMP JUMPDEST DUP4 PUSH2 0xA9E JUMP JUMPDEST PUSH1 0x0 SWAP2 POP PUSH2 0xA07 JUMP JUMPDEST SWAP1 SWAP2 SWAP3 SWAP5 PUSH2 0xB20 PUSH2 0x30E DUP8 DUP5 DUP8 PUSH2 0x3B07 JUMP JUMPDEST SWAP1 PUSH1 0x4 CALLDATALOAD PUSH1 0x0 MSTORE PUSH1 0x6 PUSH1 0x20 MSTORE PUSH1 0x40 PUSH1 0x0 KECCAK256 PUSH1 0x1 DUP1 PUSH1 0xA0 SHL SUB DUP4 AND PUSH1 0x0 MSTORE PUSH1 0x20 MSTORE PUSH1 0x0 PUSH1 0x20 PUSH2 0xC0B PUSH1 0x40 DUP4 KECCAK256 PUSH2 0xB57 PUSH1 0xB DUP14 ADD PUSH2 0x375F JUMP JUMPDEST SWAP1 SLOAD PUSH1 0x3 SWAP2 DUP3 SHL SHR PUSH1 0x1 PUSH1 0x1 PUSH1 0xA0 SHL SUB SWAP1 DUP2 AND DUP7 MSTORE SWAP2 DUP5 MSTORE PUSH1 0x40 DUP1 DUP7 KECCAK256 PUSH1 0x5 ADD DUP1 SLOAD PUSH1 0xFF NOT AND PUSH1 0x1 OR SWAP1 SSTORE PUSH1 0x4 CALLDATALOAD DUP7 MSTORE PUSH1 0x6 DUP6 MSTORE DUP1 DUP7 KECCAK256 SWAP3 DUP9 AND DUP7 MSTORE SWAP2 DUP5 MSTORE SWAP1 DUP5 KECCAK256 PUSH2 0xBA5 PUSH1 0xB DUP15 ADD PUSH2 0x375F JUMP JUMPDEST SWAP1 SLOAD SWAP1 DUP4 SHL SHR PUSH1 0x1 PUSH1 0x1 PUSH1 0xA0 SHL SUB AND DUP6 MSTORE DUP4 MSTORE PUSH1 0x40 DUP5 KECCAK256 PUSH1 0x4 ADD DUP9 SWAP1 SSTORE PUSH1 0x9 DUP13 ADD SLOAD PUSH2 0xBD1 SWAP1 DUP10 PUSH2 0x3BBA JUMP JUMPDEST SWAP1 SLOAD PUSH1 0x40 MLOAD PUSH4 0xA9059CBB PUSH1 0xE0 SHL DUP2 MSTORE PUSH1 0x1 PUSH1 0x1 PUSH1 0xA0 SHL SUB DUP9 DUP2 AND PUSH1 0x4 DUP4 ADD MSTORE PUSH1 0x24 DUP3 ADD SWAP4 SWAP1 SWAP4 MSTORE SWAP5 DUP6 SWAP4 SWAP2 SWAP1 SWAP3 AND SWAP2 DUP4 SWAP2 DUP3 SWAP1 PUSH1 0x44 DUP3 ADD SWAP1 JUMP JUMPDEST SUB SWAP3 GAS CALL SWAP1 DUP2 ISZERO PUSH2 0x5EF JUMPI PUSH1 0x0 SWAP2 PUSH2 0xD22 JUMPI JUMPDEST POP ISZERO PUSH2 0xCDD JUMPI DUP4 PUSH2 0xC2E SWAP2 PUSH2 0x3BBA JUMP JUMPDEST SWAP6 PUSH1 0x1 DUP1 PUSH1 0xA0 SHL SUB PUSH1 0x2 SLOAD AND SWAP2 DUP3 EXTCODESIZE ISZERO PUSH2 0x5FB JUMPI PUSH1 0x40 MLOAD PUSH4 0xF3312B0B PUSH1 0xE0 SHL DUP2 MSTORE PUSH1 0x1 PUSH1 0x1 PUSH1 0xA0 SHL SUB DUP3 AND PUSH1 0x4 DUP3 ADD MSTORE PUSH1 0x5 PUSH1 0x24 DUP3 ADD MSTORE SWAP3 PUSH1 0x0 SWAP1 DUP5 SWAP1 PUSH1 0x44 SWAP1 DUP3 SWAP1 DUP5 SWAP1 GAS CALL SWAP3 DUP4 ISZERO PUSH2 0x5EF JUMPI PUSH2 0xCC6 SWAP4 PUSH2 0xCCE JUMPI JUMPDEST POP PUSH1 0x40 MLOAD DUP6 DUP2 MSTORE PUSH1 0x1 PUSH1 0x1 PUSH1 0xA0 SHL SUB SWAP1 SWAP2 AND SWAP1 PUSH1 0x4 CALLDATALOAD SWAP1 PUSH32 0xCAA3662CAD6D5867A0D293984D7433BF5980938D051ED498FDC583CC5EB9E7FC SWAP1 PUSH1 0x20 SWAP1 LOG3 PUSH2 0x3AF8 JUMP JUMPDEST SWAP3 SWAP2 SWAP1 PUSH2 0x814 JUMP JUMPDEST PUSH2 0xCD7 SWAP1 PUSH2 0x3833 JUMP JUMPDEST DUP10 PUSH2 0xC84 JUMP JUMPDEST PUSH1 0x40 MLOAD PUSH3 0x461BCD PUSH1 0xE5 SHL DUP2 MSTORE PUSH1 0x20 PUSH1 0x4 DUP3 ADD MSTORE PUSH1 0x18 PUSH1 0x24 DUP3 ADD MSTORE PUSH32 0x4576616C7561746F72207061796D656E74206661696C65640000000000000000 PUSH1 0x44 DUP3 ADD MSTORE PUSH1 0x64 SWAP1 REVERT JUMPDEST PUSH2 0xD3B SWAP2 POP PUSH1 0x20 RETURNDATASIZE PUSH1 0x20 GT PUSH2 0x665 JUMPI PUSH2 0x657 DUP2 DUP4 PUSH2 0x3846 JUMP JUMPDEST DUP10 PUSH2 0xC1E JUMP JUMPDEST PUSH1 0x40 MLOAD PUSH3 0x461BCD PUSH1 0xE5 SHL DUP2 MSTORE PUSH1 0x20 PUSH1 0x4 DUP3 ADD MSTORE PUSH1 0x14 PUSH1 0x24 DUP3 ADD MSTORE PUSH20 0xA6C6DEE4CA40C6DEEADCE840DAD2E6DAC2E8C6D PUSH1 0x63 SHL PUSH1 0x44 DUP3 ADD MSTORE PUSH1 0x64 SWAP1 REVERT JUMPDEST PUSH1 0x40 MLOAD PUSH3 0x461BCD PUSH1 0xE5 SHL DUP2 MSTORE PUSH1 0x20 PUSH1 0x4 DUP3 ADD MSTORE PUSH1 0x1A PUSH1 0x24 DUP3 ADD MSTORE PUSH32 0x546F6F206D616E7920636F6E73656E73757320776F726B657273000000000000 PUSH1 0x44 DUP3 ADD MSTORE PUSH1 0x64 SWAP1 REVERT JUMPDEST PUSH1 0x40 MLOAD PUSH3 0x461BCD PUSH1 0xE5 SHL DUP2 MSTORE PUSH1 0x20 PUSH1 0x4 DUP3 ADD MSTORE PUSH1 0x13 PUSH1 0x24 DUP3 ADD MSTORE PUSH19 0x5461736B206E6F74206576616C756174696E67 PUSH1 0x68 SHL PUSH1 0x44 DUP3 ADD MSTORE PUSH1 0x64 SWAP1 REVERT JUMPDEST PUSH4 0x4E487B71 PUSH1 0xE0 SHL PUSH1 0x0 MSTORE PUSH1 0x21 PUSH1 0x4 MSTORE PUSH1 0x24 PUSH1 0x0 REVERT JUMPDEST CALLVALUE PUSH2 0x5FB JUMPI PUSH1 0x20 CALLDATASIZE PUSH1 0x3 NOT ADD SLT PUSH2 0x5FB JUMPI PUSH2 0xE2C PUSH2 0x3641 JUMP JUMPDEST PUSH2 0xE34 PUSH2 0x3970 JUMP JUMPDEST PUSH1 0x1 PUSH1 0x1 PUSH1 0xA0 SHL SUB SWAP1 DUP2 AND SWAP1 DUP2 ISZERO PUSH2 0xE88 JUMPI PUSH1 0x0 SLOAD DUP3 PUSH12 0xFFFFFFFFFFFFFFFFFFFFFFFF PUSH1 0xA0 SHL DUP3 AND OR PUSH1 0x0 SSTORE AND PUSH32 0x8BE0079C531659141344CD1FD0A4F28419497F9722A3DAAFE3B4186F6B6457E0 PUSH1 0x0 DUP1 LOG3 STOP JUMPDEST PUSH1 0x40 MLOAD PUSH4 0x1E4FBDF7 PUSH1 0xE0 SHL DUP2 MSTORE PUSH1 0x0 PUSH1 0x4 DUP3 ADD MSTORE PUSH1 0x24 SWAP1 REVERT JUMPDEST CALLVALUE PUSH2 0x5FB JUMPI PUSH1 0x40 CALLDATASIZE PUSH1 0x3 NOT ADD SLT PUSH2 0x5FB JUMPI PUSH2 0xEBA PUSH2 0x3641 JUMP JUMPDEST PUSH1 0x1 PUSH1 0x1 PUSH1 0xA0 SHL SUB AND PUSH1 0x0 SWAP1 DUP2 MSTORE PUSH1 0xA PUSH1 0x20 MSTORE PUSH1 0x40 SWAP1 KECCAK256 DUP1 SLOAD PUSH1 0x24 CALLDATALOAD SWAP2 SWAP1 DUP3 LT ISZERO PUSH2 0x5FB JUMPI PUSH1 0x20 SWAP2 PUSH2 0xEEB SWAP2 PUSH2 0x3774 JUMP JUMPDEST SWAP1 SLOAD PUSH1 0x40 MLOAD SWAP2 PUSH1 0x3 SHL SHR DUP2 MSTORE RETURN JUMPDEST CALLVALUE PUSH2 0x5FB JUMPI PUSH1 0x20 DUP1 PUSH1 0x3 NOT CALLDATASIZE ADD SLT PUSH2 0x5FB JUMPI PUSH1 0x4 CALLDATALOAD DUP1 PUSH1 0x0 MSTORE PUSH1 0x4 DUP3 MSTORE PUSH1 0x1 DUP1 PUSH1 0xA0 SHL SUB SWAP1 PUSH2 0xF33 DUP3 PUSH1 0x1 PUSH1 0x40 PUSH1 0x0 KECCAK256 ADD SLOAD AND CALLER EQ PUSH2 0x3A80 JUMP JUMPDEST PUSH2 0xF3B PUSH2 0x3A5D JUMP JUMPDEST PUSH1 0x0 MSTORE PUSH1 0x4 DUP3 MSTORE PUSH1 0x40 PUSH1 0x0 KECCAK256 SWAP1 PUSH1 0xA DUP3 ADD DUP1 SLOAD PUSH1 0xFF DUP2 PUSH1 0xC0 SHR AND PUSH1 0x6 DUP2 LT ISZERO PUSH2 0xDFD JUMPI PUSH1 0x1 DUP2 EQ SWAP1 DUP2 ISZERO PUSH2 0x10AF JUMPI JUMPDEST POP ISZERO PUSH2 0x107A JUMPI PUSH1 0xB DUP5 ADD SLOAD PUSH2 0x103C JUMPI PUSH1 0x5 PUSH1 0xC0 SHL PUSH1 0xFF PUSH1 0xC0 SHL NOT SWAP2 SWAP1 SWAP2 AND OR SWAP1 SSTORE PUSH1 0x3 SLOAD PUSH1 0x1 DUP4 ADD SLOAD PUSH1 0x4 SWAP4 DUP5 ADD SLOAD PUSH1 0x40 MLOAD PUSH4 0xA9059CBB PUSH1 0xE0 SHL DUP2 MSTORE SWAP2 DUP5 AND PUSH1 0x1 PUSH1 0x1 PUSH1 0xA0 SHL SUB AND SWAP5 DUP3 ADD SWAP5 SWAP1 SWAP5 MSTORE PUSH1 0x24 DUP2 ADD SWAP4 SWAP1 SWAP4 MSTORE DUP4 SWAP2 DUP4 SWAP2 PUSH1 0x44 SWAP2 DUP4 SWAP2 PUSH1 0x0 SWAP2 AND GAS CALL SWAP1 DUP2 ISZERO PUSH2 0x5EF JUMPI PUSH1 0x0 SWAP2 PUSH2 0x101F JUMPI JUMPDEST POP ISZERO PUSH2 0xFEB JUMPI PUSH1 0x1 DUP1 SSTORE STOP JUMPDEST PUSH1 0x64 SWAP1 PUSH1 0x40 MLOAD SWAP1 PUSH3 0x461BCD PUSH1 0xE5 SHL DUP3 MSTORE PUSH1 0x4 DUP3 ADD MSTORE PUSH1 0xD PUSH1 0x24 DUP3 ADD MSTORE PUSH13 0x1499599D5B990819985A5B1959 PUSH1 0x9A SHL PUSH1 0x44 DUP3 ADD MSTORE REVERT JUMPDEST PUSH2 0x1036 SWAP2 POP DUP3 RETURNDATASIZE DUP5 GT PUSH2 0x665 JUMPI PUSH2 0x657 DUP2 DUP4 PUSH2 0x3846 JUMP JUMPDEST DUP3 PUSH2 0xFDF JUMP JUMPDEST PUSH1 0x40 MLOAD PUSH3 0x461BCD PUSH1 0xE5 SHL DUP2 MSTORE PUSH1 0x4 DUP2 ADD DUP7 SWAP1 MSTORE PUSH1 0x16 PUSH1 0x24 DUP3 ADD MSTORE PUSH22 0x15DBDC9AD95C9CC8185B1C9958591E481A9BDA5B9959 PUSH1 0x52 SHL PUSH1 0x44 DUP3 ADD MSTORE PUSH1 0x64 SWAP1 REVERT JUMPDEST PUSH1 0x40 MLOAD PUSH3 0x461BCD PUSH1 0xE5 SHL DUP2 MSTORE PUSH1 0x4 DUP2 ADD DUP7 SWAP1 MSTORE PUSH1 0xD PUSH1 0x24 DUP3 ADD MSTORE PUSH13 0x10D85B9B9BDD0818D85B98D95B PUSH1 0x9A SHL PUSH1 0x44 DUP3 ADD MSTORE PUSH1 0x64 SWAP1 REVERT JUMPDEST SWAP1 POP ISZERO DUP7 PUSH2 0xF6A JUMP JUMPDEST CALLVALUE PUSH2 0x5FB JUMPI PUSH1 0x0 CALLDATASIZE PUSH1 0x3 NOT ADD SLT PUSH2 0x5FB JUMPI PUSH1 0x20 PUSH1 0xFF PUSH1 0xD SLOAD PUSH1 0x8 SHR AND PUSH1 0x40 MLOAD SWAP1 DUP2 MSTORE RETURN JUMPDEST CALLVALUE PUSH2 0x5FB JUMPI PUSH1 0x20 CALLDATASIZE PUSH1 0x3 NOT ADD SLT PUSH2 0x5FB JUMPI PUSH1 0x4 CALLDATALOAD PUSH1 0x0 MSTORE PUSH1 0x4 PUSH1 0x20 MSTORE PUSH1 0x20 PUSH1 0x40 PUSH1 0x0 KECCAK256 DUP1 SLOAD SWAP1 PUSH1 0x1 DUP1 PUSH1 0xA0 SHL SUB PUSH1 0x1 DUP3 ADD SLOAD AND PUSH1 0xFF PUSH2 0x111D PUSH1 0x2 DUP5 ADD PUSH2 0x3867 JUMP JUMPDEST SWAP3 PUSH1 0x3 DUP2 ADD SLOAD SWAP4 PUSH1 0x4 DUP3 ADD SLOAD PUSH1 0x5 DUP4 ADD SLOAD PUSH1 0x6 DUP5 ADD SLOAD PUSH1 0x7 DUP6 ADD SLOAD SWAP2 PUSH1 0x8 DUP7 ADD SLOAD SWAP4 PUSH2 0x1172 PUSH1 0x9 DUP9 ADD SLOAD SWAP7 PUSH1 0xD PUSH1 0xA DUP11 ADD SLOAD SWAP10 ADD SLOAD SWAP11 PUSH1 0x40 MLOAD SWAP15 DUP16 SWAP15 DUP16 SWAP1 DUP2 MSTORE ADD MSTORE PUSH1 0x40 DUP14 PUSH2 0x220 SWAP2 DUP3 SWAP2 ADD MSTORE DUP14 ADD SWAP1 PUSH2 0x36A8 JUMP JUMPDEST SWAP10 PUSH1 0x60 DUP13 ADD MSTORE PUSH1 0x80 DUP12 ADD MSTORE PUSH1 0xA0 DUP11 ADD MSTORE PUSH1 0xC0 DUP10 ADD MSTORE PUSH1 0xE0 DUP9 ADD MSTORE PUSH2 0x100 DUP8 ADD MSTORE PUSH2 0x120 DUP7 ADD MSTORE PUSH1 0x1 PUSH1 0x1 PUSH1 0x40 SHL SUB DUP1 DUP3 AND PUSH2 0x140 DUP8 ADD MSTORE DUP1 DUP3 PUSH1 0x40 SHR AND PUSH2 0x160 DUP8 ADD MSTORE DUP2 PUSH1 0x80 SHR AND PUSH2 0x180 DUP7 ADD MSTORE PUSH2 0x11D3 PUSH2 0x1A0 DUP7 ADD DUP4 DUP4 PUSH1 0xC0 SHR AND PUSH2 0x36E8 JUMP JUMPDEST DUP2 DUP2 PUSH1 0xC8 SHR AND PUSH2 0x1C0 DUP7 ADD MSTORE PUSH1 0xD0 SHR AND PUSH2 0x1E0 DUP5 ADD MSTORE PUSH2 0x200 DUP4 ADD MSTORE SUB SWAP1 RETURN JUMPDEST CALLVALUE PUSH2 0x5FB JUMPI PUSH1 0x0 CALLDATASIZE PUSH1 0x3 NOT ADD SLT PUSH2 0x5FB JUMPI PUSH1 0x20 PUSH1 0x40 MLOAD PUSH2 0x2710 DUP2 MSTORE RETURN JUMPDEST CALLVALUE PUSH2 0x5FB JUMPI PUSH1 0x20 CALLDATASIZE PUSH1 0x3 NOT ADD SLT PUSH2 0x5FB JUMPI PUSH1 0x4 CALLDATALOAD PUSH1 0x0 MSTORE PUSH1 0xB PUSH1 0x20 MSTORE PUSH1 0x20 PUSH1 0x40 PUSH1 0x0 KECCAK256 SLOAD PUSH1 0x40 MLOAD SWAP1 DUP2 MSTORE RETURN JUMPDEST CALLVALUE PUSH2 0x5FB JUMPI PUSH2 0x124A CALLDATASIZE PUSH2 0x393D JUMP JUMPDEST SWAP1 SWAP2 DUP1 PUSH1 0x0 MSTORE PUSH1 0x4 PUSH1 0x20 MSTORE PUSH2 0x1270 PUSH1 0x1 DUP1 PUSH1 0xA0 SHL SUB PUSH1 0x1 PUSH1 0x40 PUSH1 0x0 KECCAK256 ADD SLOAD AND CALLER EQ PUSH2 0x3A80 JUMP JUMPDEST DUP1 PUSH1 0x0 MSTORE PUSH1 0x4 PUSH1 0x20 MSTORE PUSH1 0x40 PUSH1 0x0 KECCAK256 SWAP3 PUSH1 0xA DUP5 ADD SLOAD PUSH1 0xFF DUP2 PUSH1 0xC0 SHR AND PUSH1 0x6 DUP2 LT ISZERO PUSH2 0xDFD JUMPI DUP1 PUSH1 0x1 PUSH2 0x12AA SWAP3 EQ SWAP1 DUP2 ISZERO PUSH2 0x162B JUMPI JUMPDEST POP PUSH2 0x3ABC JUMP JUMPDEST PUSH1 0xFF DUP2 PUSH1 0xD0 SHR AND DUP5 SUB PUSH2 0x15EE JUMPI PUSH1 0xFF PUSH1 0xB DUP7 ADD SLOAD SWAP2 PUSH1 0xC8 SHR AND SUB PUSH2 0x15B2 JUMPI PUSH1 0xC DUP5 ADD SLOAD PUSH2 0x156D JUMPI PUSH1 0x0 JUMPDEST DUP4 DUP2 LT PUSH2 0x12DD JUMPI STOP JUMPDEST PUSH2 0x12EB PUSH2 0x30E DUP3 DUP7 DUP6 PUSH2 0x3B07 JUMP JUMPDEST PUSH1 0x2 SLOAD PUSH1 0x40 MLOAD PUSH4 0x2FF0674D PUSH1 0xE1 SHL DUP2 MSTORE PUSH1 0x1 PUSH1 0x1 PUSH1 0xA0 SHL SUB DUP1 DUP5 AND PUSH1 0x4 DUP4 ADD MSTORE SWAP3 SWAP4 SWAP3 SWAP1 SWAP2 PUSH1 0x20 SWAP2 DUP4 SWAP2 PUSH1 0x24 SWAP2 DUP4 SWAP2 AND GAS STATICCALL SWAP1 DUP2 ISZERO PUSH2 0x5EF JUMPI PUSH1 0x0 SWAP2 PUSH2 0x154E JUMPI JUMPDEST POP ISZERO PUSH2 0x1510 JUMPI PUSH1 0x0 DUP1 PUSH1 0xB DUP9 ADD SLOAD SWAP1 JUMPDEST DUP2 DUP2 LT PUSH2 0x14CD JUMPI JUMPDEST POP POP PUSH2 0x1488 JUMPI PUSH1 0x9 DUP7 ADD SLOAD DUP1 PUSH2 0x13CA JUMPI JUMPDEST POP DUP2 PUSH2 0x1367 PUSH2 0x13C5 SWAP4 PUSH1 0xC DUP10 ADD PUSH2 0x3B2B JUMP JUMPDEST PUSH1 0x1 DUP1 PUSH1 0xA0 SHL SUB DUP2 AND PUSH1 0x0 MSTORE PUSH1 0xA PUSH1 0x20 MSTORE PUSH2 0x1386 DUP6 PUSH1 0x40 PUSH1 0x0 KECCAK256 PUSH2 0x3A28 JUMP JUMPDEST DUP5 PUSH32 0xB0EEB3F3713587BDAC225BDD5C8F683DAFB4F470E110A58DDB5EDF8B6181D886 PUSH1 0x20 PUSH1 0x9 DUP11 ADD SLOAD SWAP4 PUSH1 0x40 MLOAD SWAP5 DUP6 MSTORE PUSH1 0x1 DUP1 PUSH1 0xA0 SHL SUB AND SWAP4 LOG3 PUSH2 0x3AF8 JUMP JUMPDEST PUSH2 0x12D4 JUMP JUMPDEST PUSH1 0x3 SLOAD PUSH1 0x40 MLOAD PUSH4 0x23B872DD PUSH1 0xE0 SHL DUP2 MSTORE PUSH1 0x1 PUSH1 0x1 PUSH1 0xA0 SHL SUB DUP6 DUP2 AND PUSH1 0x4 DUP4 ADD MSTORE ADDRESS PUSH1 0x24 DUP4 ADD MSTORE PUSH1 0x44 DUP3 ADD SWAP4 SWAP1 SWAP4 MSTORE SWAP2 PUSH1 0x20 SWAP2 DUP4 SWAP2 PUSH1 0x64 SWAP2 DUP4 SWAP2 PUSH1 0x0 SWAP2 AND GAS CALL SWAP1 DUP2 ISZERO PUSH2 0x5EF JUMPI PUSH1 0x0 SWAP2 PUSH2 0x1469 JUMPI JUMPDEST POP ISZERO PUSH2 0x1424 JUMPI DUP7 PUSH2 0x1355 JUMP JUMPDEST PUSH1 0x40 MLOAD PUSH3 0x461BCD PUSH1 0xE5 SHL DUP2 MSTORE PUSH1 0x20 PUSH1 0x4 DUP3 ADD MSTORE PUSH1 0x1F PUSH1 0x24 DUP3 ADD MSTORE PUSH32 0x4576616C7561746F72207374616B65207472616E73666572206661696C656400 PUSH1 0x44 DUP3 ADD MSTORE PUSH1 0x64 SWAP1 REVERT JUMPDEST PUSH2 0x1482 SWAP2 POP PUSH1 0x20 RETURNDATASIZE PUSH1 0x20 GT PUSH2 0x665 JUMPI PUSH2 0x657 DUP2 DUP4 PUSH2 0x3846 JUMP JUMPDEST DUP8 PUSH2 0x1418 JUMP JUMPDEST PUSH1 0x40 MLOAD PUSH3 0x461BCD PUSH1 0xE5 SHL DUP2 MSTORE PUSH1 0x20 PUSH1 0x4 DUP3 ADD MSTORE PUSH1 0x1A PUSH1 0x24 DUP3 ADD MSTORE PUSH32 0x4576616C7561746F722063616E6E6F7420626520776F726B6572000000000000 PUSH1 0x44 DUP3 ADD MSTORE PUSH1 0x64 SWAP1 REVERT JUMPDEST PUSH2 0x14DA DUP2 PUSH1 0xB DUP12 ADD PUSH2 0x3774 JUMP JUMPDEST SWAP1 SLOAD PUSH1 0x3 SWAP2 SWAP1 SWAP2 SHL SHR PUSH1 0x1 PUSH1 0x1 PUSH1 0xA0 SHL SUB SWAP1 DUP2 AND SWAP1 DUP7 AND EQ PUSH2 0x1504 JUMPI PUSH2 0x14FF SWAP1 PUSH2 0x3AF8 JUMP JUMPDEST PUSH2 0x133C JUMP JUMPDEST POP POP POP PUSH1 0x1 DUP8 DUP1 PUSH2 0x1344 JUMP JUMPDEST PUSH1 0x40 MLOAD PUSH3 0x461BCD PUSH1 0xE5 SHL DUP2 MSTORE PUSH1 0x20 PUSH1 0x4 DUP3 ADD MSTORE PUSH1 0x16 PUSH1 0x24 DUP3 ADD MSTORE PUSH22 0x2737BA1032B634B3B4B136329032BB30B63AB0BA37B9 PUSH1 0x51 SHL PUSH1 0x44 DUP3 ADD MSTORE PUSH1 0x64 SWAP1 REVERT JUMPDEST PUSH2 0x1567 SWAP2 POP PUSH1 0x20 RETURNDATASIZE PUSH1 0x20 GT PUSH2 0x665 JUMPI PUSH2 0x657 DUP2 DUP4 PUSH2 0x3846 JUMP JUMPDEST DUP8 PUSH2 0x132C JUMP JUMPDEST PUSH1 0x40 MLOAD PUSH3 0x461BCD PUSH1 0xE5 SHL DUP2 MSTORE PUSH1 0x20 PUSH1 0x4 DUP3 ADD MSTORE PUSH1 0x1B PUSH1 0x24 DUP3 ADD MSTORE PUSH32 0x4576616C7561746F727320616C72656164792073656C65637465640000000000 PUSH1 0x44 DUP3 ADD MSTORE PUSH1 0x64 SWAP1 REVERT JUMPDEST PUSH1 0x40 MLOAD PUSH3 0x461BCD PUSH1 0xE5 SHL DUP2 MSTORE PUSH1 0x20 PUSH1 0x4 DUP3 ADD MSTORE PUSH1 0x14 PUSH1 0x24 DUP3 ADD MSTORE PUSH20 0x14D95B1958DD081DDBDC9AD95C9CC8199A5C9CDD PUSH1 0x62 SHL PUSH1 0x44 DUP3 ADD MSTORE PUSH1 0x64 SWAP1 REVERT JUMPDEST PUSH1 0x40 MLOAD PUSH3 0x461BCD PUSH1 0xE5 SHL DUP2 MSTORE PUSH1 0x20 PUSH1 0x4 DUP3 ADD MSTORE PUSH1 0x15 PUSH1 0x24 DUP3 ADD MSTORE PUSH21 0x15DC9BDB99C8195D985B1D585D1BDC8818DBDD5B9D PUSH1 0x5A SHL PUSH1 0x44 DUP3 ADD MSTORE PUSH1 0x64 SWAP1 REVERT JUMPDEST SWAP1 POP ISZERO DUP8 PUSH2 0x12A4 JUMP JUMPDEST CALLVALUE PUSH2 0x5FB JUMPI PUSH1 0x40 CALLDATASIZE PUSH1 0x3 NOT ADD SLT PUSH2 0x5FB JUMPI PUSH2 0x164D PUSH2 0x3657 JUMP JUMPDEST PUSH1 0x4 CALLDATALOAD PUSH1 0x0 MSTORE PUSH1 0x5 PUSH1 0x20 MSTORE PUSH1 0x40 PUSH1 0x0 KECCAK256 SWAP1 PUSH1 0x1 DUP1 PUSH1 0xA0 SHL SUB AND PUSH1 0x0 MSTORE PUSH1 0x20 MSTORE PUSH1 0x40 PUSH1 0x0 KECCAK256 DUP1 SLOAD PUSH2 0x167F PUSH1 0x1 DUP4 ADD PUSH2 0x3867 JUMP JUMPDEST SWAP2 PUSH1 0x2 DUP2 ADD SLOAD SWAP1 PUSH1 0x3 DUP2 ADD SLOAD SWAP1 PUSH1 0xFF DUP1 PUSH1 0x5 PUSH1 0x4 DUP5 ADD SLOAD SWAP4 ADD SLOAD AND SWAP3 PUSH2 0x16B7 PUSH1 0x40 MLOAD SWAP8 DUP9 SWAP8 DUP9 MSTORE PUSH2 0x100 DUP1 PUSH1 0x20 DUP11 ADD MSTORE DUP9 ADD SWAP1 PUSH2 0x36A8 JUMP JUMPDEST SWAP5 PUSH1 0x40 DUP8 ADD MSTORE PUSH1 0x1 PUSH1 0x1 PUSH1 0x40 SHL SUB DUP2 AND PUSH1 0x60 DUP8 ADD MSTORE DUP2 DUP2 PUSH1 0x40 SHR AND ISZERO ISZERO PUSH1 0x80 DUP8 ADD MSTORE PUSH1 0x48 SHR AND PUSH1 0xA0 DUP6 ADD MSTORE PUSH1 0xC0 DUP5 ADD MSTORE ISZERO ISZERO PUSH1 0xE0 DUP4 ADD MSTORE SUB SWAP1 RETURN JUMPDEST CALLVALUE PUSH2 0x5FB JUMPI PUSH2 0x1700 CALLDATASIZE PUSH2 0x393D JUMP JUMPDEST SWAP1 DUP3 PUSH1 0x0 MSTORE PUSH1 0x20 SWAP3 PUSH1 0x4 DUP5 MSTORE PUSH1 0x1 DUP1 PUSH1 0xA0 SHL SUB SWAP4 PUSH2 0x1729 DUP6 PUSH1 0x1 PUSH1 0x40 PUSH1 0x0 KECCAK256 ADD SLOAD AND CALLER EQ PUSH2 0x3A80 JUMP JUMPDEST DUP2 PUSH1 0x0 MSTORE PUSH1 0x4 DUP2 MSTORE PUSH1 0x40 PUSH1 0x0 KECCAK256 SWAP4 PUSH1 0xA DUP6 ADD SLOAD PUSH1 0xFF DUP2 PUSH1 0xC0 SHR AND SWAP1 PUSH1 0x6 DUP3 LT ISZERO PUSH2 0xDFD JUMPI PUSH2 0x175B PUSH1 0x1 PUSH1 0xFF SWAP4 EQ PUSH2 0x3ABC JUMP JUMPDEST PUSH1 0xC8 SHR AND DUP2 SUB PUSH2 0x198A JUMPI PUSH1 0xB DUP6 ADD SWAP4 DUP5 SLOAD PUSH2 0x1945 JUMPI SWAP1 SWAP5 PUSH1 0x8 ADD SWAP1 PUSH1 0x0 JUMPDEST DUP7 DUP2 LT PUSH2 0x1782 JUMPI STOP JUMPDEST PUSH2 0x1790 PUSH2 0x30E DUP3 DUP10 DUP6 PUSH2 0x3B07 JUMP JUMPDEST DUP9 PUSH1 0x2 SLOAD AND SWAP1 PUSH1 0x40 MLOAD PUSH4 0x1BC72BB5 PUSH1 0xE0 SHL DUP2 MSTORE DUP1 DUP8 DUP2 DUP14 DUP6 AND SWAP6 DUP7 PUSH1 0x4 DUP4 ADD MSTORE PUSH1 0x24 SWAP5 DUP6 SWAP2 GAS STATICCALL SWAP1 DUP2 ISZERO PUSH2 0x5EF JUMPI PUSH1 0x0 SWAP2 PUSH2 0x1928 JUMPI JUMPDEST POP ISZERO PUSH2 0x18EF JUMPI DUP7 DUP7 SLOAD DUP13 DUP2 PUSH2 0x1835 JUMPI JUMPDEST POP POP POP POP SWAP1 PUSH2 0x17E9 PUSH2 0x1830 SWAP4 SWAP3 DUP10 PUSH2 0x3B2B JUMP JUMPDEST DUP1 PUSH1 0x0 MSTORE PUSH1 0x9 DUP7 MSTORE PUSH2 0x17FF DUP8 PUSH1 0x40 PUSH1 0x0 KECCAK256 PUSH2 0x3A28 JUMP JUMPDEST DUP7 PUSH32 0xAF8CFA1997DEC31F5E2437D5D552C9FD1E3D97191D9E75FB08DC2D5EC4E30B42 DUP8 DUP8 SLOAD PUSH1 0x40 MLOAD SWAP1 DUP2 MSTORE LOG3 PUSH2 0x3AF8 JUMP JUMPDEST PUSH2 0x1779 JUMP JUMPDEST PUSH1 0x3 SLOAD PUSH1 0x40 MLOAD PUSH4 0x23B872DD PUSH1 0xE0 SHL DUP2 MSTORE PUSH1 0x1 PUSH1 0x1 PUSH1 0xA0 SHL SUB DUP8 AND PUSH1 0x4 DUP3 ADD MSTORE ADDRESS PUSH1 0x24 DUP3 ADD MSTORE PUSH1 0x44 DUP2 ADD SWAP4 SWAP1 SWAP4 MSTORE SWAP2 SWAP3 SWAP2 DUP4 SWAP2 PUSH1 0x64 SWAP2 DUP4 SWAP2 PUSH1 0x0 SWAP2 AND GAS CALL SWAP1 DUP2 ISZERO PUSH2 0x5EF JUMPI PUSH1 0x0 SWAP2 PUSH2 0x18D2 JUMPI JUMPDEST POP ISZERO PUSH2 0x188F JUMPI DUP7 DUP2 DUP13 PUSH2 0x17D6 JUMP JUMPDEST DUP7 PUSH1 0x1C PUSH1 0x64 SWAP3 PUSH1 0x40 MLOAD SWAP3 PUSH3 0x461BCD PUSH1 0xE5 SHL DUP5 MSTORE PUSH1 0x4 DUP5 ADD MSTORE DUP3 ADD MSTORE PUSH32 0x576F726B6572207374616B65207472616E73666572206661696C656400000000 PUSH1 0x44 DUP3 ADD MSTORE REVERT JUMPDEST PUSH2 0x18E9 SWAP2 POP DUP9 RETURNDATASIZE DUP11 GT PUSH2 0x665 JUMPI PUSH2 0x657 DUP2 DUP4 PUSH2 0x3846 JUMP JUMPDEST DUP13 PUSH2 0x1881 JUMP JUMPDEST DUP7 PUSH1 0x13 PUSH1 0x64 SWAP3 PUSH1 0x40 MLOAD SWAP3 PUSH3 0x461BCD PUSH1 0xE5 SHL DUP5 MSTORE PUSH1 0x4 DUP5 ADD MSTORE DUP3 ADD MSTORE PUSH19 0x2737BA1032B634B3B4B13632903BB7B935B2B9 PUSH1 0x69 SHL PUSH1 0x44 DUP3 ADD MSTORE REVERT JUMPDEST PUSH2 0x193F SWAP2 POP DUP9 RETURNDATASIZE DUP11 GT PUSH2 0x665 JUMPI PUSH2 0x657 DUP2 DUP4 PUSH2 0x3846 JUMP JUMPDEST DUP13 PUSH2 0x17C6 JUMP JUMPDEST PUSH1 0x40 MLOAD PUSH3 0x461BCD PUSH1 0xE5 SHL DUP2 MSTORE PUSH1 0x4 DUP2 ADD DUP5 SWAP1 MSTORE PUSH1 0x18 PUSH1 0x24 DUP3 ADD MSTORE PUSH32 0x576F726B65727320616C72656164792073656C65637465640000000000000000 PUSH1 0x44 DUP3 ADD MSTORE PUSH1 0x64 SWAP1 REVERT JUMPDEST PUSH1 0x40 MLOAD PUSH3 0x461BCD PUSH1 0xE5 SHL DUP2 MSTORE PUSH1 0x4 DUP2 ADD DUP4 SWAP1 MSTORE PUSH1 0x12 PUSH1 0x24 DUP3 ADD MSTORE PUSH18 0x15DC9BDB99C81DDBDC9AD95C8818DBDD5B9D PUSH1 0x72 SHL PUSH1 0x44 DUP3 ADD MSTORE PUSH1 0x64 SWAP1 REVERT JUMPDEST CALLVALUE PUSH2 0x5FB JUMPI PUSH1 0x0 CALLDATASIZE PUSH1 0x3 NOT ADD SLT PUSH2 0x5FB JUMPI PUSH1 0x20 PUSH1 0x7 SLOAD PUSH1 0x40 MLOAD SWAP1 DUP2 MSTORE RETURN JUMPDEST CALLVALUE PUSH2 0x5FB JUMPI PUSH1 0x20 DUP1 PUSH1 0x3 NOT CALLDATASIZE ADD SLT PUSH2 0x5FB JUMPI PUSH1 0x1 PUSH1 0x1 PUSH1 0xA0 SHL SUB PUSH2 0x1A04 PUSH2 0x3641 JUMP JUMPDEST AND PUSH1 0x0 MSTORE PUSH1 0x9 DUP2 MSTORE PUSH1 0x40 PUSH1 0x0 KECCAK256 SWAP1 PUSH1 0x40 MLOAD SWAP1 DUP2 DUP2 DUP5 SLOAD SWAP2 DUP3 DUP2 MSTORE ADD SWAP4 PUSH1 0x0 MSTORE DUP2 PUSH1 0x0 KECCAK256 SWAP2 PUSH1 0x0 SWAP1 JUMPDEST DUP3 DUP3 LT PUSH2 0x1A53 JUMPI PUSH2 0x1A4F DUP6 PUSH2 0x1A43 DUP2 DUP10 SUB DUP3 PUSH2 0x3846 JUMP JUMPDEST PUSH1 0x40 MLOAD SWAP2 DUP3 SWAP2 DUP3 PUSH2 0x366D JUMP JUMPDEST SUB SWAP1 RETURN JUMPDEST DUP4 SLOAD DUP7 MSTORE SWAP5 DUP6 ADD SWAP5 PUSH1 0x1 SWAP4 DUP5 ADD SWAP4 SWAP1 SWAP2 ADD SWAP1 PUSH2 0x1A2C JUMP JUMPDEST CALLVALUE PUSH2 0x5FB JUMPI PUSH1 0x0 CALLDATASIZE PUSH1 0x3 NOT ADD SLT PUSH2 0x5FB JUMPI PUSH1 0x20 PUSH1 0x40 MLOAD PUSH2 0x7D0 DUP2 MSTORE RETURN JUMPDEST CALLVALUE PUSH2 0x5FB JUMPI PUSH1 0x40 CALLDATASIZE PUSH1 0x3 NOT ADD SLT PUSH2 0x5FB JUMPI PUSH2 0x1AA0 PUSH2 0x3641 JUMP JUMPDEST PUSH1 0x1 PUSH1 0x1 PUSH1 0xA0 SHL SUB AND PUSH1 0x0 SWAP1 DUP2 MSTORE PUSH1 0x8 PUSH1 0x20 MSTORE PUSH1 0x40 SWAP1 KECCAK256 DUP1 SLOAD PUSH1 0x24 CALLDATALOAD SWAP2 SWAP1 DUP3 LT ISZERO PUSH2 0x5FB JUMPI PUSH1 0x20 SWAP2 PUSH2 0xEEB SWAP2 PUSH2 0x3774 JUMP JUMPDEST CALLVALUE PUSH2 0x5FB JUMPI PUSH1 0x40 CALLDATASIZE PUSH1 0x3 NOT ADD SLT PUSH2 0x5FB JUMPI PUSH2 0x1AEA PUSH2 0x3641 JUMP JUMPDEST PUSH2 0x1AF2 PUSH2 0x3970 JUMP JUMPDEST PUSH1 0x0 DUP1 SLOAD PUSH1 0x40 MLOAD PUSH4 0xA9059CBB PUSH1 0xE0 SHL DUP2 MSTORE PUSH1 0x1 PUSH1 0x1 PUSH1 0xA0 SHL SUB SWAP2 DUP3 AND PUSH1 0x4 DUP3 ADD MSTORE PUSH1 0x24 DUP1 CALLDATALOAD SWAP1 DUP3 ADD MSTORE SWAP3 PUSH1 0x20 SWAP3 DUP5 SWAP3 PUSH1 0x44 SWAP3 DUP5 SWAP3 SWAP2 AND GAS CALL SWAP1 DUP2 ISZERO PUSH2 0x5EF JUMPI PUSH1 0x0 SWAP2 PUSH2 0x1B7A JUMPI JUMPDEST POP ISZERO PUSH2 0x1B41 JUMPI STOP JUMPDEST PUSH1 0x40 MLOAD PUSH3 0x461BCD PUSH1 0xE5 SHL DUP2 MSTORE PUSH1 0x20 PUSH1 0x4 DUP3 ADD MSTORE PUSH1 0x11 PUSH1 0x24 DUP3 ADD MSTORE PUSH17 0x15DA5D1A191C985DD85B0819985A5B1959 PUSH1 0x7A SHL PUSH1 0x44 DUP3 ADD MSTORE PUSH1 0x64 SWAP1 REVERT JUMPDEST PUSH2 0x1B92 SWAP2 POP PUSH1 0x20 RETURNDATASIZE DUP2 GT PUSH2 0x665 JUMPI PUSH2 0x657 DUP2 DUP4 PUSH2 0x3846 JUMP JUMPDEST DUP2 PUSH2 0x1B39 JUMP JUMPDEST CALLVALUE PUSH2 0x5FB JUMPI PUSH1 0x0 CALLDATASIZE PUSH1 0x3 NOT ADD SLT PUSH2 0x5FB JUMPI PUSH1 0x20 PUSH1 0x1 PUSH1 0x1 PUSH1 0x40 SHL SUB PUSH1 0xD SLOAD PUSH1 0x50 SHR AND PUSH1 0x40 MLOAD SWAP1 DUP2 MSTORE RETURN JUMPDEST CALLVALUE PUSH2 0x5FB JUMPI PUSH1 0x80 CALLDATASIZE PUSH1 0x3 NOT ADD SLT PUSH2 0x5FB JUMPI PUSH1 0x44 DUP1 CALLDATALOAD PUSH1 0x1 PUSH1 0x1 PUSH1 0x40 SHL SUB DUP2 GT PUSH2 0x5FB JUMPI PUSH2 0x1BF3 SWAP1 CALLDATASIZE SWAP1 PUSH1 0x4 ADD PUSH2 0x3732 JUMP JUMPDEST SWAP2 PUSH1 0x0 SWAP2 PUSH1 0x0 JUMPDEST PUSH1 0x4 CALLDATALOAD PUSH1 0x0 MSTORE PUSH1 0x4 PUSH1 0x20 MSTORE PUSH1 0xB PUSH1 0x40 PUSH1 0x0 KECCAK256 ADD DUP1 SLOAD DUP3 LT ISZERO PUSH2 0x20D7 JUMPI DUP2 PUSH2 0x1C20 SWAP2 PUSH2 0x3774 JUMP JUMPDEST SWAP1 SLOAD PUSH1 0x3 SWAP2 SWAP1 SWAP2 SHL SHR PUSH1 0x1 PUSH1 0x1 PUSH1 0xA0 SHL SUB AND CALLER EQ PUSH2 0x1C46 JUMPI PUSH2 0x1C41 SWAP1 PUSH2 0x3AF8 JUMP JUMPDEST PUSH2 0x1BFA JUMP JUMPDEST POP SWAP1 SWAP2 POP PUSH1 0x1 JUMPDEST ISZERO PUSH2 0x209D JUMPI PUSH2 0x1C5A PUSH2 0x3A5D JUMP JUMPDEST PUSH1 0x4 CALLDATALOAD PUSH1 0x0 MSTORE PUSH1 0x4 PUSH1 0x20 MSTORE PUSH1 0x40 PUSH1 0x0 KECCAK256 SWAP2 PUSH1 0xA DUP4 ADD SLOAD PUSH1 0xFF DUP2 PUSH1 0xC0 SHR AND SWAP1 PUSH1 0x6 DUP3 LT ISZERO PUSH2 0xDFD JUMPI PUSH2 0x1C95 PUSH1 0x1 PUSH1 0x1 PUSH1 0x1 PUSH1 0x40 SHL SUB SWAP4 EQ PUSH2 0x3ABC JUMP JUMPDEST AND TIMESTAMP GT PUSH2 0x2067 JUMPI PUSH1 0x4 CALLDATALOAD PUSH1 0x0 MSTORE PUSH1 0x5 PUSH1 0x20 MSTORE PUSH1 0x40 PUSH1 0x0 KECCAK256 CALLER PUSH1 0x0 MSTORE PUSH1 0x20 MSTORE PUSH1 0xFF PUSH1 0x3 PUSH1 0x40 PUSH1 0x0 KECCAK256 ADD SLOAD PUSH1 0x40 SHR AND PUSH2 0x202F JUMPI PUSH1 0x24 CALLDATALOAD ISZERO PUSH2 0x1FF5 JUMPI DUP4 ISZERO ISZERO DUP1 PUSH2 0x1FE9 JUMPI JUMPDEST ISZERO PUSH2 0x1FAF JUMPI POP PUSH2 0x1CFA SWAP1 PUSH1 0x40 MLOAD SWAP4 PUSH2 0x1CEE DUP6 PUSH2 0x3817 JUMP JUMPDEST PUSH1 0x24 CALLDATALOAD DUP6 MSTORE CALLDATASIZE SWAP2 PUSH2 0x3B66 JUMP JUMPDEST PUSH1 0x20 DUP4 ADD SWAP1 DUP2 MSTORE PUSH1 0x64 CALLDATALOAD PUSH1 0x40 DUP5 ADD MSTORE PUSH1 0x1 PUSH1 0x1 PUSH1 0x40 SHL SUB TIMESTAMP AND PUSH1 0x60 DUP5 ADD MSTORE PUSH1 0x1 PUSH1 0x80 DUP5 ADD MSTORE PUSH1 0x0 PUSH1 0xA0 DUP5 ADD MSTORE PUSH1 0x0 PUSH1 0xC0 DUP5 ADD MSTORE PUSH1 0x0 PUSH1 0xE0 DUP5 ADD MSTORE PUSH1 0x4 CALLDATALOAD PUSH1 0x0 MSTORE PUSH1 0x5 PUSH1 0x20 MSTORE PUSH1 0x40 PUSH1 0x0 KECCAK256 CALLER PUSH1 0x0 MSTORE PUSH1 0x20 MSTORE PUSH1 0x40 PUSH1 0x0 KECCAK256 SWAP1 DUP4 MLOAD DUP3 SSTORE MLOAD SWAP3 DUP4 MLOAD PUSH1 0x1 PUSH1 0x1 PUSH1 0x40 SHL SUB DUP2 GT PUSH2 0x1F99 JUMPI PUSH2 0x1D81 DUP2 PUSH2 0x1D78 PUSH1 0x1 DUP7 ADD SLOAD PUSH2 0x37C1 JUMP JUMPDEST PUSH1 0x1 DUP7 ADD PUSH2 0x39D4 JUMP JUMPDEST PUSH1 0x20 PUSH1 0x1F DUP3 GT PUSH1 0x1 EQ PUSH2 0x1F21 JUMPI SWAP2 DUP2 PUSH1 0xE0 SWAP3 PUSH1 0x5 SWAP5 PUSH2 0x1E3A SWAP8 SWAP9 PUSH1 0x0 SWAP3 PUSH2 0x1F16 JUMPI JUMPDEST POP POP DUP2 PUSH1 0x1 SHL SWAP2 PUSH1 0x0 NOT SWAP1 PUSH1 0x3 SHL SHR NOT AND OR PUSH1 0x1 DUP6 ADD SSTORE JUMPDEST PUSH1 0x40 DUP2 DUP2 ADD MLOAD PUSH1 0x2 DUP7 ADD SSTORE PUSH1 0x60 DUP3 ADD MLOAD PUSH1 0x3 DUP7 ADD DUP1 SLOAD PUSH1 0x80 DUP6 ADD MLOAD PUSH1 0xA0 DUP7 ADD MLOAD SWAP1 ISZERO ISZERO SWAP1 SWAP5 SHL PUSH1 0xFF PUSH1 0x40 SHL AND PUSH1 0x1 PUSH1 0x1 PUSH1 0x40 SHL SUB SWAP1 SWAP4 AND PUSH10 0xFFFFFFFFFFFFFFFFFFFF NOT SWAP1 SWAP2 AND OR SWAP2 SWAP1 SWAP2 OR PUSH1 0x48 SWAP3 SWAP1 SWAP3 SHL PUSH1 0xFF PUSH1 0x48 SHL AND SWAP2 SWAP1 SWAP2 OR SWAP1 SSTORE JUMPDEST PUSH1 0xC0 DUP2 ADD MLOAD PUSH1 0x4 DUP6 ADD SSTORE ADD MLOAD ISZERO ISZERO SWAP2 ADD SWAP1 PUSH1 0xFF DUP1 NOT DUP4 SLOAD AND SWAP2 ISZERO ISZERO AND OR SWAP1 SSTORE JUMP JUMPDEST PUSH1 0x40 MLOAD PUSH1 0x24 CALLDATALOAD DUP2 MSTORE PUSH1 0x1 PUSH1 0x1 PUSH1 0x40 SHL SUB TIMESTAMP AND PUSH1 0x20 DUP3 ADD MSTORE CALLER SWAP1 PUSH32 0x696F81E189CF0FB20C47C68852C407DAC17843C28D52D080332938C858CAF226 PUSH1 0x40 PUSH1 0x4 CALLDATALOAD SWAP3 LOG3 PUSH1 0x1 PUSH1 0x0 PUSH1 0xB DUP4 ADD DUP1 SLOAD SWAP2 JUMPDEST DUP3 DUP2 LT PUSH2 0x1EB7 JUMPI JUMPDEST POP POP POP PUSH2 0x1E9D JUMPI JUMPDEST PUSH1 0x1 DUP1 SSTORE STOP JUMPDEST PUSH1 0xA ADD DUP1 SLOAD PUSH1 0xFF PUSH1 0xC0 SHL NOT AND PUSH1 0x1 PUSH1 0xC1 SHL OR SWAP1 SSTORE DUP1 PUSH2 0x1E97 JUMP JUMPDEST PUSH1 0x4 CALLDATALOAD PUSH1 0x0 MSTORE PUSH1 0x5 PUSH1 0x20 MSTORE PUSH1 0x40 PUSH1 0x0 KECCAK256 PUSH2 0x1ED1 DUP3 DUP5 PUSH2 0x3774 JUMP JUMPDEST PUSH1 0x1 DUP1 PUSH1 0xA0 SHL SUB SWAP2 SLOAD SWAP1 PUSH1 0x3 SHL SHR AND PUSH1 0x0 MSTORE PUSH1 0x20 MSTORE PUSH1 0xFF PUSH1 0x3 PUSH1 0x40 PUSH1 0x0 KECCAK256 ADD SLOAD PUSH1 0x40 SHR AND ISZERO PUSH2 0x1F08 JUMPI PUSH2 0x1F03 SWAP1 PUSH2 0x3AF8 JUMP JUMPDEST PUSH2 0x1E87 JUMP JUMPDEST POP POP POP POP PUSH1 0x0 DUP3 DUP1 DUP1 PUSH2 0x1E8F JUMP JUMPDEST ADD MLOAD SWAP1 POP DUP9 DUP1 PUSH2 0x1DA3 JUMP JUMPDEST PUSH1 0x1 DUP5 ADD PUSH1 0x0 MSTORE PUSH1 0x20 PUSH1 0x0 KECCAK256 SWAP6 PUSH1 0x0 JUMPDEST PUSH1 0x1F NOT DUP5 AND DUP2 LT PUSH2 0x1F81 JUMPI POP DUP3 PUSH2 0x1E3A SWAP7 SWAP8 PUSH1 0x5 SWAP6 SWAP4 PUSH1 0x1 SWAP4 PUSH1 0xE0 SWAP7 PUSH1 0x1F NOT DUP2 AND LT PUSH2 0x1F68 JUMPI JUMPDEST POP POP POP DUP2 SHL ADD PUSH1 0x1 DUP6 ADD SSTORE PUSH2 0x1DBB JUMP JUMPDEST ADD MLOAD PUSH1 0x0 NOT PUSH1 0xF8 DUP5 PUSH1 0x3 SHL AND SHR NOT AND SWAP1 SSTORE DUP9 DUP1 DUP1 PUSH2 0x1F58 JUMP JUMPDEST DUP3 DUP3 ADD MLOAD DUP9 SSTORE PUSH1 0x1 SWAP1 SWAP8 ADD SWAP7 PUSH1 0x20 SWAP3 DUP4 ADD SWAP3 ADD PUSH2 0x1F31 JUMP JUMPDEST PUSH4 0x4E487B71 PUSH1 0xE0 SHL PUSH1 0x0 MSTORE PUSH1 0x41 PUSH1 0x4 MSTORE PUSH1 0x24 PUSH1 0x0 REVERT JUMPDEST PUSH1 0x64 SWAP1 PUSH19 0x53756D6D61727920312D353030206368617273 PUSH1 0x68 SHL PUSH1 0x40 MLOAD SWAP2 PUSH3 0x461BCD PUSH1 0xE5 SHL DUP4 MSTORE PUSH1 0x20 PUSH1 0x4 DUP5 ADD MSTORE PUSH1 0x13 PUSH1 0x24 DUP5 ADD MSTORE DUP3 ADD MSTORE REVERT JUMPDEST POP PUSH2 0x1F4 DUP5 GT ISZERO PUSH2 0x1CD7 JUMP JUMPDEST PUSH1 0x64 SWAP1 PUSH19 0x92DCECC2D8D2C840E4CAE6EAD8E840D0C2E6D PUSH1 0x6B SHL PUSH1 0x40 MLOAD SWAP2 PUSH3 0x461BCD PUSH1 0xE5 SHL DUP4 MSTORE PUSH1 0x20 PUSH1 0x4 DUP5 ADD MSTORE PUSH1 0x13 PUSH1 0x24 DUP5 ADD MSTORE DUP3 ADD MSTORE REVERT JUMPDEST PUSH1 0x64 SWAP1 PUSH17 0x105B1C9958591E481CDD589B5A5D1D1959 PUSH1 0x7A SHL PUSH1 0x40 MLOAD SWAP2 PUSH3 0x461BCD PUSH1 0xE5 SHL DUP4 MSTORE PUSH1 0x20 PUSH1 0x4 DUP5 ADD MSTORE PUSH1 0x11 PUSH1 0x24 DUP5 ADD MSTORE DUP3 ADD MSTORE REVERT JUMPDEST PUSH1 0x64 SWAP1 PUSH15 0x111958591B1A5B99481C185CDCD959 PUSH1 0x8A SHL PUSH1 0x40 MLOAD SWAP2 PUSH3 0x461BCD PUSH1 0xE5 SHL DUP4 MSTORE PUSH1 0x20 PUSH1 0x4 DUP5 ADD MSTORE PUSH1 0xF PUSH1 0x24 DUP5 ADD MSTORE DUP3 ADD MSTORE REVERT JUMPDEST PUSH1 0x40 MLOAD PUSH3 0x461BCD PUSH1 0xE5 SHL DUP2 MSTORE PUSH1 0x20 PUSH1 0x4 DUP3 ADD MSTORE PUSH1 0x13 PUSH1 0x24 DUP3 ADD MSTORE PUSH19 0x2737BA1030B9B9B4B3B732B2103BB7B935B2B9 PUSH1 0x69 SHL DUP2 DUP5 ADD MSTORE PUSH1 0x64 SWAP1 REVERT JUMPDEST POP POP SWAP1 SWAP2 PUSH2 0x1C4D JUMP JUMPDEST CALLVALUE PUSH2 0x5FB JUMPI PUSH1 0x0 CALLDATASIZE PUSH1 0x3 NOT ADD SLT PUSH2 0x5FB JUMPI PUSH1 0x0 SLOAD PUSH1 0x40 MLOAD PUSH1 0x1 PUSH1 0x1 PUSH1 0xA0 SHL SUB SWAP1 SWAP2 AND DUP2 MSTORE PUSH1 0x20 SWAP1 RETURN JUMPDEST CALLVALUE PUSH2 0x5FB JUMPI PUSH2 0x2117 CALLDATASIZE PUSH2 0x378C JUMP JUMPDEST SWAP2 PUSH1 0x0 MSTORE PUSH1 0x6 PUSH1 0x20 MSTORE PUSH1 0x40 PUSH1 0x0 KECCAK256 PUSH1 0x1 DUP1 PUSH1 0xA0 SHL SUB DUP1 SWAP3 AND PUSH1 0x0 MSTORE PUSH1 0x20 MSTORE PUSH1 0x40 PUSH1 0x0 KECCAK256 SWAP2 AND PUSH1 0x0 MSTORE PUSH1 0x20 MSTORE PUSH1 0xFF PUSH1 0x40 PUSH1 0x0 KECCAK256 DUP1 SLOAD SWAP1 PUSH1 0x1 DUP2 ADD SLOAD PUSH2 0x215D PUSH1 0x2 DUP4 ADD PUSH2 0x3867 JUMP JUMPDEST SWAP2 DUP5 PUSH2 0x219F PUSH1 0x3 DUP4 ADD SLOAD SWAP5 DUP3 PUSH1 0x5 PUSH1 0x4 DUP7 ADD SLOAD SWAP6 ADD SLOAD AND SWAP5 PUSH1 0x40 MLOAD SWAP9 DUP9 DUP2 DUP12 SWAP11 AND DUP11 MSTORE PUSH1 0x8 SHR AND PUSH1 0x20 DUP10 ADD MSTORE PUSH1 0x40 DUP9 ADD MSTORE PUSH2 0x100 DUP1 PUSH1 0x60 DUP10 ADD MSTORE DUP8 ADD SWAP1 PUSH2 0x36A8 JUMP JUMPDEST SWAP4 PUSH1 0x1 PUSH1 0x1 PUSH1 0x40 SHL SUB DUP2 AND PUSH1 0x80 DUP8 ADD MSTORE PUSH1 0x40 SHR AND ISZERO ISZERO PUSH1 0xA0 DUP6 ADD MSTORE PUSH1 0xC0 DUP5 ADD MSTORE ISZERO ISZERO PUSH1 0xE0 DUP4 ADD MSTORE SUB SWAP1 RETURN JUMPDEST CALLVALUE PUSH2 0x5FB JUMPI PUSH1 0x0 CALLDATASIZE PUSH1 0x3 NOT ADD SLT PUSH2 0x5FB JUMPI PUSH1 0x20 PUSH1 0x40 MLOAD PUSH2 0x1B58 DUP2 MSTORE RETURN JUMPDEST CALLVALUE PUSH2 0x5FB JUMPI PUSH1 0x80 CALLDATASIZE PUSH1 0x3 NOT ADD SLT PUSH2 0x5FB JUMPI PUSH1 0x4 CALLDATALOAD PUSH1 0xFF DUP2 AND DUP1 SWAP2 SUB PUSH2 0x5FB JUMPI PUSH1 0x24 CALLDATALOAD SWAP1 PUSH1 0xFF DUP3 AND DUP3 SUB PUSH2 0x5FB JUMPI PUSH1 0x44 CALLDATALOAD SWAP1 PUSH1 0x1 PUSH1 0x1 PUSH1 0x40 SHL SUB SWAP3 DUP4 DUP4 AND DUP4 SUB PUSH2 0x5FB JUMPI PUSH1 0x64 CALLDATALOAD SWAP4 DUP5 AND DUP5 SUB PUSH2 0x5FB JUMPI PUSH2 0xFF00 PUSH10 0xFFFFFFFFFFFFFFFF0000 SWAP3 PUSH2 0x224D PUSH2 0x3970 JUMP JUMPDEST PUSH1 0xD SLOAD SWAP6 PUSH1 0x1 PUSH1 0x1 PUSH1 0x40 SHL SUB PUSH1 0x50 SHL SWAP1 PUSH1 0x50 SHL AND SWAP6 PUSH18 0xFFFFFFFFFFFFFFFFFFFFFFFFFFFFFFFFFFFF NOT AND OR SWAP2 PUSH1 0x8 SHL AND OR SWAP2 PUSH1 0x10 SHL AND OR OR PUSH1 0xD SSTORE PUSH1 0x0 DUP1 RETURN JUMPDEST CALLVALUE PUSH2 0x5FB JUMPI PUSH2 0x229B CALLDATASIZE PUSH2 0x378C JUMP JUMPDEST SWAP1 PUSH1 0x40 MLOAD SWAP3 PUSH2 0x22A9 DUP5 PUSH2 0x3817 JUMP JUMPDEST PUSH1 0x0 DUP5 MSTORE PUSH1 0x0 PUSH1 0xE0 PUSH1 0x20 SWAP6 DUP3 DUP8 DUP3 ADD MSTORE DUP3 PUSH1 0x40 DUP3 ADD MSTORE PUSH1 0x60 DUP1 DUP3 ADD MSTORE DUP3 PUSH1 0x80 DUP3 ADD MSTORE DUP3 PUSH1 0xA0 DUP3 ADD MSTORE DUP3 PUSH1 0xC0 DUP3 ADD MSTORE ADD MSTORE PUSH1 0x0 MSTORE PUSH1 0x6 DUP4 MSTORE PUSH1 0x40 PUSH1 0x0 KECCAK256 PUSH1 0x1 DUP1 PUSH1 0xA0 SHL SUB DUP1 SWAP3 AND PUSH1 0x0 MSTORE DUP4 MSTORE PUSH1 0x40 PUSH1 0x0 KECCAK256 SWAP2 AND PUSH1 0x0 MSTORE DUP2 MSTORE PUSH1 0x40 PUSH1 0x0 KECCAK256 PUSH1 0x40 MLOAD SWAP1 PUSH2 0x2312 DUP3 PUSH2 0x3817 JUMP JUMPDEST DUP1 SLOAD PUSH1 0xFF SWAP4 DUP5 DUP3 AND DUP5 MSTORE DUP5 DUP2 DUP6 ADD SWAP3 PUSH1 0x8 SHR AND DUP3 MSTORE PUSH1 0x1 DUP4 ADD SLOAD SWAP3 PUSH1 0x40 DUP6 ADD SWAP4 DUP5 MSTORE PUSH2 0x2340 PUSH1 0x2 DUP3 ADD PUSH2 0x3867 JUMP JUMPDEST PUSH1 0x60 DUP7 ADD SWAP1 DUP2 MSTORE PUSH1 0x3 DUP3 ADD SLOAD SWAP1 PUSH1 0x80 DUP8 ADD SWAP6 DUP9 PUSH1 0x1 PUSH1 0x1 PUSH1 0x40 SHL SUB SWAP7 DUP8 DUP6 AND DUP10 MSTORE DUP2 PUSH1 0xA0 DUP12 ADD SWAP6 PUSH1 0x40 SHR AND ISZERO ISZERO DUP6 MSTORE DUP2 PUSH1 0x5 PUSH1 0x4 DUP9 ADD SLOAD SWAP8 PUSH1 0xC0 DUP14 ADD SWAP9 DUP10 MSTORE ADD SLOAD AND SWAP7 PUSH1 0xE0 DUP12 ADD SWAP8 ISZERO ISZERO DUP9 MSTORE PUSH1 0x40 MLOAD SWAP12 DUP13 SWAP12 DUP3 DUP14 MSTORE MLOAD AND SWAP1 DUP12 ADD MSTORE MLOAD AND PUSH1 0x40 DUP10 ADD MSTORE MLOAD PUSH1 0x60 DUP9 ADD MSTORE MLOAD SWAP4 PUSH2 0x23C2 PUSH2 0x100 SWAP6 DUP7 PUSH1 0x80 DUP11 ADD MSTORE PUSH2 0x120 DUP10 ADD SWAP1 PUSH2 0x36A8 JUMP JUMPDEST SWAP6 MLOAD AND PUSH1 0xA0 DUP8 ADD MSTORE MLOAD ISZERO ISZERO PUSH1 0xC0 DUP7 ADD MSTORE MLOAD PUSH1 0xE0 DUP6 ADD MSTORE MLOAD ISZERO ISZERO SWAP1 DUP4 ADD MSTORE SUB SWAP1 RETURN JUMPDEST CALLVALUE PUSH2 0x5FB JUMPI PUSH1 0x0 CALLDATASIZE PUSH1 0x3 NOT ADD SLT PUSH2 0x5FB JUMPI PUSH1 0x2 SLOAD PUSH1 0x40 MLOAD PUSH1 0x1 PUSH1 0x1 PUSH1 0xA0 SHL SUB SWAP1 SWAP2 AND DUP2 MSTORE PUSH1 0x20 SWAP1 RETURN JUMPDEST CALLVALUE PUSH2 0x5FB JUMPI PUSH1 0x20 CALLDATASIZE PUSH1 0x3 NOT ADD SLT PUSH2 0x5FB JUMPI PUSH1 0x4 CALLDATALOAD PUSH1 0x7 SLOAD DUP2 LT ISZERO PUSH2 0x5FB JUMPI PUSH1 0x20 SWAP1 PUSH1 0x7 PUSH1 0x0 MSTORE PUSH32 0xA66CC928B5EDB82AF9BD49922954155AB7B0942694BEA4CE44661D9A8736C688 ADD SLOAD PUSH1 0x40 MLOAD SWAP1 DUP2 MSTORE RETURN JUMPDEST CALLVALUE PUSH2 0x5FB JUMPI PUSH1 0x0 CALLDATASIZE PUSH1 0x3 NOT ADD SLT PUSH2 0x5FB JUMPI PUSH2 0x2476 PUSH2 0x3970 JUMP JUMPDEST PUSH1 0x0 DUP1 SLOAD PUSH1 0x1 PUSH1 0x1 PUSH1 0xA0 SHL SUB NOT DUP2 AND DUP3 SSTORE PUSH1 0x1 PUSH1 0x1 PUSH1 0xA0 SHL SUB AND PUSH32 0x8BE0079C531659141344CD1FD0A4F28419497F9722A3DAAFE3B4186F6B6457E0 DUP3 DUP1 LOG3 STOP JUMPDEST CALLVALUE PUSH2 0x5FB JUMPI PUSH1 0x40 CALLDATASIZE PUSH1 0x3 NOT ADD SLT PUSH2 0x5FB JUMPI PUSH2 0x24CF PUSH2 0x3657 JUMP JUMPDEST PUSH1 0x4 CALLDATALOAD PUSH1 0x0 MSTORE PUSH1 0xC PUSH1 0x20 MSTORE PUSH1 0x40 PUSH1 0x0 KECCAK256 SWAP1 PUSH1 0x1 DUP1 PUSH1 0xA0 SHL SUB AND PUSH1 0x0 MSTORE PUSH1 0x20 MSTORE PUSH1 0x20 PUSH1 0xFF PUSH1 0x40 PUSH1 0x0 KECCAK256 SLOAD AND PUSH1 0x40 MLOAD SWAP1 ISZERO ISZERO DUP2 MSTORE RETURN JUMPDEST CALLVALUE PUSH2 0x5FB JUMPI PUSH1 0x0 CALLDATASIZE PUSH1 0x3 NOT ADD SLT PUSH2 0x5FB JUMPI PUSH1 0x20 PUSH1 0x1 PUSH1 0x1 PUSH1 0x40 SHL SUB PUSH1 0xD SLOAD PUSH1 0x10 SHR AND PUSH1 0x40 MLOAD SWAP1 DUP2 MSTORE RETURN JUMPDEST CALLVALUE PUSH2 0x5FB JUMPI PUSH1 0x20 DUP1 PUSH1 0x3 NOT CALLDATASIZE ADD SLT PUSH2 0x5FB JUMPI PUSH1 0x1 PUSH1 0x1 PUSH1 0xA0 SHL SUB PUSH2 0x254F PUSH2 0x3641 JUMP JUMPDEST AND PUSH1 0x0 MSTORE PUSH1 0xA DUP2 MSTORE PUSH1 0x40 PUSH1 0x0 KECCAK256 SWAP1 PUSH1 0x40 MLOAD SWAP1 DUP2 DUP2 DUP5 SLOAD SWAP2 DUP3 DUP2 MSTORE ADD SWAP4 PUSH1 0x0 MSTORE DUP2 PUSH1 0x0 KECCAK256 SWAP2 PUSH1 0x0 SWAP1 JUMPDEST DUP3 DUP3 LT PUSH2 0x258E JUMPI PUSH2 0x1A4F DUP6 PUSH2 0x1A43 DUP2 DUP10 SUB DUP3 PUSH2 0x3846 JUMP JUMPDEST DUP4 SLOAD DUP7 MSTORE SWAP5 DUP6 ADD SWAP5 PUSH1 0x1 SWAP4 DUP5 ADD SWAP4 SWAP1 SWAP2 ADD SWAP1 PUSH2 0x2577 JUMP JUMPDEST CALLVALUE PUSH2 0x5FB JUMPI PUSH1 0x40 CALLDATASIZE PUSH1 0x3 NOT ADD SLT PUSH2 0x5FB JUMPI PUSH2 0x25BE PUSH2 0x3657 JUMP JUMPDEST PUSH1 0x40 MLOAD SWAP1 PUSH2 0x25CB DUP3 PUSH2 0x3817 JUMP JUMPDEST PUSH1 0x0 DUP3 MSTORE PUSH1 0x0 PUSH1 0xE0 PUSH1 0x20 SWAP4 PUSH1 0x60 DUP6 DUP3 ADD MSTORE DUP3 PUSH1 0x40 DUP3 ADD MSTORE DUP3 PUSH1 0x60 DUP3 ADD MSTORE DUP3 PUSH1 0x80 DUP3 ADD MSTORE DUP3 PUSH1 0xA0 DUP3 ADD MSTORE DUP3 PUSH1 0xC0 DUP3 ADD MSTORE ADD MSTORE PUSH1 0x4 CALLDATALOAD PUSH1 0x0 MSTORE PUSH1 0x5 DUP3 MSTORE PUSH1 0x40 PUSH1 0x0 KECCAK256 SWAP1 PUSH1 0x1 DUP1 PUSH1 0xA0 SHL SUB AND PUSH1 0x0 MSTORE DUP2 MSTORE PUSH1 0x40 PUSH1 0x0 KECCAK256 PUSH1 0x40 MLOAD SWAP1 PUSH2 0x262B DUP3 PUSH2 0x3817 JUMP JUMPDEST DUP1 SLOAD DUP3 MSTORE PUSH2 0x263B PUSH1 0x1 DUP3 ADD PUSH2 0x3867 JUMP JUMPDEST SWAP1 DUP4 DUP4 ADD SWAP2 DUP3 MSTORE PUSH1 0x2 DUP2 ADD SLOAD SWAP2 PUSH1 0x40 DUP5 ADD SWAP3 DUP4 MSTORE PUSH1 0x3 DUP3 ADD SLOAD SWAP2 PUSH1 0xFF PUSH1 0x60 DUP7 ADD SWAP4 PUSH1 0x1 PUSH1 0x1 PUSH1 0x40 SHL SUB DUP1 DUP3 AND DUP7 MSTORE PUSH1 0x80 DUP9 ADD SWAP1 DUP4 DUP4 PUSH1 0x40 SHR AND ISZERO ISZERO DUP3 MSTORE DUP4 PUSH1 0xA0 DUP11 ADD SWAP4 PUSH1 0x48 SHR AND DUP4 MSTORE DUP4 PUSH1 0x5 PUSH1 0x4 DUP8 ADD SLOAD SWAP7 PUSH1 0xC0 DUP13 ADD SWAP8 DUP9 MSTORE ADD SLOAD AND SWAP6 PUSH1 0xE0 DUP11 ADD SWAP7 ISZERO ISZERO DUP8 MSTORE PUSH1 0x40 MLOAD SWAP11 DUP12 SWAP11 DUP2 DUP13 MSTORE MLOAD SWAP1 DUP12 ADD MSTORE MLOAD SWAP7 PUSH2 0x26C9 PUSH2 0x100 SWAP9 DUP10 PUSH1 0x40 DUP14 ADD MSTORE PUSH2 0x120 DUP13 ADD SWAP1 PUSH2 0x36A8 JUMP JUMPDEST SWAP9 MLOAD PUSH1 0x60 DUP12 ADD MSTORE MLOAD AND PUSH1 0x80 DUP10 ADD MSTORE MLOAD ISZERO ISZERO PUSH1 0xA0 DUP9 ADD MSTORE MLOAD AND PUSH1 0xC0 DUP7 ADD MSTORE MLOAD PUSH1 0xE0 DUP6 ADD MSTORE MLOAD ISZERO ISZERO SWAP1 DUP4 ADD MSTORE SUB SWAP1 RETURN JUMPDEST CALLVALUE PUSH2 0x5FB JUMPI PUSH1 0x0 CALLDATASIZE PUSH1 0x3 NOT ADD SLT PUSH2 0x5FB JUMPI PUSH1 0x20 PUSH1 0xFF PUSH1 0xD SLOAD AND PUSH1 0x40 MLOAD SWAP1 DUP2 MSTORE RETURN JUMPDEST CALLVALUE PUSH2 0x5FB JUMPI PUSH2 0x140 CALLDATASIZE PUSH1 0x3 NOT ADD SLT PUSH2 0x5FB JUMPI PUSH1 0x24 CALLDATALOAD PUSH1 0x1 PUSH1 0x1 PUSH1 0x40 SHL SUB DUP2 GT PUSH2 0x5FB JUMPI PUSH2 0x2749 SWAP1 CALLDATASIZE SWAP1 PUSH1 0x4 ADD PUSH2 0x3732 JUMP JUMPDEST PUSH1 0xC4 CALLDATALOAD PUSH1 0x1 PUSH1 0x1 PUSH1 0x40 SHL SUB DUP2 AND DUP2 SUB PUSH2 0x5FB JUMPI PUSH1 0xFF PUSH2 0x104 CALLDATALOAD AND PUSH2 0x104 CALLDATALOAD SUB PUSH2 0x5FB JUMPI PUSH1 0xFF PUSH2 0x124 CALLDATALOAD AND PUSH2 0x124 CALLDATALOAD SUB PUSH2 0x5FB JUMPI PUSH2 0x2784 PUSH2 0x3A5D JUMP JUMPDEST PUSH1 0x4 CALLDATALOAD PUSH1 0x0 MSTORE PUSH1 0x4 PUSH1 0x20 MSTORE PUSH1 0x1 DUP1 PUSH1 0xA0 SHL SUB PUSH1 0x1 PUSH1 0x40 PUSH1 0x0 KECCAK256 ADD SLOAD AND PUSH2 0x2C6B JUMPI PUSH1 0x64 CALLDATALOAD ISZERO PUSH2 0x2C31 JUMPI DUP2 ISZERO PUSH2 0x2BF5 JUMPI TIMESTAMP PUSH1 0x1 PUSH1 0x1 PUSH1 0x40 SHL SUB DUP3 AND GT ISZERO PUSH2 0x2BBD JUMPI PUSH2 0x104 CALLDATALOAD PUSH1 0xFF AND ISZERO PUSH2 0x2BB1 JUMPI PUSH2 0x104 CALLDATALOAD SWAP3 JUMPDEST PUSH2 0x124 CALLDATALOAD PUSH1 0xFF AND ISZERO PUSH2 0x2BA2 JUMPI PUSH2 0x124 CALLDATALOAD SWAP3 JUMPDEST PUSH1 0x3 SLOAD PUSH1 0x40 MLOAD PUSH4 0x23B872DD PUSH1 0xE0 SHL DUP2 MSTORE CALLER PUSH1 0x4 DUP3 ADD MSTORE ADDRESS PUSH1 0x24 DUP3 ADD MSTORE PUSH1 0x64 DUP1 CALLDATALOAD PUSH1 0x44 DUP4 ADD MSTORE SWAP1 SWAP2 PUSH1 0x20 SWAP2 DUP4 SWAP2 DUP3 SWAP1 PUSH1 0x0 SWAP1 PUSH1 0x1 PUSH1 0x1 PUSH1 0xA0 SHL SUB AND GAS CALL SWAP1 DUP2 ISZERO PUSH2 0x5EF JUMPI PUSH1 0x0 SWAP2 PUSH2 0x2B83 JUMPI JUMPDEST POP ISZERO PUSH2 0x2B45 JUMPI PUSH2 0x1B58 SWAP1 PUSH1 0x64 CALLDATALOAD DUP1 DUP4 MUL DIV DUP3 SUB PUSH2 0x69D JUMPI PUSH2 0x7D0 SWAP2 PUSH1 0x64 CALLDATALOAD DUP1 DUP5 MUL DIV DUP4 SUB PUSH2 0x69D JUMPI PUSH2 0x3E8 SWAP2 PUSH1 0x64 CALLDATALOAD DUP1 DUP5 MUL DIV DUP4 SUB PUSH2 0x69D JUMPI PUSH1 0x4 CALLDATALOAD PUSH1 0x0 MSTORE PUSH1 0x4 PUSH1 0x20 MSTORE PUSH1 0x40 PUSH1 0x0 KECCAK256 SWAP5 PUSH1 0x4 CALLDATALOAD DUP7 SSTORE PUSH1 0x1 DUP7 ADD CALLER PUSH12 0xFFFFFFFFFFFFFFFFFFFFFFFF PUSH1 0xA0 SHL DUP3 SLOAD AND OR SWAP1 SSTORE PUSH1 0x1 PUSH1 0x1 PUSH1 0x40 SHL SUB DUP3 GT PUSH2 0x1F99 JUMPI DUP2 SWAP1 PUSH2 0x28C6 DUP3 PUSH2 0x28BD PUSH1 0x2 DUP11 ADD SLOAD PUSH2 0x37C1 JUMP JUMPDEST PUSH1 0x2 DUP11 ADD PUSH2 0x39D4 JUMP JUMPDEST PUSH1 0x0 SWAP1 PUSH1 0x1F DUP4 GT PUSH1 0x1 EQ PUSH2 0x2AD4 JUMPI PUSH1 0x0 SWAP3 PUSH2 0x2AC9 JUMPI JUMPDEST POP POP DUP2 PUSH1 0x1 SHL SWAP2 PUSH1 0x0 NOT SWAP1 PUSH1 0x3 SHL SHR NOT AND OR PUSH1 0x2 DUP6 ADD SSTORE JUMPDEST PUSH1 0x44 CALLDATALOAD PUSH1 0x3 DUP6 ADD SSTORE PUSH1 0x64 CALLDATALOAD PUSH1 0x4 DUP6 ADD SSTORE PUSH2 0x2710 SWAP3 DUP4 DUP1 SWAP3 PUSH1 0x64 CALLDATALOAD MUL DIV PUSH1 0x5 DUP7 ADD SSTORE PUSH1 0x64 CALLDATALOAD MUL DIV PUSH1 0x6 DUP5 ADD SSTORE PUSH1 0x64 CALLDATALOAD MUL DIV PUSH1 0x7 DUP3 ADD SSTORE PUSH1 0x84 CALLDATALOAD PUSH1 0x8 DUP3 ADD SSTORE PUSH1 0xA4 CALLDATALOAD PUSH1 0x9 DUP3 ADD SSTORE PUSH1 0xA DUP2 ADD DUP1 SLOAD PUSH1 0x1 PUSH1 0x1 PUSH1 0x40 SHL SUB DUP5 AND PUSH1 0x1 PUSH1 0x1 PUSH1 0x40 SHL SUB NOT DUP3 AND OR DUP3 SSTORE PUSH1 0x1 PUSH1 0x1 PUSH1 0x40 SHL SUB PUSH1 0xD SLOAD PUSH1 0x50 SHR AND PUSH1 0x1 PUSH1 0x1 PUSH1 0x40 SHL SUB DUP6 AND ADD SWAP1 PUSH1 0x1 PUSH1 0x1 PUSH1 0x40 SHL SUB DUP3 GT PUSH2 0x69D JUMPI TIMESTAMP PUSH1 0x80 SHL PUSH8 0xFFFFFFFFFFFFFFFF PUSH1 0x80 SHL AND PUSH1 0x40 SWAP3 SWAP1 SWAP3 SHL PUSH16 0xFFFFFFFFFFFFFFFF0000000000000000 AND PUSH1 0x1 PUSH1 0x1 PUSH1 0xC8 SHL SUB NOT SWAP1 SWAP2 AND PUSH1 0x1 PUSH1 0x1 PUSH1 0x40 SHL SUB DUP7 AND OR OR OR PUSH1 0x1 PUSH1 0xC0 SHL OR PUSH2 0xFFFF PUSH1 0xC8 SHL NOT AND PUSH1 0xC8 DUP7 SWAP1 SHL PUSH1 0xFF PUSH1 0xC8 SHL AND OR PUSH1 0xD0 DUP6 SWAP1 SHL PUSH1 0xFF PUSH1 0xD0 SHL AND OR SWAP1 SSTORE PUSH1 0xE4 CALLDATALOAD PUSH1 0xD SWAP2 SWAP1 SWAP2 ADD SSTORE PUSH1 0x7 SLOAD PUSH1 0x1 PUSH1 0x40 SHL DUP2 LT ISZERO PUSH2 0x1F99 JUMPI PUSH1 0x1 DUP2 ADD DUP1 PUSH1 0x7 SSTORE DUP2 LT ISZERO PUSH2 0x2AB3 JUMPI PUSH1 0x1 PUSH1 0x1 PUSH1 0x40 SHL SUB SWAP3 PUSH1 0xFF SWAP2 PUSH1 0x4 CALLDATALOAD SWAP1 PUSH32 0xA66CC928B5EDB82AF9BD49922954155AB7B0942694BEA4CE44661D9A8736C688 ADD SSTORE CALLER PUSH1 0x0 MSTORE PUSH1 0x8 PUSH1 0x20 MSTORE PUSH2 0x2A5E PUSH1 0x4 CALLDATALOAD PUSH1 0x40 PUSH1 0x0 KECCAK256 PUSH2 0x3A28 JUMP JUMPDEST DUP2 PUSH1 0x40 MLOAD SWAP6 PUSH1 0x64 CALLDATALOAD DUP8 MSTORE AND PUSH1 0x20 DUP7 ADD MSTORE AND PUSH1 0x40 DUP5 ADD MSTORE AND PUSH1 0x60 DUP3 ADD MSTORE CALLER SWAP1 PUSH32 0x87DF2CF870A705B4A4EB0667BD97C69D66C5FBE40206017B43F088DC5D01B346 PUSH1 0x80 PUSH1 0x4 CALLDATALOAD SWAP3 LOG3 PUSH1 0x1 DUP1 SSTORE PUSH1 0x20 PUSH1 0x40 MLOAD PUSH1 0x1 DUP2 MSTORE RETURN JUMPDEST PUSH4 0x4E487B71 PUSH1 0xE0 SHL PUSH1 0x0 MSTORE PUSH1 0x32 PUSH1 0x4 MSTORE PUSH1 0x24 PUSH1 0x0 REVERT JUMPDEST ADD CALLDATALOAD SWAP1 POP DUP10 DUP1 PUSH2 0x28DC JUMP JUMPDEST SWAP1 SWAP3 POP PUSH1 0x2 DUP8 ADD PUSH1 0x0 MSTORE PUSH1 0x20 PUSH1 0x0 KECCAK256 SWAP1 PUSH1 0x0 SWAP4 JUMPDEST PUSH1 0x1F NOT DUP5 AND DUP6 LT PUSH2 0x2B2D JUMPI PUSH1 0x1 SWAP5 POP DUP4 PUSH1 0x1F NOT DUP2 AND LT PUSH2 0x2B13 JUMPI JUMPDEST POP POP POP DUP2 SHL ADD PUSH1 0x2 DUP6 ADD SSTORE PUSH2 0x28F4 JUMP JUMPDEST ADD CALLDATALOAD PUSH1 0x0 NOT PUSH1 0x3 DUP5 SWAP1 SHL PUSH1 0xF8 AND SHR NOT AND SWAP1 SSTORE DUP10 DUP1 DUP1 PUSH2 0x2B03 JUMP JUMPDEST DUP2 DUP2 ADD CALLDATALOAD DUP4 SSTORE PUSH1 0x20 SWAP5 DUP6 ADD SWAP5 PUSH1 0x1 SWAP1 SWAP4 ADD SWAP3 ADD PUSH2 0x2AE8 JUMP JUMPDEST PUSH1 0x40 MLOAD PUSH3 0x461BCD PUSH1 0xE5 SHL DUP2 MSTORE PUSH1 0x20 PUSH1 0x4 DUP3 ADD MSTORE PUSH1 0x16 PUSH1 0x24 DUP3 ADD MSTORE PUSH22 0x109D5919D95D081D1C985B9CD9995C8819985A5B1959 PUSH1 0x52 SHL PUSH1 0x44 DUP3 ADD MSTORE PUSH1 0x64 SWAP1 REVERT JUMPDEST PUSH2 0x2B9C SWAP2 POP PUSH1 0x20 RETURNDATASIZE PUSH1 0x20 GT PUSH2 0x665 JUMPI PUSH2 0x657 DUP2 DUP4 PUSH2 0x3846 JUMP JUMPDEST DUP7 PUSH2 0x2832 JUMP JUMPDEST PUSH1 0xFF PUSH1 0xD SLOAD PUSH1 0x8 SHR AND SWAP3 PUSH2 0x27E7 JUMP JUMPDEST PUSH1 0xFF PUSH1 0xD SLOAD AND SWAP3 PUSH2 0x27D5 JUMP JUMPDEST PUSH1 0x40 MLOAD PUSH3 0x461BCD PUSH1 0xE5 SHL DUP2 MSTORE PUSH1 0x20 PUSH1 0x4 DUP3 ADD MSTORE PUSH1 0x10 PUSH1 0x24 DUP3 ADD MSTORE PUSH16 0x111958591B1A5B99481A5B881C185CDD PUSH1 0x82 SHL PUSH1 0x44 DUP3 ADD MSTORE PUSH1 0x64 SWAP1 REVERT JUMPDEST PUSH1 0x40 MLOAD PUSH3 0x461BCD PUSH1 0xE5 SHL DUP2 MSTORE PUSH1 0x20 PUSH1 0x4 DUP3 ADD MSTORE PUSH1 0x14 PUSH1 0x24 DUP3 ADD MSTORE PUSH20 0x11195CD8DC9A5C1D1A5BDB881C995C5D5A5C9959 PUSH1 0x62 SHL PUSH1 0x44 DUP3 ADD MSTORE PUSH1 0x64 SWAP1 REVERT JUMPDEST PUSH1 0x40 MLOAD PUSH3 0x461BCD PUSH1 0xE5 SHL DUP2 MSTORE PUSH1 0x20 PUSH1 0x4 DUP3 ADD MSTORE PUSH1 0x12 PUSH1 0x24 DUP3 ADD MSTORE PUSH18 0x427564676574206D757374206265203E203 PUSH1 0x74 SHL PUSH1 0x44 DUP3 ADD MSTORE PUSH1 0x64 SWAP1 REVERT JUMPDEST PUSH1 0x40 MLOAD PUSH3 0x461BCD PUSH1 0xE5 SHL DUP2 MSTORE PUSH1 0x20 PUSH1 0x4 DUP3 ADD MSTORE PUSH1 0x13 PUSH1 0x24 DUP3 ADD MSTORE PUSH19 0x5461736B20616C726561647920657869737473 PUSH1 0x68 SHL PUSH1 0x44 DUP3 ADD MSTORE PUSH1 0x64 SWAP1 REVERT JUMPDEST CALLVALUE PUSH2 0x5FB JUMPI PUSH1 0x0 CALLDATASIZE PUSH1 0x3 NOT ADD SLT PUSH2 0x5FB JUMPI PUSH1 0x20 PUSH1 0x40 MLOAD PUSH2 0x3E8 DUP2 MSTORE RETURN JUMPDEST CALLVALUE PUSH2 0x5FB JUMPI PUSH1 0x0 CALLDATASIZE PUSH1 0x3 NOT ADD SLT PUSH2 0x5FB JUMPI PUSH1 0x3 SLOAD PUSH1 0x40 MLOAD PUSH1 0x1 PUSH1 0x1 PUSH1 0xA0 SHL SUB SWAP1 SWAP2 AND DUP2 MSTORE PUSH1 0x20 SWAP1 RETURN JUMPDEST CALLVALUE PUSH2 0x5FB JUMPI PUSH1 0x40 CALLDATASIZE PUSH1 0x3 NOT ADD SLT PUSH2 0x5FB JUMPI PUSH2 0x2D05 PUSH2 0x3641 JUMP JUMPDEST PUSH1 0x1 PUSH1 0x1 PUSH1 0xA0 SHL SUB AND PUSH1 0x0 SWAP1 DUP2 MSTORE PUSH1 0x9 PUSH1 0x20 MSTORE PUSH1 0x40 SWAP1 KECCAK256 DUP1 SLOAD PUSH1 0x24 CALLDATALOAD SWAP2 SWAP1 DUP3 LT ISZERO PUSH2 0x5FB JUMPI PUSH1 0x20 SWAP2 PUSH2 0xEEB SWAP2 PUSH2 0x3774 JUMP JUMPDEST CALLVALUE PUSH2 0x5FB JUMPI PUSH1 0xC0 CALLDATASIZE PUSH1 0x3 NOT ADD SLT PUSH2 0x5FB JUMPI PUSH2 0x2D4F PUSH2 0x3657 JUMP JUMPDEST PUSH1 0x44 DUP1 CALLDATALOAD SWAP2 PUSH1 0xFF DUP4 AND DUP4 SUB PUSH2 0x5FB JUMPI PUSH1 0x64 DUP1 CALLDATALOAD SWAP1 PUSH1 0xFF DUP3 AND DUP3 SUB PUSH2 0x5FB JUMPI PUSH1 0xA4 CALLDATALOAD PUSH1 0x1 PUSH1 0x1 PUSH1 0x40 SHL SUB DUP2 GT PUSH2 0x5FB JUMPI PUSH2 0x2D8C SWAP1 CALLDATASIZE SWAP1 PUSH1 0x4 ADD PUSH2 0x3732 JUMP JUMPDEST SWAP2 PUSH1 0x0 SWAP6 PUSH1 0x0 JUMPDEST PUSH1 0x4 CALLDATALOAD PUSH1 0x0 MSTORE PUSH1 0x4 PUSH1 0x20 MSTORE PUSH1 0xC PUSH1 0x40 PUSH1 0x0 KECCAK256 ADD DUP1 SLOAD DUP3 LT ISZERO PUSH2 0x32BC JUMPI DUP2 PUSH2 0x2DB9 SWAP2 PUSH2 0x3774 JUMP JUMPDEST SWAP1 SLOAD PUSH1 0x3 SWAP2 SWAP1 SWAP2 SHL SHR PUSH1 0x1 PUSH1 0x1 PUSH1 0xA0 SHL SUB AND CALLER EQ PUSH2 0x2DDF JUMPI PUSH2 0x2DDA SWAP1 PUSH2 0x3AF8 JUMP JUMPDEST PUSH2 0x2D93 JUMP JUMPDEST POP SWAP1 SWAP2 SWAP3 SWAP4 SWAP5 SWAP6 POP PUSH1 0x1 JUMPDEST ISZERO PUSH2 0x3282 JUMPI PUSH2 0x2DF7 PUSH2 0x3A5D JUMP JUMPDEST PUSH1 0x4 CALLDATALOAD PUSH1 0x0 MSTORE PUSH1 0x4 PUSH1 0x20 MSTORE PUSH1 0xA PUSH1 0x40 PUSH1 0x0 KECCAK256 ADD SLOAD PUSH1 0xFF DUP2 PUSH1 0xC0 SHR AND PUSH1 0x6 DUP2 LT ISZERO PUSH2 0xDFD JUMPI PUSH1 0x2 SUB PUSH2 0x3247 JUMPI PUSH1 0x40 SHR PUSH1 0x1 PUSH1 0x1 PUSH1 0x40 SHL SUB AND TIMESTAMP GT PUSH2 0x3206 JUMPI PUSH1 0x1 PUSH1 0x1 PUSH1 0xA0 SHL SUB DUP7 AND CALLER EQ PUSH2 0x31CE JUMPI DUP2 PUSH1 0xFF DUP9 AND GT PUSH2 0x319F JUMPI DUP2 PUSH1 0xFF DUP7 AND GT PUSH2 0x316B JUMPI PUSH1 0x4 CALLDATALOAD PUSH1 0x0 MSTORE PUSH1 0x5 PUSH1 0x20 MSTORE PUSH1 0x40 PUSH1 0x0 KECCAK256 PUSH1 0x1 DUP1 PUSH1 0xA0 SHL SUB DUP8 AND PUSH1 0x0 MSTORE PUSH1 0x20 MSTORE PUSH1 0xFF PUSH1 0x3 PUSH1 0x40 PUSH1 0x0 KECCAK256 ADD SLOAD PUSH1 0x40 SHR AND ISZERO PUSH2 0x3133 JUMPI PUSH1 0x4 CALLDATALOAD PUSH1 0x0 MSTORE PUSH1 0x6 PUSH1 0x20 MSTORE PUSH1 0x40 PUSH1 0x0 KECCAK256 CALLER PUSH1 0x0 MSTORE PUSH1 0x20 MSTORE PUSH1 0x40 PUSH1 0x0 KECCAK256 PUSH1 0x1 DUP1 PUSH1 0xA0 SHL SUB DUP8 AND PUSH1 0x0 MSTORE PUSH1 0x20 MSTORE PUSH1 0xFF PUSH1 0x3 PUSH1 0x40 PUSH1 0x0 KECCAK256 ADD SLOAD PUSH1 0x40 SHR AND PUSH2 0x30FE JUMPI POP POP PUSH2 0x2EFA SWAP1 PUSH1 0x40 MLOAD SWAP3 PUSH2 0x2EDC DUP5 PUSH2 0x3817 JUMP JUMPDEST PUSH1 0xFF DUP8 AND DUP5 MSTORE PUSH1 0xFF DUP6 AND PUSH1 0x20 DUP6 ADD MSTORE PUSH1 0x84 CALLDATALOAD PUSH1 0x40 DUP6 ADD MSTORE CALLDATASIZE SWAP2 PUSH2 0x3B66 JUMP JUMPDEST PUSH1 0x60 DUP3 ADD MSTORE PUSH1 0x1 PUSH1 0x1 PUSH1 0x40 SHL SUB TIMESTAMP AND PUSH1 0x80 DUP3 ADD MSTORE PUSH1 0x1 PUSH1 0xA0 DUP3 ADD MSTORE PUSH1 0x0 PUSH1 0xC0 DUP3 ADD MSTORE PUSH1 0x0 PUSH1 0xE0 DUP3 ADD MSTORE PUSH1 0x4 CALLDATALOAD PUSH1 0x0 MSTORE PUSH1 0x6 PUSH1 0x20 MSTORE PUSH1 0x40 PUSH1 0x0 KECCAK256 CALLER PUSH1 0x0 MSTORE PUSH1 0x20 MSTORE PUSH1 0x40 PUSH1 0x0 KECCAK256 PUSH1 0x1 DUP1 PUSH1 0xA0 SHL SUB DUP5 AND PUSH1 0x0 MSTORE PUSH1 0x20 MSTORE PUSH1 0x40 PUSH1 0x0 KECCAK256 SWAP1 PUSH1 0xFF DUP2 MLOAD AND DUP3 SLOAD SWAP1 PUSH2 0xFF00 PUSH1 0x20 DUP5 ADD MLOAD PUSH1 0x8 SHL AND SWAP2 PUSH2 0xFFFF NOT AND OR OR DUP3 SSTORE PUSH1 0x40 DUP2 ADD MLOAD PUSH1 0x1 DUP4 ADD SSTORE PUSH1 0x60 DUP2 ADD MLOAD DUP1 MLOAD SWAP1 PUSH1 0x1 PUSH1 0x1 PUSH1 0x40 SHL SUB DUP3 GT PUSH2 0x1F99 JUMPI PUSH2 0x2FAC DUP3 PUSH2 0x2FA3 PUSH1 0x2 DUP8 ADD SLOAD PUSH2 0x37C1 JUMP JUMPDEST PUSH1 0x2 DUP8 ADD PUSH2 0x39D4 JUMP JUMPDEST PUSH1 0x20 SWAP1 PUSH1 0x1F DUP4 GT PUSH1 0x1 EQ PUSH2 0x3082 JUMPI PUSH2 0x3030 SWAP4 DUP4 PUSH1 0xFF SWAP8 SWAP7 SWAP5 PUSH1 0x5 SWAP5 PUSH1 0xE0 SWAP5 PUSH1 0x0 SWAP3 PUSH2 0x3077 JUMPI JUMPDEST POP POP DUP2 PUSH1 0x1 SHL SWAP2 PUSH1 0x0 NOT SWAP1 PUSH1 0x3 SHL SHR NOT AND OR PUSH1 0x2 DUP6 ADD SSTORE JUMPDEST PUSH2 0x1E19 PUSH1 0x3 DUP6 ADD PUSH1 0x1 PUSH1 0x1 PUSH1 0x40 SHL SUB PUSH1 0x80 DUP5 ADD MLOAD AND PUSH1 0x1 PUSH1 0x1 PUSH1 0x40 SHL SUB NOT DUP3 SLOAD AND OR DUP2 SSTORE PUSH1 0xA0 DUP4 ADD MLOAD ISZERO ISZERO PUSH1 0xFF PUSH1 0x40 SHL DUP3 SLOAD SWAP2 ISZERO ISZERO PUSH1 0x40 SHL AND SWAP1 PUSH1 0xFF PUSH1 0x40 SHL NOT AND OR SWAP1 SSTORE JUMP JUMPDEST DUP2 PUSH1 0x40 MLOAD SWAP5 AND DUP5 MSTORE AND PUSH1 0x20 DUP4 ADD MSTORE PUSH1 0x1 DUP1 PUSH1 0xA0 SHL SUB AND SWAP1 CALLER SWAP1 PUSH32 0xC99CBFF1E24F7A40A9537CD67984173BF0591ABAA195CB66314D944E1A9E9185 PUSH1 0x40 PUSH1 0x4 CALLDATALOAD SWAP3 LOG4 PUSH1 0x1 DUP1 SSTORE STOP JUMPDEST ADD MLOAD SWAP1 POP DUP12 DUP1 PUSH2 0x2FD2 JUMP JUMPDEST SWAP1 PUSH1 0x2 DUP6 ADD PUSH1 0x0 MSTORE PUSH1 0x20 PUSH1 0x0 KECCAK256 SWAP2 PUSH1 0x0 JUMPDEST PUSH1 0x1F NOT DUP6 AND DUP2 LT PUSH2 0x30E6 JUMPI POP SWAP4 PUSH1 0x1 DUP5 PUSH1 0x5 SWAP5 PUSH1 0xE0 SWAP5 PUSH2 0x3030 SWAP9 PUSH1 0xFF SWAP12 SWAP11 SWAP9 PUSH1 0x1F NOT DUP2 AND LT PUSH2 0x30CD JUMPI JUMPDEST POP POP POP DUP2 SHL ADD PUSH1 0x2 DUP6 ADD SSTORE PUSH2 0x2FEA JUMP JUMPDEST ADD MLOAD PUSH1 0x0 NOT PUSH1 0xF8 DUP5 PUSH1 0x3 SHL AND SHR NOT AND SWAP1 SSTORE DUP12 DUP1 DUP1 PUSH2 0x30BD JUMP JUMPDEST SWAP2 SWAP3 PUSH1 0x20 PUSH1 0x1 DUP2 SWAP3 DUP7 DUP6 ADD MLOAD DUP2 SSTORE ADD SWAP5 ADD SWAP3 ADD PUSH2 0x3093 JUMP JUMPDEST PUSH17 0x105B1C9958591E48195D985B1D585D1959 PUSH1 0x7A SHL PUSH1 0x40 MLOAD SWAP2 PUSH3 0x461BCD PUSH1 0xE5 SHL DUP4 MSTORE PUSH1 0x20 PUSH1 0x4 DUP5 ADD MSTORE PUSH1 0x11 PUSH1 0x24 DUP5 ADD MSTORE DUP3 ADD MSTORE REVERT JUMPDEST PUSH20 0x15DBDC9AD95C881B9BDD081CDD589B5A5D1D1959 PUSH1 0x62 SHL PUSH1 0x40 MLOAD SWAP2 PUSH3 0x461BCD PUSH1 0xE5 SHL DUP4 MSTORE PUSH1 0x20 PUSH1 0x4 DUP5 ADD MSTORE PUSH1 0x14 PUSH1 0x24 DUP5 ADD MSTORE DUP3 ADD MSTORE REVERT JUMPDEST PUSH16 0x436F6E666964656E636520302D31303 PUSH1 0x84 SHL PUSH1 0x40 MLOAD SWAP2 PUSH3 0x461BCD PUSH1 0xE5 SHL DUP4 MSTORE PUSH1 0x20 PUSH1 0x4 DUP5 ADD MSTORE PUSH1 0x10 PUSH1 0x24 DUP5 ADD MSTORE DUP3 ADD MSTORE REVERT JUMPDEST PUSH11 0x53636F726520302D31303 PUSH1 0xAC SHL PUSH1 0x40 MLOAD SWAP2 PUSH3 0x461BCD PUSH1 0xE5 SHL DUP4 MSTORE PUSH1 0x20 PUSH1 0x4 DUP5 ADD MSTORE PUSH1 0xB PUSH1 0x24 DUP5 ADD MSTORE DUP3 ADD MSTORE REVERT JUMPDEST PUSH20 0x21B0B73737BA1032BB30B63AB0BA329039B2B633 PUSH1 0x61 SHL PUSH1 0x40 MLOAD SWAP2 PUSH3 0x461BCD PUSH1 0xE5 SHL DUP4 MSTORE PUSH1 0x20 PUSH1 0x4 DUP5 ADD MSTORE PUSH1 0x14 PUSH1 0x24 DUP5 ADD MSTORE DUP3 ADD MSTORE REVERT JUMPDEST PUSH32 0x4576616C756174696F6E20646561646C696E6520706173736564000000000000 PUSH1 0x40 MLOAD SWAP2 PUSH3 0x461BCD PUSH1 0xE5 SHL DUP4 MSTORE PUSH1 0x20 PUSH1 0x4 DUP5 ADD MSTORE PUSH1 0x1A PUSH1 0x24 DUP5 ADD MSTORE DUP3 ADD MSTORE REVERT JUMPDEST POP PUSH22 0x2A30B9B5903737BA1034B71032BB30B63AB0BA34B7B7 PUSH1 0x51 SHL PUSH1 0x40 MLOAD SWAP2 PUSH3 0x461BCD PUSH1 0xE5 SHL DUP4 MSTORE PUSH1 0x20 PUSH1 0x4 DUP5 ADD MSTORE PUSH1 0x16 PUSH1 0x24 DUP5 ADD MSTORE DUP3 ADD MSTORE REVERT JUMPDEST PUSH22 0x2737BA1030B9B9B4B3B732B21032BB30B63AB0BA37B9 PUSH1 0x51 SHL PUSH1 0x40 MLOAD SWAP2 PUSH3 0x461BCD PUSH1 0xE5 SHL DUP4 MSTORE PUSH1 0x20 PUSH1 0x4 DUP5 ADD MSTORE PUSH1 0x16 PUSH1 0x24 DUP5 ADD MSTORE DUP3 ADD MSTORE REVERT JUMPDEST POP POP SWAP1 SWAP2 SWAP3 SWAP4 SWAP5 SWAP6 PUSH2 0x2DEA JUMP JUMPDEST CALLVALUE PUSH2 0x5FB JUMPI PUSH1 0x20 CALLDATASIZE PUSH1 0x3 NOT ADD SLT PUSH2 0x5FB JUMPI PUSH1 0x0 PUSH2 0x240 PUSH1 0x40 MLOAD PUSH2 0x32EB DUP2 PUSH2 0x37FB JUMP JUMPDEST DUP3 DUP2 MSTORE DUP3 PUSH1 0x20 DUP3 ADD MSTORE PUSH1 0x60 PUSH1 0x40 DUP3 ADD MSTORE DUP3 PUSH1 0x60 DUP3 ADD MSTORE DUP3 PUSH1 0x80 DUP3 ADD MSTORE DUP3 PUSH1 0xA0 DUP3 ADD MSTORE DUP3 PUSH1 0xC0 DUP3 ADD MSTORE DUP3 PUSH1 0xE0 DUP3 ADD MSTORE DUP3 PUSH2 0x100 DUP3 ADD MSTORE DUP3 PUSH2 0x120 DUP3 ADD MSTORE DUP3 PUSH2 0x140 DUP3 ADD MSTORE DUP3 PUSH2 0x160 DUP3 ADD MSTORE DUP3 PUSH2 0x180 DUP3 ADD MSTORE DUP3 PUSH2 0x1A0 DUP3 ADD MSTORE DUP3 PUSH2 0x1C0 DUP3 ADD MSTORE DUP3 PUSH2 0x1E0 DUP3 ADD MSTORE PUSH1 0x60 PUSH2 0x200 DUP3 ADD MSTORE PUSH1 0x60 PUSH2 0x220 DUP3 ADD MSTORE ADD MSTORE PUSH1 0x4 CALLDATALOAD PUSH1 0x0 MSTORE PUSH1 0x4 PUSH1 0x20 MSTORE PUSH1 0x40 PUSH1 0x0 KECCAK256 PUSH1 0x40 MLOAD SWAP1 PUSH2 0x3380 DUP3 PUSH2 0x37FB JUMP JUMPDEST DUP1 SLOAD DUP3 MSTORE PUSH1 0x1 DUP2 ADD SLOAD PUSH1 0x1 PUSH1 0x1 PUSH1 0xA0 SHL SUB AND PUSH1 0x20 DUP4 ADD MSTORE PUSH2 0x33A3 PUSH1 0x2 DUP3 ADD PUSH2 0x3867 JUMP JUMPDEST PUSH1 0x40 DUP4 ADD MSTORE PUSH1 0x3 DUP2 ADD SLOAD PUSH1 0x60 DUP4 ADD MSTORE PUSH1 0x4 DUP2 ADD SLOAD PUSH1 0x80 DUP4 ADD MSTORE PUSH1 0x5 DUP2 ADD SLOAD PUSH1 0xA0 DUP4 ADD MSTORE PUSH1 0x6 DUP2 ADD SLOAD PUSH1 0xC0 DUP4 ADD MSTORE PUSH1 0x7 DUP2 ADD SLOAD PUSH1 0xE0 DUP4 ADD MSTORE PUSH1 0x8 DUP2 ADD SLOAD PUSH2 0x100 DUP4 ADD MSTORE PUSH1 0x9 DUP2 ADD SLOAD PUSH2 0x120 DUP4 ADD MSTORE PUSH1 0xA DUP2 ADD SLOAD SWAP1 PUSH1 0x1 PUSH1 0x1 PUSH1 0x40 SHL SUB DUP3 AND PUSH2 0x140 DUP5 ADD MSTORE PUSH1 0x1 PUSH1 0x1 PUSH1 0x40 SHL SUB DUP3 PUSH1 0x40 SHR AND PUSH2 0x160 DUP5 ADD MSTORE PUSH1 0x1 PUSH1 0x1 PUSH1 0x40 SHL SUB DUP3 PUSH1 0x80 SHR AND PUSH2 0x180 DUP5 ADD MSTORE PUSH1 0x6 PUSH1 0xFF DUP4 PUSH1 0xC0 SHR AND LT ISZERO PUSH2 0xDFD JUMPI PUSH1 0xFF DUP3 DUP2 PUSH1 0xD SWAP5 PUSH1 0xC0 SHR AND PUSH2 0x1A0 DUP7 ADD MSTORE DUP2 DUP2 PUSH1 0xC8 SHR AND PUSH2 0x1C0 DUP7 ADD MSTORE PUSH1 0xD0 SHR AND PUSH2 0x1E0 DUP5 ADD MSTORE PUSH2 0x346E PUSH1 0xB DUP3 ADD PUSH2 0x3BC7 JUMP JUMPDEST PUSH2 0x200 DUP5 ADD MSTORE PUSH2 0x3480 PUSH1 0xC DUP3 ADD PUSH2 0x3BC7 JUMP JUMPDEST PUSH2 0x220 DUP5 ADD MSTORE ADD SLOAD PUSH2 0x240 DUP3 ADD MSTORE PUSH1 0x40 MLOAD DUP1 SWAP2 PUSH1 0x20 DUP3 MSTORE DUP1 MLOAD PUSH1 0x20 DUP4 ADD MSTORE PUSH1 0x1 DUP1 PUSH1 0xA0 SHL SUB PUSH1 0x20 DUP3 ADD MLOAD AND PUSH1 0x40 DUP4 ADD MSTORE PUSH2 0x240 PUSH2 0x35C0 PUSH2 0x34D1 PUSH1 0x40 DUP5 ADD MLOAD PUSH2 0x260 PUSH1 0x60 DUP8 ADD MSTORE PUSH2 0x280 DUP7 ADD SWAP1 PUSH2 0x36A8 JUMP JUMPDEST PUSH1 0x60 DUP5 ADD MLOAD PUSH1 0x80 DUP7 ADD MSTORE PUSH1 0x80 DUP5 ADD MLOAD PUSH1 0xA0 DUP7 ADD MSTORE PUSH1 0xA0 DUP5 ADD MLOAD PUSH1 0xC0 DUP7 ADD MSTORE PUSH1 0xC0 DUP5 ADD MLOAD PUSH1 0xE0 DUP7 ADD MSTORE PUSH1 0xE0 DUP5 ADD MLOAD PUSH2 0x100 DUP7 ADD MSTORE PUSH2 0x100 DUP5 ADD MLOAD PUSH2 0x120 DUP7 ADD MSTORE PUSH2 0x120 DUP5 ADD MLOAD PUSH2 0x140 DUP7 ADD MSTORE PUSH1 0x1 PUSH1 0x1 PUSH1 0x40 SHL SUB PUSH2 0x140 DUP6 ADD MLOAD AND PUSH2 0x160 DUP7 ADD MSTORE PUSH1 0x1 PUSH1 0x1 PUSH1 0x40 SHL SUB PUSH2 0x160 DUP6 ADD MLOAD AND PUSH2 0x180 DUP7 ADD MSTORE PUSH1 0x1 PUSH1 0x1 PUSH1 0x40 SHL SUB PUSH2 0x180 DUP6 ADD MLOAD AND PUSH2 0x1A0 DUP7 ADD MSTORE PUSH2 0x356F PUSH2 0x1A0 DUP6 ADD MLOAD PUSH2 0x1C0 DUP8 ADD SWAP1 PUSH2 0x36E8 JUMP JUMPDEST PUSH1 0xFF PUSH2 0x1C0 DUP6 ADD MLOAD AND PUSH2 0x1E0 DUP7 ADD MSTORE PUSH1 0xFF PUSH2 0x1E0 DUP6 ADD MLOAD AND PUSH2 0x200 DUP7 ADD MSTORE PUSH2 0x35AB PUSH2 0x200 DUP6 ADD MLOAD SWAP2 PUSH1 0x1F NOT SWAP3 DUP4 DUP9 DUP4 SUB ADD PUSH2 0x220 DUP10 ADD MSTORE PUSH2 0x36F5 JUMP JUMPDEST SWAP1 PUSH2 0x220 DUP6 ADD MLOAD SWAP1 DUP7 DUP4 SUB ADD DUP5 DUP8 ADD MSTORE PUSH2 0x36F5 JUMP JUMPDEST SWAP2 ADD MLOAD PUSH2 0x260 DUP4 ADD MSTORE SUB SWAP1 RETURN JUMPDEST CALLVALUE PUSH2 0x5FB JUMPI PUSH1 0x20 SWAP1 DUP2 PUSH1 0x3 NOT CALLDATASIZE ADD SLT PUSH2 0x5FB JUMPI PUSH1 0x1 PUSH1 0x1 PUSH1 0xA0 SHL SUB PUSH2 0x35F0 PUSH2 0x3641 JUMP JUMPDEST AND PUSH1 0x0 MSTORE PUSH1 0x8 DUP3 MSTORE PUSH1 0x40 PUSH1 0x0 KECCAK256 SWAP2 DUP3 SLOAD DUP1 DUP4 MSTORE DUP2 DUP4 ADD SWAP4 PUSH1 0x0 MSTORE DUP2 PUSH1 0x0 KECCAK256 SWAP2 PUSH1 0x0 SWAP1 JUMPDEST DUP3 DUP3 LT PUSH2 0x362A JUMPI PUSH2 0x1A4F DUP6 PUSH2 0x1A43 DUP2 DUP10 SUB DUP3 PUSH2 0x3846 JUMP JUMPDEST DUP4 SLOAD DUP7 MSTORE SWAP5 DUP6 ADD SWAP5 PUSH1 0x1 SWAP4 DUP5 ADD SWAP4 SWAP1 SWAP2 ADD SWAP1 PUSH2 0x3613 JUMP JUMPDEST PUSH1 0x4 CALLDATALOAD SWAP1 PUSH1 0x1 PUSH1 0x1 PUSH1 0xA0 SHL SUB DUP3 AND DUP3 SUB PUSH2 0x5FB JUMPI JUMP JUMPDEST PUSH1 0x24 CALLDATALOAD SWAP1 PUSH1 0x1 PUSH1 0x1 PUSH1 0xA0 SHL SUB DUP3 AND DUP3 SUB PUSH2 0x5FB JUMPI JUMP JUMPDEST PUSH1 0x20 SWAP1 DUP2 PUSH1 0x40 DUP2 DUP4 ADD SWAP3 DUP3 DUP2 MSTORE DUP6 MLOAD DUP1 SWAP5 MSTORE ADD SWAP4 ADD SWAP2 PUSH1 0x0 JUMPDEST DUP3 DUP2 LT PUSH2 0x3694 JUMPI POP POP POP POP SWAP1 JUMP JUMPDEST DUP4 MLOAD DUP6 MSTORE SWAP4 DUP2 ADD SWAP4 SWAP3 DUP2 ADD SWAP3 PUSH1 0x1 ADD PUSH2 0x3686 JUMP JUMPDEST SWAP2 SWAP1 DUP3 MLOAD SWAP3 DUP4 DUP3 MSTORE PUSH1 0x0 JUMPDEST DUP5 DUP2 LT PUSH2 0x36D4 JUMPI POP POP DUP3 PUSH1 0x0 PUSH1 0x20 DUP1 SWAP5 SWAP6 DUP5 ADD ADD MSTORE PUSH1 0x1F DUP1 NOT SWAP2 ADD AND ADD ADD SWAP1 JUMP JUMPDEST PUSH1 0x20 DUP2 DUP4 ADD DUP2 ADD MLOAD DUP5 DUP4 ADD DUP3 ADD MSTORE ADD PUSH2 0x36B3 JUMP JUMPDEST SWAP1 PUSH1 0x6 DUP3 LT ISZERO PUSH2 0xDFD JUMPI MSTORE JUMP JUMPDEST SWAP1 DUP2 MLOAD DUP1 DUP3 MSTORE PUSH1 0x20 DUP1 DUP1 SWAP4 ADD SWAP4 ADD SWAP2 PUSH1 0x0 JUMPDEST DUP3 DUP2 LT PUSH2 0x3715 JUMPI POP POP POP POP SWAP1 JUMP JUMPDEST DUP4 MLOAD PUSH1 0x1 PUSH1 0x1 PUSH1 0xA0 SHL SUB AND DUP6 MSTORE SWAP4 DUP2 ADD SWAP4 SWAP3 DUP2 ADD SWAP3 PUSH1 0x1 ADD PUSH2 0x3707 JUMP JUMPDEST SWAP2 DUP2 PUSH1 0x1F DUP5 ADD SLT ISZERO PUSH2 0x5FB JUMPI DUP3 CALLDATALOAD SWAP2 PUSH1 0x1 PUSH1 0x1 PUSH1 0x40 SHL SUB DUP4 GT PUSH2 0x5FB JUMPI PUSH1 0x20 DUP4 DUP2 DUP7 ADD SWAP6 ADD ADD GT PUSH2 0x5FB JUMPI JUMP JUMPDEST DUP1 SLOAD ISZERO PUSH2 0x2AB3 JUMPI PUSH1 0x0 MSTORE PUSH1 0x20 PUSH1 0x0 KECCAK256 SWAP1 PUSH1 0x0 SWAP1 JUMP JUMPDEST DUP1 SLOAD DUP3 LT ISZERO PUSH2 0x2AB3 JUMPI PUSH1 0x0 MSTORE PUSH1 0x20 PUSH1 0x0 KECCAK256 ADD SWAP1 PUSH1 0x0 SWAP1 JUMP JUMPDEST PUSH1 0x60 SWAP1 PUSH1 0x3 NOT ADD SLT PUSH2 0x5FB JUMPI PUSH1 0x4 CALLDATALOAD SWAP1 PUSH1 0x1 PUSH1 0x1 PUSH1 0xA0 SHL SUB SWAP1 PUSH1 0x24 CALLDATALOAD DUP3 DUP2 AND DUP2 SUB PUSH2 0x5FB JUMPI SWAP2 PUSH1 0x44 CALLDATALOAD SWAP1 DUP2 AND DUP2 SUB PUSH2 0x5FB JUMPI SWAP1 JUMP JUMPDEST SWAP1 PUSH1 0x1 DUP3 DUP2 SHR SWAP3 AND DUP1 ISZERO PUSH2 0x37F1 JUMPI JUMPDEST PUSH1 0x20 DUP4 LT EQ PUSH2 0x37DB JUMPI JUMP JUMPDEST PUSH4 0x4E487B71 PUSH1 0xE0 SHL PUSH1 0x0 MSTORE PUSH1 0x22 PUSH1 0x4 MSTORE PUSH1 0x24 PUSH1 0x0 REVERT JUMPDEST SWAP2 PUSH1 0x7F AND SWAP2 PUSH2 0x37D0 JUMP JUMPDEST PUSH2 0x260 DUP2 ADD SWAP1 DUP2 LT PUSH1 0x1 PUSH1 0x1 PUSH1 0x40 SHL SUB DUP3 GT OR PUSH2 0x1F99 JUMPI PUSH1 0x40 MSTORE JUMP JUMPDEST PUSH2 0x100 DUP2 ADD SWAP1 DUP2 LT PUSH1 0x1 PUSH1 0x1 PUSH1 0x40 SHL SUB DUP3 GT OR PUSH2 0x1F99 JUMPI PUSH1 0x40 MSTORE JUMP JUMPDEST PUSH1 0x1 PUSH1 0x1 PUSH1 0x40 SHL SUB DUP2 GT PUSH2 0x1F99 JUMPI PUSH1 0x40 MSTORE JUMP JUMPDEST SWAP1 PUSH1 0x1F DUP1 NOT SWAP2 ADD AND DUP2 ADD SWAP1 DUP2 LT PUSH1 0x1 PUSH1 0x1 PUSH1 0x40 SHL SUB DUP3 GT OR PUSH2 0x1F99 JUMPI PUSH1 0x40 MSTORE JUMP JUMPDEST SWAP1 PUSH1 0x40 MLOAD SWAP2 DUP3 PUSH1 0x0 DUP3 SLOAD SWAP3 PUSH2 0x387B DUP5 PUSH2 0x37C1 JUMP JUMPDEST SWAP1 DUP2 DUP5 MSTORE PUSH1 0x1 SWAP5 DUP6 DUP2 AND SWAP1 DUP2 PUSH1 0x0 EQ PUSH2 0x38EA JUMPI POP PUSH1 0x1 EQ PUSH2 0x38A7 JUMPI JUMPDEST POP POP PUSH2 0x38A5 SWAP3 POP SUB DUP4 PUSH2 0x3846 JUMP JUMPDEST JUMP JUMPDEST SWAP1 SWAP4 SWAP2 POP PUSH1 0x0 MSTORE PUSH1 0x20 SWAP1 DUP2 PUSH1 0x0 KECCAK256 SWAP4 PUSH1 0x0 SWAP2 JUMPDEST DUP2 DUP4 LT PUSH2 0x38D2 JUMPI POP POP PUSH2 0x38A5 SWAP4 POP DUP3 ADD ADD CODESIZE DUP1 PUSH2 0x3897 JUMP JUMPDEST DUP6 SLOAD DUP9 DUP5 ADD DUP6 ADD MSTORE SWAP5 DUP6 ADD SWAP5 DUP8 SWAP5 POP SWAP2 DUP4 ADD SWAP2 PUSH2 0x38BA JUMP JUMPDEST SWAP2 POP POP PUSH2 0x38A5 SWAP5 POP PUSH1 0x20 SWAP3 POP PUSH1 0xFF NOT AND DUP3 DUP5 ADD MSTORE ISZERO ISZERO PUSH1 0x5 SHL DUP3 ADD ADD CODESIZE DUP1 PUSH2 0x3897 JUMP JUMPDEST SWAP2 DUP2 PUSH1 0x1F DUP5 ADD SLT ISZERO PUSH2 0x5FB JUMPI DUP3 CALLDATALOAD SWAP2 PUSH1 0x1 PUSH1 0x1 PUSH1 0x40 SHL SUB DUP4 GT PUSH2 0x5FB JUMPI PUSH1 0x20 DUP1 DUP6 ADD SWAP5 DUP5 PUSH1 0x5 SHL ADD ADD GT PUSH2 0x5FB JUMPI JUMP JUMPDEST SWAP1 PUSH1 0x40 PUSH1 0x3 NOT DUP4 ADD SLT PUSH2 0x5FB JUMPI PUSH1 0x4 CALLDATALOAD SWAP2 PUSH1 0x24 CALLDATALOAD SWAP1 PUSH1 0x1 PUSH1 0x1 PUSH1 0x40 SHL SUB DUP3 GT PUSH2 0x5FB JUMPI PUSH2 0x396C SWAP2 PUSH1 0x4 ADD PUSH2 0x390D JUMP JUMPDEST SWAP1 SWAP2 JUMP JUMPDEST PUSH1 0x0 SLOAD PUSH1 0x1 PUSH1 0x1 PUSH1 0xA0 SHL SUB AND CALLER SUB PUSH2 0x3984 JUMPI JUMP JUMPDEST PUSH1 0x40 MLOAD PUSH4 0x118CDAA7 PUSH1 0xE0 SHL DUP2 MSTORE CALLER PUSH1 0x4 DUP3 ADD MSTORE PUSH1 0x24 SWAP1 REVERT JUMPDEST SWAP1 DUP2 PUSH1 0x20 SWAP2 SUB SLT PUSH2 0x5FB JUMPI MLOAD DUP1 ISZERO ISZERO DUP2 SUB PUSH2 0x5FB JUMPI SWAP1 JUMP JUMPDEST DUP2 ISZERO PUSH2 0x39BE JUMPI DIV SWAP1 JUMP JUMPDEST PUSH4 0x4E487B71 PUSH1 0xE0 SHL PUSH1 0x0 MSTORE PUSH1 0x12 PUSH1 0x4 MSTORE PUSH1 0x24 PUSH1 0x0 REVERT JUMPDEST SWAP1 PUSH1 0x1F DUP2 GT PUSH2 0x39E2 JUMPI POP POP POP JUMP JUMPDEST PUSH1 0x0 SWAP2 DUP3 MSTORE PUSH1 0x20 DUP3 KECCAK256 SWAP1 PUSH1 0x20 PUSH1 0x1F DUP6 ADD PUSH1 0x5 SHR DUP4 ADD SWAP5 LT PUSH2 0x3A1E JUMPI JUMPDEST PUSH1 0x1F ADD PUSH1 0x5 SHR ADD SWAP2 JUMPDEST DUP3 DUP2 LT PUSH2 0x3A13 JUMPI POP POP POP JUMP JUMPDEST DUP2 DUP2 SSTORE PUSH1 0x1 ADD PUSH2 0x3A07 JUMP JUMPDEST SWAP1 SWAP3 POP DUP3 SWAP1 PUSH2 0x39FE JUMP JUMPDEST DUP1 SLOAD PUSH1 0x1 PUSH1 0x40 SHL DUP2 LT ISZERO PUSH2 0x1F99 JUMPI PUSH2 0x3A45 SWAP2 PUSH1 0x1 DUP3 ADD DUP2 SSTORE PUSH2 0x3774 JUMP JUMPDEST DUP2 SWAP3 SWAP2 SLOAD SWAP1 PUSH1 0x3 SHL SWAP2 DUP3 SHL SWAP2 PUSH1 0x0 NOT SWAP1 SHL NOT AND OR SWAP1 SSTORE JUMP JUMPDEST PUSH1 0x2 PUSH1 0x1 SLOAD EQ PUSH2 0x3A6E JUMPI PUSH1 0x2 PUSH1 0x1 SSTORE JUMP JUMPDEST PUSH1 0x40 MLOAD PUSH4 0x3EE5AEB5 PUSH1 0xE0 SHL DUP2 MSTORE PUSH1 0x4 SWAP1 REVERT JUMPDEST ISZERO PUSH2 0x3A87 JUMPI JUMP JUMPDEST PUSH1 0x40 MLOAD PUSH3 0x461BCD PUSH1 0xE5 SHL DUP2 MSTORE PUSH1 0x20 PUSH1 0x4 DUP3 ADD MSTORE PUSH1 0xD PUSH1 0x24 DUP3 ADD MSTORE PUSH13 0x2737BA103932B8BAB2B9BA32B9 PUSH1 0x99 SHL PUSH1 0x44 DUP3 ADD MSTORE PUSH1 0x64 SWAP1 REVERT JUMPDEST ISZERO PUSH2 0x3AC3 JUMPI JUMP JUMPDEST PUSH1 0x40 MLOAD PUSH3 0x461BCD PUSH1 0xE5 SHL DUP2 MSTORE PUSH1 0x20 PUSH1 0x4 DUP3 ADD MSTORE PUSH1 0xD PUSH1 0x24 DUP3 ADD MSTORE PUSH13 0x2A30B9B5903737BA1037B832B7 PUSH1 0x99 SHL PUSH1 0x44 DUP3 ADD MSTORE PUSH1 0x64 SWAP1 REVERT JUMPDEST PUSH1 0x0 NOT DUP2 EQ PUSH2 0x69D JUMPI PUSH1 0x1 ADD SWAP1 JUMP JUMPDEST SWAP2 SWAP1 DUP2 LT ISZERO PUSH2 0x2AB3 JUMPI PUSH1 0x5 SHL ADD SWAP1 JUMP JUMPDEST CALLDATALOAD PUSH1 0x1 PUSH1 0x1 PUSH1 0xA0 SHL SUB DUP2 AND DUP2 SUB PUSH2 0x5FB JUMPI SWAP1 JUMP JUMPDEST DUP1 SLOAD PUSH1 0x1 PUSH1 0x40 SHL DUP2 LT ISZERO PUSH2 0x1F99 JUMPI PUSH2 0x3B48 SWAP2 PUSH1 0x1 DUP3 ADD DUP2 SSTORE PUSH2 0x3774 JUMP JUMPDEST DUP2 SWAP3 SWAP2 SLOAD SWAP1 PUSH1 0x3 SHL SWAP2 PUSH1 0x1 DUP1 PUSH1 0xA0 SHL SUB DUP1 SWAP2 AND DUP4 SHL SWAP3 SHL NOT AND OR SWAP1 SSTORE JUMP JUMPDEST SWAP3 SWAP2 SWAP3 PUSH1 0x1 PUSH1 0x1 PUSH1 0x40 SHL SUB DUP3 GT PUSH2 0x1F99 JUMPI PUSH1 0x40 MLOAD SWAP2 PUSH2 0x3B8F PUSH1 0x1F DUP3 ADD PUSH1 0x1F NOT AND PUSH1 0x20 ADD DUP5 PUSH2 0x3846 JUMP JUMPDEST DUP3 SWAP5 DUP2 DUP5 MSTORE DUP2 DUP4 ADD GT PUSH2 0x5FB JUMPI DUP3 DUP2 PUSH1 0x20 SWAP4 DUP5 PUSH1 0x0 SWAP7 ADD CALLDATACOPY ADD ADD MSTORE JUMP JUMPDEST CALLDATALOAD PUSH1 0xFF DUP2 AND DUP2 SUB PUSH2 0x5FB JUMPI SWAP1 JUMP JUMPDEST SWAP2 SWAP1 DUP3 ADD DUP1 SWAP3 GT PUSH2 0x69D JUMPI JUMP JUMPDEST SWAP1 PUSH1 0x40 MLOAD SWAP2 DUP3 DUP2 SLOAD SWAP2 DUP3 DUP3 MSTORE PUSH1 0x20 SWAP3 DUP4 DUP4 ADD SWAP2 PUSH1 0x0 MSTORE DUP4 PUSH1 0x0 KECCAK256 SWAP4 PUSH1 0x0 SWAP1 JUMPDEST DUP3 DUP3 LT PUSH2 0x3BFC JUMPI POP POP POP PUSH2 0x38A5 SWAP3 POP SUB DUP4 PUSH2 0x3846 JUMP JUMPDEST DUP6 SLOAD PUSH1 0x1 PUSH1 0x1 PUSH1 0xA0 SHL SUB AND DUP5 MSTORE PUSH1 0x1 SWAP6 DUP7 ADD SWAP6 DUP9 SWAP6 POP SWAP4 DUP2 ADD SWAP4 SWAP1 SWAP2 ADD SWAP1 PUSH2 0x3BE6 JUMP INVALID LOG2 PUSH5 0x6970667358 0x22 SLT KECCAK256 0xAC LT 0xC7 0xC CODECOPY 0xBD SWAP14 DUP1 EXTCODESIZE RETURN BALANCE LT PUSH23 0xD4039C1DF2A17556E54DD6BBEE8C8335DDC3F864736F6C PUSH4 0x43000814 STOP CALLER "},"methodIdentifiers":{"BASIS_POINTS()":"e1f1c4a7","BONUS_POOL_BP()":"3d7fe3f8","EVALUATOR_POOL_BP()":"a97e71a9","WORKER_POOL_BP()":"841defe8","allTaskIds(uint256)":"76c3504b","cancelTask(bytes32)":"ee8ca3b5","createTask(bytes32,string,bytes32,uint256,uint256,uint256,uint64,bytes32,uint8,uint8)":"3fde66a4","defaultEvaluationWindow()":"94e4cf1e","defaultEvaluatorCount()":"e75e0638","defaultSubmissionWindow()":"5507edd1","defaultWorkerCount()":"457cebcc","emergencyWithdraw(address,uint256)":"95ccea67","evaluations(bytes32,address,address)":"87237b53","evaluatorTasks(address,uint256)":"efa3d6c4","getEvaluation(bytes32,address,address)":"7b1a91da","getEvaluatorTasks(address)":"5246730d","getRequesterTasks(address)":"13d9a2cd","getResult(bytes32,address)":"4c8d0f0c","getTask(bytes32)":"15a29035","getTaskCount()":"c17a340e","getWorkerTasks(address)":"aae895c5","inConsensusCluster(bytes32,address)":"5647e626","owner()":"8da5cb5b","paymentToken()":"3013ce29","registry()":"7b103999","renounceOwnership()":"715018a6","requesterTasks(address,uint256)":"a0974a0a","results(bytes32,address)":"c380792e","selectEvaluators(bytes32,address[])":"d2a254d7","selectWorkers(bytes32,address[])":"c25efb8e","settleTask(bytes32,bytes32,address[],uint8[],address[],address[])":"f80aad88","submitEvaluation(bytes32,address,uint8,uint8,bytes32,string)":"1b07b47d","submitResult(bytes32,bytes32,string,bytes32)":"91870088","tasks(bytes32)":"e579f500","transferOwnership(address)":"f2fde38b","updateDefaults(uint8,uint8,uint64,uint64)":"82627e4f","winningClusterHash(bytes32)":"dd760bae","workerTasks(address,uint256)":"2bf70dee"}}}}}